{
  "_format": "hh-sol-artifact-1",
  "contractName": "CrocSwapDex",
  "sourceName": "contracts/CrocSwapDex.sol",
  "abi": [
    {
      "inputs": [
        {
          "internalType": "address",
          "name": "authority",
          "type": "address"
        },
        {
          "internalType": "address",
          "name": "coldPath",
          "type": "address"
        }
      ],
      "stateMutability": "nonpayable",
      "type": "constructor"
    },
    {
      "anonymous": false,
      "inputs": [
        {
          "indexed": true,
          "internalType": "bytes32",
          "name": "pool",
          "type": "bytes32"
        },
        {
          "indexed": true,
          "internalType": "int24",
          "name": "tick",
          "type": "int24"
        },
        {
          "indexed": false,
          "internalType": "bool",
          "name": "isBid",
          "type": "bool"
        },
        {
          "indexed": false,
          "internalType": "uint32",
          "name": "pivotTime",
          "type": "uint32"
        },
        {
          "indexed": false,
          "internalType": "uint64",
          "name": "feeMileage",
          "type": "uint64"
        },
        {
          "indexed": false,
          "internalType": "uint160",
          "name": "commitEntropy",
          "type": "uint160"
        }
      ],
      "name": "CrocKnockoutCross",
      "type": "event"
    },
    {
      "inputs": [
        {
          "internalType": "uint16",
          "name": "callpath",
          "type": "uint16"
        },
        {
          "internalType": "bytes",
          "name": "cmd",
          "type": "bytes"
        },
        {
          "internalType": "bool",
          "name": "sudo",
          "type": "bool"
        }
      ],
      "name": "protocolCmd",
      "outputs": [
        {
          "internalType": "bytes",
          "name": "",
          "type": "bytes"
        }
      ],
      "stateMutability": "payable",
      "type": "function"
    },
    {
      "inputs": [
        {
          "internalType": "uint256",
          "name": "slot",
          "type": "uint256"
        }
      ],
      "name": "readSlot",
      "outputs": [
        {
          "internalType": "uint256",
          "name": "data",
          "type": "uint256"
        }
      ],
      "stateMutability": "view",
      "type": "function"
    },
    {
      "inputs": [
        {
          "internalType": "address",
          "name": "base",
          "type": "address"
        },
        {
          "internalType": "address",
          "name": "quote",
          "type": "address"
        },
        {
          "internalType": "uint256",
          "name": "poolIdx",
          "type": "uint256"
        },
        {
          "internalType": "bool",
          "name": "isBuy",
          "type": "bool"
        },
        {
          "internalType": "bool",
          "name": "inBaseQty",
          "type": "bool"
        },
        {
          "internalType": "uint128",
          "name": "qty",
          "type": "uint128"
        },
        {
          "internalType": "uint16",
          "name": "tip",
          "type": "uint16"
        },
        {
          "internalType": "uint128",
          "name": "limitPrice",
          "type": "uint128"
        },
        {
          "internalType": "uint128",
          "name": "minOut",
          "type": "uint128"
        },
        {
          "internalType": "uint8",
          "name": "reserveFlags",
          "type": "uint8"
        }
      ],
      "name": "swap",
      "outputs": [
        {
          "internalType": "int128",
          "name": "baseQuote",
          "type": "int128"
        },
        {
          "internalType": "int128",
          "name": "quoteFlow",
          "type": "int128"
        }
      ],
      "stateMutability": "payable",
      "type": "function"
    },
    {
      "inputs": [
        {
          "internalType": "uint16",
          "name": "callpath",
          "type": "uint16"
        },
        {
          "internalType": "bytes",
          "name": "cmd",
          "type": "bytes"
        }
      ],
      "name": "userCmd",
      "outputs": [
        {
          "internalType": "bytes",
          "name": "",
          "type": "bytes"
        }
      ],
      "stateMutability": "payable",
      "type": "function"
    },
    {
      "inputs": [
        {
          "internalType": "uint16",
          "name": "callpath",
          "type": "uint16"
        },
        {
          "internalType": "bytes",
          "name": "cmd",
          "type": "bytes"
        },
        {
          "internalType": "bytes",
          "name": "conds",
          "type": "bytes"
        },
        {
          "internalType": "bytes",
          "name": "relayerTip",
          "type": "bytes"
        },
        {
          "internalType": "bytes",
          "name": "signature",
          "type": "bytes"
        }
      ],
      "name": "userCmdRelayer",
      "outputs": [
        {
          "internalType": "bytes",
          "name": "output",
          "type": "bytes"
        }
      ],
      "stateMutability": "payable",
      "type": "function"
    },
    {
      "inputs": [
        {
          "internalType": "uint16",
          "name": "callpath",
          "type": "uint16"
        },
        {
          "internalType": "bytes",
          "name": "cmd",
          "type": "bytes"
        },
        {
          "internalType": "address",
          "name": "client",
          "type": "address"
        },
        {
          "internalType": "uint256",
          "name": "salt",
          "type": "uint256"
        }
      ],
      "name": "userCmdRouter",
      "outputs": [
        {
          "internalType": "bytes",
          "name": "",
          "type": "bytes"
        }
      ],
      "stateMutability": "payable",
      "type": "function"
    },
    {
      "anonymous": false,
      "inputs": [
        {
          "indexed": true,
          "internalType": "address",
          "name": "base",
          "type": "address"
        },
        {
          "indexed": true,
          "internalType": "address",
          "name": "quote",
          "type": "address"
        },
        {
          "indexed": false,
          "internalType": "uint256",
          "name": "poolIdx",
          "type": "uint256"
        },
        {
          "indexed": false,
          "internalType": "bool",
          "name": "isBuy",
          "type": "bool"
        },
        {
          "indexed": false,
          "internalType": "bool",
          "name": "inBaseQty",
          "type": "bool"
        },
        {
          "indexed": false,
          "internalType": "uint128",
          "name": "qty",
          "type": "uint128"
        },
        {
          "indexed": false,
          "internalType": "uint16",
          "name": "tip",
          "type": "uint16"
        },
        {
          "indexed": false,
          "internalType": "uint128",
          "name": "limitPrice",
          "type": "uint128"
        },
        {
          "indexed": false,
          "internalType": "uint128",
          "name": "minOut",
          "type": "uint128"
        },
        {
          "indexed": false,
          "internalType": "uint8",
          "name": "reserveFlags",
          "type": "uint8"
        },
        {
          "indexed": false,
          "internalType": "int128",
          "name": "baseFlow",
          "type": "int128"
        },
        {
          "indexed": false,
          "internalType": "int128",
          "name": "quoteFlow",
          "type": "int128"
        }
      ],
      "name": "CrocSwap",
      "type": "event"
    }
  ],
  "bytecode": "0x60806040523480156200001157600080fd5b5060405162005eeb38038062005eeb833981016040819052620000349162000099565b6201000180546001600160a01b039384166001600160a01b0319918216179091556000805460ff60a81b1916600160a81b1790556001805490911691909216179055620000d0565b80516001600160a01b03811681146200009457600080fd5b919050565b60008060408385031215620000ac578182fd5b620000b7836200007c565b9150620000c7602084016200007c565b90509250929050565b615e0b80620000e06000396000f3fe6080604052600436106100655760003560e01c80633b0746d1116100435780633b0746d1146100cf5780633d719cd9146100e2578063a15112f91461010f57600080fd5b806302ce8af31461006a578063087190701461009c57806313fd34f4146100bc575b600080fd5b34801561007657600080fd5b50610089610085366004615840565b5490565b6040519081526020015b60405180910390f35b6100af6100aa36600461576c565b610122565b604051610093919061595f565b6100af6100ca366004615706565b6102e1565b6100af6100dd366004615698565b6103d2565b6100f56100f036600461552a565b610483565b60408051600f93840b81529190920b602082015201610093565b6100af61011d366004615645565b610548565b606060405180608001604052808b61ffff1681526020018a8a8080601f016020809104026020016040519081016040528093929190818152602001838380828437600092019190915250505090825250604080516020601f8b0181900481028201810190925289815291810191908a908a9081908401838280828437600092019190915250505090825250604080516020601f890181900481028201810190925287815291810191908890889081908401838280828437600092018290525093909452505054859150849073ffffffffffffffffffffffffffffffffffffffff161561020d57600080fd5b6102188383836105d3565b600080547fffffffffffffffffffffffff00000000000000000000000000000000000000001673ffffffffffffffffffffffffffffffffffffffff929092169190911790556102688d8d8d6105f7565b93506102a988888080601f01602080910402602001604051908101604052809392919081815260200183838082843760009201919091525061074c92505050565b5050600080547fffffffffffffffffffffffff0000000000000000000000000000000000000000169055509998505050505050505050565b6201000154606090829073ffffffffffffffffffffffffffffffffffffffff1633148015610325575060005473ffffffffffffffffffffffffffffffffffffffff16155b61032e57600080fd5b600080547fffffffffffffffffffffff00000000000000000000000000000000000000000016337fffffffffffffffffffffff00ffffffffffffffffffffffffffffffffffffffff161774010000000000000000000000000000000000000000831515021790556103a08686866109cd565b600080547fffffffffffffffffffffff0000000000000000000000000000000000000000001690559695505050505050565b606082826103e1823383610aca565b60005473ffffffffffffffffffffffffffffffffffffffff161561040457600080fd5b600080547fffffffffffffffffffffffff00000000000000000000000000000000000000001673ffffffffffffffffffffffffffffffffffffffff841617905561044f8888886105f7565b600080547fffffffffffffffffffffffff000000000000000000000000000000000000000016905598975050505050505050565b60008054819073ffffffffffffffffffffffffffffffffffffffff16156104a957600080fd5b600080547fffffffffffffffffffffffff00000000000000000000000000000000000000001633179081905560ff7501000000000000000000000000000000000000000000909104166104fb57600080fd5b61050d8c8c8c8c8c8c8c8c8c8c610b94565b600080547fffffffffffffffffffffffff0000000000000000000000000000000000000000169055909d909c509a5050505050505050505050565b60005460609073ffffffffffffffffffffffffffffffffffffffff161561056e57600080fd5b600080547fffffffffffffffffffffffff000000000000000000000000000000000000000016331790556105a38484846105f7565b600080547fffffffffffffffffffffffff0000000000000000000000000000000000000000169055949350505050565b60006105e0848484610c05565b90506105f0818560400151610cd3565b9392505050565b606061060284610d98565b60008060018661ffff16620100008110610645577f4e487b7100000000000000000000000000000000000000000000000000000000600052603260045260246000fd5b015460405173ffffffffffffffffffffffffffffffffffffffff909116906106739087908790602401615912565b604080517fffffffffffffffffffffffffffffffffffffffffffffffffffffffffffffffe08184030181529181526020820180517bffffffffffffffffffffffffffffffffffffffffffffffffffffffff167ff96dc78800000000000000000000000000000000000000000000000000000000179052516106f491906158f6565b600060405180830381855af49150503d806000811461072f576040519150601f19603f3d011682016040523d82523d6000602084013e610734565b606091505b50915091508161074357600080fd5b95945050505050565b80516107555750565b60008060008380602001905181019061076e91906154de565b92509250925061077d81610e3a565b60008054919250906107a59073ffffffffffffffffffffffffffffffffffffffff1685610e8b565b905060006107b38386610e8b565b90506fffffffffffffffffffffffffffffffff84811614156107f55760008281526201001060205260409020546fffffffffffffffffffffffffffffffff1693505b60008281526201001060205260409020546fffffffffffffffffffffffffffffffff8086169116101561082757600080fd5b60008054610100906108579077010000000000000000000000000000000000000000000000900460ff1687615b11565b6108619190615ace565b9050600061086f8287615be9565b60008581526201001060205260408120805492935088929091906108a69084906fffffffffffffffffffffffffffffffff16615be9565b82546101009290920a6fffffffffffffffffffffffffffffffff81810219909316918316021790915560008581526201001060205260408120805485945090926108f291859116615a77565b92506101000a8154816fffffffffffffffffffffffffffffffff02191690836fffffffffffffffffffffffffffffffff1602179055506000826fffffffffffffffffffffffffffffffff1611156109c35773ffffffffffffffffffffffffffffffffffffffff871660009081526201000c60205260408120805484929061098c9084906fffffffffffffffffffffffffffffffff16615a77565b92506101000a8154816fffffffffffffffffffffffffffffffff02191690836fffffffffffffffffffffffffffffffff1602179055505b5050505050505050565b60606109d884610d98565b60008060018661ffff16620100008110610a1b577f4e487b7100000000000000000000000000000000000000000000000000000000600052603260045260246000fd5b015460405173ffffffffffffffffffffffffffffffffffffffff90911690610a499087908790602401615912565b604080517fffffffffffffffffffffffffffffffffffffffffffffffffffffffffffffffe08184030181529181526020820180517bffffffffffffffffffffffffffffffffffffffffffffffffffffffff167fb670198000000000000000000000000000000000000000000000000000000000179052516106f491906158f6565b6000620100106000610add868686610edb565b81526020810191909152604001600020805490915063ffffffff7401000000000000000000000000000000000000000090910481161015610b8e57805474010000000000000000000000000000000000000000900463ffffffff16610b4157600080fd5b80548190601490610b6f9074010000000000000000000000000000000000000000900463ffffffff16615c7a565b91906101000a81548163ffffffff021916908363ffffffff1602179055505b50505050565b6000806000610ba88d8d8d8a8e8e8e610f88565b90506000610bb9828c8c8c8b611025565b8051602082015190955093509050610bd381878d8d61109d565b50610be98e8e836000015184602001518961116c565b610bf4818f8f611195565b50509a509a98505050505050505050565b6000808080610c16858701876158c4565b9250925092506000610c27886112dd565b60408051600081526020810180835283905260ff871691810191909152606081018590526080810184905290915060019060a0016020604051602081039080840390855afa158015610c7d573d6000803e3d6000fd5b50506040517fffffffffffffffffffffffffffffffffffffffffffffffffffffffffffffffe0015195505073ffffffffffffffffffffffffffffffffffffffff8516610cc857600080fd5b505050509392505050565b600080600080600085806020019051810190610cef9190615858565b945094509450945094508465ffffffffffff16421115610d0e57600080fd5b8365ffffffffffff16421015610d2357600080fd5b73ffffffffffffffffffffffffffffffffffffffff81161580610d5b575073ffffffffffffffffffffffffffffffffffffffff811633145b80610d7b575073ffffffffffffffffffffffffffffffffffffffff811632145b610d8457600080fd5b610d8f8784846113c6565b50505050505050565b6000600161ffff8316620100008110610dda577f4e487b7100000000000000000000000000000000000000000000000000000000600052603260045260246000fd5b015473ffffffffffffffffffffffffffffffffffffffff161415610dfd57600080fd5b600054760100000000000000000000000000000000000000000000900460ff161580610e2e575061ffff811661270f145b610e3757600080fd5b50565b600073ffffffffffffffffffffffffffffffffffffffff82166101001415610e63573391505090565b73ffffffffffffffffffffffffffffffffffffffff82166102001415610e87573291505b5090565b6040805173ffffffffffffffffffffffffffffffffffffffff80851660208301528316918101919091526000906060015b6040516020818303038152906040528051906020012090505b92915050565b600081610f2d576040805173ffffffffffffffffffffffffffffffffffffffff80871660208301528516918101919091526060015b6040516020818303038152906040528051906020012090506105f0565b6040805173ffffffffffffffffffffffffffffffffffffffff858116602080840191909152828401869052835180840385018152606084019094528351930192909220868316608083015290911660a082015260c001610f10565b60408051610140810182526000606082018181526080830182905260a0830182905260c0830182905260e083018290526101008301829052610120830182905282526020820181905291810182905290610fe389898961143f565b905080600001516020015161ffff168661ffff16111561100b57805161ffff87166020909101525b611019818a8a888888611515565b98975050505050505050565b6040805160808082018352600080835260208084018290528385018290526060808501839052855160a081018752958601929092528815158552871515908501526fffffffffffffffffffffffffffffffff868116918501919091528416908301529061109281886116c8565b979650505050505050565b6000816110ab5784516110b1565b84602001515b9050821515821515146000816110c757856110d0565b6110d086615cdc565b905080600f0b83600f0b1315806110f757506fffffffffffffffffffffffffffffffff8616155b611162576040517f08c379a000000000000000000000000000000000000000000000000000000000815260206004820152600260248201527f534c00000000000000000000000000000000000000000000000000000000000060448201526064015b60405180910390fd5b5050949350505050565b60005473ffffffffffffffffffffffffffffffffffffffff1680610d8f818089888a898961180d565b60408301516fffffffffffffffffffffffffffffffff16156112375760408084015173ffffffffffffffffffffffffffffffffffffffff841660009081526201000c6020529182208054919290916112009084906fffffffffffffffffffffffffffffffff16615a77565b92506101000a8154816fffffffffffffffffffffffffffffffff02191690836fffffffffffffffffffffffffffffffff1602179055505b60608301516fffffffffffffffffffffffffffffffff16156112d857606083015173ffffffffffffffffffffffffffffffffffffffff821660009081526201000c6020526040812080549091906112a19084906fffffffffffffffffffffffffffffffff16615a77565b92506101000a8154816fffffffffffffffffffffffffffffffff02191690836fffffffffffffffffffffffffffffffff1602179055505b505050565b6000806112e983611862565b905061136d604080517f8cad95687ba82c2ce50e74f7b754645e5117c3a5bec8151c0726d5857980a86660208201527f33dd648f3c5d475752f4dfbf3ab10305e18604abf30961145f1889ec2e8675639181019190915246606082015230608082015260009060a00160405160208183030381529060405280519060200120905090565b6040517f1901000000000000000000000000000000000000000000000000000000000000602082015260228101919091526042810182905260620160405160208183030381529060405280519060200120915050919050565b60006201001060006113d88686611901565b81526020810191909152604001600020805490915063ffffffff838116700100000000000000000000000000000000909204161461141557600080fd5b80548190601090610b6f90700100000000000000000000000000000000900463ffffffff16615cb8565b60408051610140810182526000606082018181526080830182905260a0830182905260c0830182905260e08301829052610100830182905261012083018290528252602082018190529181019190915261149e62010009858585611932565b90506114af81515160ff1660011490565b6105f0576040517f08c379a000000000000000000000000000000000000000000000000000000000815260206004820152600260248201527f50490000000000000000000000000000000000000000000000000000000000006044820152606401611159565b604086015173ffffffffffffffffffffffffffffffffffffffff16156116c0576040868101516000805489516020015193517f4e56bd3800000000000000000000000000000000000000000000000000000000815273ffffffffffffffffffffffffffffffffffffffff918216600482015233602482015289821660448201528882166064820152871515608482015286151560a48201526fffffffffffffffffffffffffffffffff861660c482015261ffff90941660e48501529092911690634e56bd389061010401602060405180830381600087803b1580156115f957600080fd5b505af115801561160d573d6000803e3d6000fd5b505050506040513d601f19601f820116820180604052508101906116319190615629565b905060008161ffff16116116a1576040517f08c379a000000000000000000000000000000000000000000000000000000000815260206004820152600160248201527f5a000000000000000000000000000000000000000000000000000000000000006044820152606401611159565b8087600001516020018181516116b79190615c12565b61ffff16905250505b505050505050565b60408051608081018252600080825260208201819052918101829052606081019190915260006116fb8360200151611a63565b9050611728828261172184600001516fffffffffffffffffffffffffffffffff16611b38565b8787611e8b565b60208084015160009081526201000f82526040908190208351928401516fffffffffffffffffffffffffffffffff9384167001000000000000000000000000000000009185168202178255918401516001909101805460608601516080870151939095167fffffffffffffffff0000000000000000000000000000000000000000000000009091161767ffffffffffffffff9485169093029290921777ffffffffffffffffffffffffffffffffffffffffffffffff16780100000000000000000000000000000000000000000000000093909116929092029190911790555092915050565b73ffffffffffffffffffffffffffffffffffffffff851661183e57611839878786600185161515611fce565b611850565b6118508787868860018616151561200b565b610d8f8787848660028616151561200b565b60007fb7268d49bb01bc5e690da8069036b0caa17476a23af017f9840ccc0fc5ca01b782600001518360200151805190602001208460400151805190602001208560600151805190602001206040516020016118e495949392919094855261ffff93909316602085015260408401919091526060830152608082015260a00190565b604051602081830303815290604052805190602001209050919050565b6040805173ffffffffffffffffffffffffffffffffffffffff84166020820152908101829052600090606001610ebc565b60408051610140810182526000606082018181526080830182905260a0830182905260c0830182905260e08301829052610100830182905261012083018290528252602082018190529181018290529061198d85858561203b565b600081815260208881526040808320815160e081018352905460ff808216835261ffff6101008304811695840195909552630100000082048116938301939093526401000000008104909316606082015266010000000000008304821660808201526701000000000000008304821660a0820152680100000000000000009092041660c0820181905292935091611a259086906120c8565b60408051606081018252938452602084019490945273ffffffffffffffffffffffffffffffffffffffff16928201929092529150505b949350505050565b6040805160a0810182526000808252602082018190529181018290526060810182905260808101919091525060008181526201000f6020908152604091829020825160a08101845281546fffffffffffffffffffffffffffffffff808216808452700100000000000000000000000000000000928390048216958401959095526001909301549283169482019490945292810467ffffffffffffffff90811660608501527801000000000000000000000000000000000000000000000000909104166080830152611b3357600080fd5b919050565b6000620100026fffffffffffffffffffffffffffffffff831610801590611b8057506f0ffff5433e2b3d8211706e6102aa94726fffffffffffffffffffffffffffffffff8316105b611b8957600080fd5b77ffffffffffffffffffffffffffffffff0000000000000000604083901b166fffffffffffffffffffffffffffffffff811160071b81811c67ffffffffffffffff811160061b90811c63ffffffff811160051b90811c61ffff811160041b90811c60ff8111600390811b91821c600f811160021b90811c918211600190811b92831c97908811961790941790921717909117171760808110611c3357607f810383901c9150611c3d565b80607f0383901b91505b908002607f81811c60ff83811c9190911c800280831c81831c1c800280841c81841c1c800280851c81851c1c800280861c81861c1c800280871c81871c1c800280881c81881c1c800280891c81891c1c8002808a1c818a1c1c8002808b1c818b1c1c8002808c1c818c1c1c8002808d1c818d1c1c8002808e1c9c81901c9c909c1c80029c8d901c9e9d7fffffffffffffffffffffffffffffffffffffffffffffffffffffffffffffff808f0160401b60c09190911c678000000000000000161760c19b909b1c674000000000000000169a909a1760c29990991c672000000000000000169890981760c39790971c671000000000000000169690961760c49590951c670800000000000000169490941760c59390931c670400000000000000169290921760c69190911c670200000000000000161760c79190911c670100000000000000161760c89190911c6680000000000000161760c99190911c6640000000000000161760ca9190911c6620000000000000161760cb9190911c6610000000000000161760cc9190911c6608000000000000161760cd9190911c66040000000000001617693627a301d71055774c8581027ffffffffffffffffffffffffffffffffffd709b7e5480fba5a50fed5e62ffc5568101608090811d906fdb2df09e81959a81455e260799a0632f8301901d600281810b9083900b14611e7c57886fffffffffffffffffffffffffffffffff16611e58826120e5565b6fffffffffffffffffffffffffffffffff161115611e765781611e7e565b80611e7e565b815b9998505050505050505050565b60808201518451835115156fffffffffffffffffffffffffffffffff928316919092161014611f16576040517f08c379a000000000000000000000000000000000000000000000000000000000815260206004820152600260248201527f53440000000000000000000000000000000000000000000000000000000000006044820152606401611159565b60015b80156116c057600080611f35846020015186600001518861247b565b85519193509150611f4c9088908a908890866124cd565b611f56878661256d565b92508215611fc7578015611fad576000611f798560200151848860000151612606565b92839150600282810b91900b1480611faa578551611f9d908a908c908a90886124cd565b611fa7898861256d565b94505b50505b8215611fc757611fc4888389888860200151612668565b95505b5050611f19565b6000611fd934612701565b905082600f0b600014611ffa57611ff585858560008587612720565b612004565b6120048482612761565b5050505050565b73ffffffffffffffffffffffffffffffffffffffff821661202b57600080fd5b60006116c0868686868587612720565b60008273ffffffffffffffffffffffffffffffffffffffff168473ffffffffffffffffffffffffffffffffffffffff161061207557600080fd5b6040805173ffffffffffffffffffffffffffffffffffffffff8087166020830152851691810191909152606081018390526080016040516020818303038152906040528051906020012090509392505050565b6000600180831614806120dc576000611a5b565b50505060601c90565b60007ffffffffffffffffffffffffffffffffffffffffffffffffffffffffffff5d892600283900b128015906121225750620cb14a600283900b13155b61212b57600080fd5b6000808360020b12612140578260020b612148565b8260020b6000035b905060006001821661216b5770010000000000000000000000000000000061217d565b6ffffcb933bd6fad37aa2d162d1a5940015b70ffffffffffffffffffffffffffffffffff16905060028216156121b1576ffff97272373d413259a46990580e213a0260801c5b60048216156121d0576ffff2e50f5f656932ef12357cf3c7fdcc0260801c5b60088216156121ef576fffe5caca7e10e4e61c3624eaa0941cd00260801c5b601082161561220e576fffcb9843d60f6159c9db58835c9266440260801c5b602082161561222d576fff973b41fa98c081472e6896dfb254c00260801c5b604082161561224c576fff2ea16466c96a3843ec78b326b528610260801c5b608082161561226b576ffe5dee046a99a2a811c461f1969c30530260801c5b61010082161561228b576ffcbe86c7900a88aedcffc83b479aa3a40260801c5b6102008216156122ab576ff987a7253ac413176f2b074cf7815e540260801c5b6104008216156122cb576ff3392b0822b70005940c7a398e4b70f30260801c5b6108008216156122eb576fe7159475a2c29b7443b29c7fa6e889d90260801c5b61100082161561230b576fd097f3bdfd2022b8845ad8f792aa58250260801c5b61200082161561232b576fa9f746462d870fdf8a65dc1f90e061e50260801c5b61400082161561234b576f70d869a156d2a1b890bb3df62baf32f70260801c5b61800082161561236b576f31be135f97d08fd981231505542fcfa60260801c5b6201000082161561238c576f09aa508b5b7a84e1c677de54f3e99bc90260801c5b620200008216156123ac576e5d6af8dedb81196699c329225ee6040260801c5b620400008216156123cb576d2216e584f5fa1ea926041bedfe980260801c5b620800008216156123e8576b048a170391f7dc42444e8fa20260801c5b60008460020b131561244e57807fffffffffffffffffffffffffffffffffffffffffffffffffffffffffffffffff8161244a577f4e487b7100000000000000000000000000000000000000000000000000000000600052601260045260246000fd5b0490505b68010000000000000000810615612466576001612469565b60005b60ff16604082901c0192505050919050565b600080600061248a8685612799565b9050600061249c600286900b876127bf565b905060006124b08660020b60020b60081d90565b90506124be878383866127fb565b90999098509650505050505050565b60006124e2828560800151866000015161284d565b905060008060006124fe898860600151888a60200151886128c8565b60208a01519295509093509150612519908990858585612914565b61253289886020015189600001518a606001518861297f565b6fffffffffffffffffffffffffffffffff1660608a01526020890151919450925061256290899085856000612914565b505050505050505050565b60008082600001516125ad5782608001516fffffffffffffffffffffffffffffffff1684600001516fffffffffffffffffffffffffffffffff16116125dd565b82608001516fffffffffffffffffffffffffffffffff1684600001516fffffffffffffffffffffffffffffffff16105b9050808015611a5b57505050606001516fffffffffffffffffffffffffffffffff161515919050565b60008060006126158585612a01565b9150915060008061262888858589612a43565b915091508061263c575092506105f0915050565b61264888858589612ab2565b90925090508061265d575092506105f0915050565b611019888588612b2f565b600061267385612b4f565b61267e575083610743565b61268e8486856000015185612b8e565b60008060006126b68660200151876000015188606001518a612c1a909392919063ffffffff16565b919450925090506126c8898484612cf5565b6060860180518290036fffffffffffffffffffffffffffffffff16905285516126f45760018803611e7e565b5095979650505050505050565b806fffffffffffffffffffffffffffffffff81168114611b3357600080fd5b6000600f85900b131561273f5761273a8685858585612d34565b6116c0565b6000600f85900b12156116c0576116c08561275986615cdc565b858585612d67565b6fffffffffffffffffffffffffffffffff8116156127955761279582826fffffffffffffffffffffffffffffffff16612d8f565b5050565b6000806127a68484612e59565b6000908152620100076020526040902054949350505050565b6000806127cb84612eaf565b90506000836127db5760006127de565b60015b60ff169050806127ee8386612ef3565b60ff160195945050505050565b600080808061280b85888a612f0a565b9150915061281a888287612f49565b92508261283657600186900b60020b60081b60ff831601612840565b6128408887612f7c565b9350505094509492505050565b60008061285b858585612fe9565b9050620100026fffffffffffffffffffffffffffffffff8216101561288657620100029150506105f0565b6f0ffff5433e2b3d8211706e6102aa94726fffffffffffffffffffffffffffffffff821610611a5b57506f0ffff5433e2b3d8211706e6102aa947190506105f0565b60008060008060006128e68a8a8a602001518b604001518b8b6130c0565b90925090506128f68a8389613110565b612901828289613180565b9450945094505050955095509592505050565b61291f858484612cf5565b83156129515780856060018181516129379190615a77565b6fffffffffffffffffffffffffffffffff16905250612004565b80856040018181516129639190615a77565b6fffffffffffffffffffffffffffffffff169052505050505050565b600080808061299089878a886131d8565b90506fffffffffffffffffffffffffffffffff8087169082161080156129d4576129bd8a878b8b8b613225565b919650945092506129cf8a8488613273565b6129f4565b6129e18a838b8b8b613302565b919650945092506129f48a848a8961333c565b5050955095509592505050565b600080600083612a1b57612a16600186615b86565b612a1d565b845b9050612a2b8160020b613401565b9250612a398160020b613418565b9150509250929050565b6000806000620100076000612a59898989613461565b81526020810191909152604001600090812054915080612a7a838288612f0a565b915091508015612a94576000600194509450505050612aa9565b612a9f8888846134c5565b6000945094505050505b94509492505050565b6000806000620100066000612ac789896134f5565b81526020019081526020016000205490506000612ae48686612ef3565b9050600080612af78460ff851689612f0a565b915091508015612b1257600060019550955050505050612aa9565b612b1e8a8a848a612a43565b955095505050505094509492505050565b600081612b4557612b408484613509565b611a5b565b611a5b8484613595565b60007fffffffffffffffffffffffffffffffffffffffffffffffffffffffffff800000600283900b138015610ed5575050627fffff60029190910b1290565b600080612ba183868689608001516135df565b60408801519193509150612bc7906fffffffffffffffffffffffffffffffff168361371e565b6fffffffffffffffffffffffffffffffff16604087015280156116c0576000612bf68487878a6080015161379e565b60408801519091506109c3906fffffffffffffffffffffffffffffffff168261371e565b600080600080612c34612c2c896138fa565b89518961391f565b9050806fffffffffffffffffffffffffffffffff16856fffffffffffffffffffffffffffffffff1611612cc3576040517f08c379a000000000000000000000000000000000000000000000000000000000815260206004820152600260248201527f42440000000000000000000000000000000000000000000000000000000000006044820152606401611159565b8515612ce057612cd48888836139be565b93509350935050612ceb565b612cd4888883613a5a565b9450945094915050565b8183600001818151612d0791906159b0565b600f90810b900b905250602083018051829190612d259083906159b0565b600f90810b900b905250505050565b8015612d5b576000612d47868686613af5565b9050612d5586828686613bd4565b50612004565b61200485858585613c22565b8015612d8357612d78858585613c53565b611ff5858484613cd2565b61200485858585613cf7565b60008273ffffffffffffffffffffffffffffffffffffffff168260405160006040518083038185875af1925050503d8060008114612de9576040519150601f19603f3d011682016040523d82523d6000602084013e612dee565b606091505b50509050806112d8576040517f08c379a000000000000000000000000000000000000000000000000000000000815260206004820152600260248201527f54460000000000000000000000000000000000000000000000000000000000006044820152606401611159565b600080612e6c8360020b60020b60081d90565b90508381604051602001612e9092919091825260010b60f01b602082015260220190565b6040516020818303038152906040528051906020012091505092915050565b60006101008260020b81612eec577f4e487b7100000000000000000000000000000000000000000000000000000000600052601260045260246000fd5b0792915050565b600081612f03578260ff036105f0565b5090919050565b600080612f18858585613d3a565b945050831580612f415782612f3557612f3085613d5e565b612f3e565b612f3e85613e0b565b91505b935093915050565b60008315612f585750816105f0565b6000612f648382613fee565b905080612f715783610743565b600095945050505050565b60008215612fd957612f8d83614021565b60010b8260010b14612fc957612fc4612fa7836001615a1f565b612fb18515614057565b60ff1660019190910b60020b60081b0190565b612fd2565b612fd28361406d565b9050610ed5565b600182900b60020b60081b612fd2565b60007ffffffffffffffffffffffffffffffffffffffffffffffffffffffffffff5d892600285900b1315806130255750620cb14a600285900b12155b156130315750816105f0565b81156130825760006001613044866120e5565b039050836fffffffffffffffffffffffffffffffff16816fffffffffffffffffffffffffffffffff1610613078578361307a565b805b9150506105f0565b600061308d856120e5565b9050836fffffffffffffffffffffffffffffffff16816fffffffffffffffffffffffffffffffff1611613078578361307a565b600080806130d0898987876140a4565b9050610100620f42406fffffffffffffffffffffffffffffffff831661ffff8a16020460ff8816810291909104908190039a909950975050505050505050565b600061311b846138fa565b90506fffffffffffffffffffffffffffffffff811661313a5750505050565b835182159060009061314f90849087856140e6565b905060006131638488600001518486614136565b905067ffffffffffffffff811615610d8f57610d8f878285614150565b6000808085850184156131af576131a8816fffffffffffffffffffffffffffffffff16614256565b92506131cd565b6131ca816fffffffffffffffffffffffffffffffff16614256565b93505b509195909450915050565b6000806131e6868585614286565b9050846fffffffffffffffffffffffffffffffff16816fffffffffffffffffffffffffffffffff1611613219578061321b565b845b9695505050505050565b60008060008060006132388a8a8a6142bc565b9150915060008061324b84848c8c61433c565b9150915061325e8c8b8b8b8f8787614373565b96509650965050505050955095509592505050565b82516fffffffffffffffffffffffffffffffff90811681831614908316151581801561329c5750805b612004576040517f08c379a000000000000000000000000000000000000000000000000000000000815260206004820152600260248201527f52500000000000000000000000000000000000000000000000000000000000006044820152606401611159565b60008060008060006133168a8a8a8a61440b565b915091506000806133298b858c8c614485565b9150915061325e8c8b8b8b878787614373565b6000826133615784516fffffffffffffffffffffffffffffffff80841691161161337b565b84516fffffffffffffffffffffffffffffffff8084169116105b90506fffffffffffffffffffffffffffffffff84161581801561339b5750805b6116c0576040517f08c379a000000000000000000000000000000000000000000000000000000000815260206004820152600260248201527f52460000000000000000000000000000000000000000000000000000000000006044820152606401611159565b6000610ed56134138360020b60101d90565b6144a4565b600061010061342a8360020b60081d90565b60010b81612eec577f4e487b7100000000000000000000000000000000000000000000000000000000600052601260045260246000fd5b600080613481613470856144c4565b60000b60010b60081b60ff85160190565b905084816040516020016134a592919091825260010b60f01b602082015260220190565b604051602081830303815290604052805190602001209150509392505050565b6000611a5b6134d3856144c4565b848460009290920b600290810b60101b60ff92831690910b60081b0191160190565b60006105f083613504846144c4565b614503565b600060ff7fffffffffffffffffffffffffffffffffffffffffffffffffffffffffffffffff83015b60ff8160ff16101561358a5760008061354d8784866000612ab2565b915091508061356157509250610ed5915050565b50507fffffffffffffffffffffffffffffffffffffffffffffffffffffffffffffffff01613531565b50611a5b600061406d565b600080600183015b60ff8116156135d4576000806135b68784866001612ab2565b91509150806135ca57509250610ed5915050565b505060010161359d565b50611a5b600161406d565b60008060006135ee8787614527565b8054909150600090613621906bffffffffffffffffffffffff808216916c0100000000000000000000000090041661457d565b9050856136365761363181615cdc565b613638565b805b825490945067ffffffffffffffff868116780100000000000000000000000000000000000000000000000090920416146136e857815461369e907801000000000000000000000000000000000000000000000000900467ffffffffffffffff1686615c2d565b825467ffffffffffffffff9190911678010000000000000000000000000000000000000000000000000277ffffffffffffffffffffffffffffffffffffffffffffffff9091161782555b856136f95781546001161515613711565b81546c01000000000000000000000000900460011615155b9250505094509492505050565b60008082600f0b121561376857826fffffffffffffffffffffffffffffffff168260000384039150816fffffffffffffffffffffffffffffffff161061376357600080fd5b610ed5565b826fffffffffffffffffffffffffffffffff168284019150816fffffffffffffffffffffffffffffffff161015610ed557600080fd5b610dad5460009073ffffffffffffffffffffffffffffffffffffffff166137c457600080fd5b6000806001610dac015460405160248101899052600288900b6044820152861515606482015267ffffffffffffffff8616608482015273ffffffffffffffffffffffffffffffffffffffff9091169060a401604080517fffffffffffffffffffffffffffffffffffffffffffffffffffffffffffffffe08184030181529181526020820180517bffffffffffffffffffffffffffffffffffffffffffffffffffffffff167f3c05c621000000000000000000000000000000000000000000000000000000001790525161389791906158f6565b600060405180830381855af49150503d80600081146138d2576040519150601f19603f3d011682016040523d82523d6000602084013e6138d7565b606091505b5091509150816138e657600080fd5b808060200190518101906110929190615608565b60008061390f83602001518460600151614599565b90506105f08184604001516145ee565b6000811561393f5750600167ffffffffffffffff604085901c16016105f0565b68010000000000000000836fffffffffffffffffffffffffffffffff16116139a65760006139708560018603614613565b60010190506fffffffffffffffffffffffffffffffff811115613078576fffffffffffffffffffffffffffffffff9150506105f0565b50600167ffffffffffffffff604085901c16016105f0565b600080600060016f0ffff5433e2b3d8211706e6102aa9472036fffffffffffffffffffffffffffffffff1686600001516fffffffffffffffffffffffffffffffff161015613a205785516001016fffffffffffffffffffffffffffffffff1686525b613a3b846fffffffffffffffffffffffffffffffff16614256565b600086613a49576000613a4b565b855b92509250925093509350939050565b6000806000620100026fffffffffffffffffffffffffffffffff1686600001516fffffffffffffffffffffffffffffffff161115613acb5785517fffffffffffffffffffffffffffffffffffffffffffffffffffffffffffffffff016fffffffffffffffffffffffffffffffff1686525b6000613ae8856fffffffffffffffffffffffffffffffff16614256565b8615613a49576000613a4b565b600080613b028584610e8b565b600081815262010010602052604090208054919250906fffffffffffffffffffffffffffffffff908116908616811115613b9757815486908390600090613b5c9084906fffffffffffffffffffffffffffffffff16615be9565b92506101000a8154816fffffffffffffffffffffffffffffffff02191690836fffffffffffffffffffffffffffffffff160217905550613bca565b81547fffffffffffffffffffffffffffffffff00000000000000000000000000000000168255613bc78187615be9565b93505b5050509392505050565b6fffffffffffffffffffffffffffffffff831615613bfd57613bf884848484613c22565b610b8e565b73ffffffffffffffffffffffffffffffffffffffff8216610b8e57610b8e8482612761565b73ffffffffffffffffffffffffffffffffffffffff8216613c4857613bf8848483614685565b610b8e84848461472b565b6000613c5f8483610e8b565b6000818152620100106020526040812080549293508592909190613c969084906fffffffffffffffffffffffffffffffff16615a77565b92506101000a8154816fffffffffffffffffffffffffffffffff02191690836fffffffffffffffffffffffffffffffff16021790555050505050565b73ffffffffffffffffffffffffffffffffffffffff82166112d8576112d88382612761565b73ffffffffffffffffffffffffffffffffffffffff8216613d1d57613bf8848483614749565b610b8e8285856fffffffffffffffffffffffffffffffff1661476e565b600081613d505761ffff831684811b901c611a5b565b505061ffff1690811c901b90565b6000808211613d6c57600080fd5b7001000000000000000000000000000000008210613d8c57608091821c91015b680100000000000000008210613da457604091821c91015b6401000000008210613db857602091821c91015b620100008210613dca57601091821c91015b6101008210613ddb57600891821c91015b60108210613deb57600491821c91015b60048210613dfb57600291821c91015b60028210611b3357600101919050565b6000808211613e1957600080fd5b5060ff6fffffffffffffffffffffffffffffffff821615613e5b577fffffffffffffffffffffffffffffffffffffffffffffffffffffffffffffff8001613e63565b608082901c91505b67ffffffffffffffff821615613e9a577fffffffffffffffffffffffffffffffffffffffffffffffffffffffffffffffc001613ea2565b604082901c91505b63ffffffff821615613ed5577fffffffffffffffffffffffffffffffffffffffffffffffffffffffffffffffe001613edd565b602082901c91505b61ffff821615613f0e577ffffffffffffffffffffffffffffffffffffffffffffffffffffffffffffffff001613f16565b601082901c91505b60ff821615613f46577ffffffffffffffffffffffffffffffffffffffffffffffffffffffffffffffff801613f4e565b600882901c91505b600f821615613f7e577ffffffffffffffffffffffffffffffffffffffffffffffffffffffffffffffffc01613f86565b600482901c91505b6003821615613fb6577ffffffffffffffffffffffffffffffffffffffffffffffffffffffffffffffffe01613fbe565b600282901c91505b6001821615611b33577fffffffffffffffffffffffffffffffffffffffffffffffffffffffffffffffff01919050565b6000806000614002858560ff166001612f0a565b915060ff1691508015801561074357508360ff16821495945050505050565b60008161404e577fffffffffffffffffffffffffffffffffffffffffffffffffffffffffffff8000610ed5565b617fff92915050565b600081614065576000610ed5565b60ff92915050565b60008161409a577fffffffffffffffffffffffffffffffffffffffffffffffffffffffffff800000610ed5565b627fffff92915050565b83516000906fffffffffffffffffffffffffffffffff90811690831611816140ce878787876131d8565b90506110926140dc886138fa565b88518385896148d7565b6000806140f486868561391f565b9050806fffffffffffffffffffffffffffffffff16846fffffffffffffffffffffffffffffffff16111561412a5780840361321b565b50600095945050505050565b600080614144868685614a11565b905061321b8185614a65565b825161415d908383614af7565b6fffffffffffffffffffffffffffffffff168352606083015161418a9067ffffffffffffffff1683614ba3565b67ffffffffffffffff908116606085018190526000916141ad9190851690614c06565b905060006141f66141dd8387604001516fffffffffffffffffffffffffffffffff16614c7590919063ffffffff16565b71ffffffffffffffffffffffffffffffffffff16612701565b905060006142048383614c9b565b905081866020018181516142189190615a77565b6fffffffffffffffffffffffffffffffff16905250608086018051829190614241908390615aab565b67ffffffffffffffff16905250505050505050565b60006f80000000000000000000000000000000826fffffffffffffffffffffffffffffffff1610610e8757600080fd5b600080614292856138fa565b9050836142ad576142a881848760000151614d0b565b610743565b61074381866000015185614d56565b60008060006142ca866138fa565b86519091506000906142f0906fffffffffffffffffffffffffffffffff84169088614d56565b8751909150600090614316906fffffffffffffffffffffffffffffffff85169089614d0b565b9050851561432a5790935091508282614331565b9350915081835b505050935093915050565b60008061434b86868686614d9e565b909250905061435b6004836159b0565b91506143686004826159b0565b905094509492505050565b600080600080614384868b8b614e42565b9050876fffffffffffffffffffffffffffffffff16816fffffffffffffffffffffffffffffffff16106143ba57600091506143c7565b6143c48189615be9565b91505b896143d257846143d4565b855b9350896143e157856143e3565b845b6fffffffffffffffffffffffffffffffff909716909a52919994985090965092945050505050565b6000806000614419876138fa565b905061442c876000015182888888614e78565b91508415614459578651614454906fffffffffffffffffffffffffffffffff83169084614d0b565b614479565b8651614479906fffffffffffffffffffffffffffffffff83169084614d56565b92505094509492505050565b60008061449486868686614d9e565b90925090506143686004826159b0565b6000808260000b12156144bd578160000b608001610ed5565b5060800190565b600060808260ff16106144da5760808203610ed5565b5060ff167fffffffffffffffffffffffffffffffffffffffffffffffffffffffffffffff800190565b60008282604051602001610ebc92919091825260000b60f81b602082015260210190565b6000620100026000848460405160200161455192919091825260020b60e81b602082015260230190565b604051602081830303815290604052805190602001208152602001908152602001600020905092915050565b600061458882614f14565b61459184614f14565b039392505050565b600066010000000000006fffffffffffffffffffffffffffffffff80851667ffffffffffffffff851683010290603082901c90811115610743576fffffffffffffffffffffffffffffffff9350505050610ed5565b8082016fffffffffffffffffffffffffffffffff8084169082161015610ed557600080fd5b60006fffffffffffffffffffffffffffffffff8216800277ffffffffffffffffffffffffffffffff0000000000000000604085901b168161467d577f4e487b7100000000000000000000000000000000000000000000000000000000600052601260045260246000fd5b049392505050565b816fffffffffffffffffffffffffffffffff16816fffffffffffffffffffffffffffffffff161015614713576040517f08c379a000000000000000000000000000000000000000000000000000000000815260206004820152600260248201527f45430000000000000000000000000000000000000000000000000000000000006044820152606401611159565b600061471f8383615be9565b9050610b8e8482612761565b6112d8818430856fffffffffffffffffffffffffffffffff16614f30565b6112d8836147578385615a77565b6fffffffffffffffffffffffffffffffff16612d8f565b6040805173ffffffffffffffffffffffffffffffffffffffff8481166024830152604480830185905283518084039091018152606490920183526020820180517bffffffffffffffffffffffffffffffffffffffffffffffffffffffff167fa9059cbb00000000000000000000000000000000000000000000000000000000179052915160009283929087169161480591906158f6565b6000604051808303816000865af19150503d8060008114614842576040519150601f19603f3d011682016040523d82523d6000602084013e614847565b606091505b509150915081801561487157508051158061487157508080602001905181019061487191906155ec565b612004576040517f08c379a000000000000000000000000000000000000000000000000000000000815260206004820152600260248201527f54460000000000000000000000000000000000000000000000000000000000006044820152606401611159565b60006fffffffffffffffffffffffffffffffff86166148f857506000610743565b600061490687878515614a11565b6fffffffffffffffffffffffffffffffff1690506000614927888886614a11565b6fffffffffffffffffffffffffffffffff16905060008415158615151461496257866fffffffffffffffffffffffffffffffff168203614978565b866fffffffffffffffffffffffffffffffff1682015b90508061499a576fffffffffffffffffffffffffffffffff9350505050610743565b6000816fffffffffffffffffffffffffffffffff8b168002816149e6577f4e487b7100000000000000000000000000000000000000000000000000000000600052601260045260246000fd5b049050614a038482116149fb57818503612701565b848203612701565b9a9950505050505050505050565b6000611a5b82614a2a57614a2585856150a1565b614a46565b6fffffffffffffffffffffffffffffffff8086169085160260401c5b77ffffffffffffffffffffffffffffffffffffffffffffffff16612701565b60006fffffffffffffffffffffffffffffffff83161580614aa95750826fffffffffffffffffffffffffffffffff16826fffffffffffffffffffffffffffffffff16115b15614ab657506000610ed5565b6000614ac28385615a77565b90506000614ae26fffffffffffffffffffffffffffffffff831686615109565b90506107438167ffffffffffffffff166151f9565b6000660100000000000067ffffffffffffffff841681018315614b45576fffffffffffffffffffffffffffffffff86168102603081901c614b3a60018201612701565b9450505050506105f0565b75ffffffffffffffffffffffffffffffff000000000000603087901b16818181614b98577f4e487b7100000000000000000000000000000000000000000000000000000000600052601260045260246000fd5b0493505050506105f0565b6000660100000000000067ffffffffffffffff848116820181851683010290603082901c907fffffffffffffffffffffffffffffffffffffffffffffffffffff000000000000820190811061321b5767ffffffffffffffff945050505050610ed5565b6000660100000000000067ffffffffffffffff831681016dffffffffffffffff000000000000603086901b1683828281614c69577f4e487b7100000000000000000000000000000000000000000000000000000000600052601260045260246000fd5b04979650505050505050565b67ffffffffffffffff166fffffffffffffffffffffffffffffffff9182160260301c1690565b60006fffffffffffffffffffffffffffffffff8216614cbc57506000610ed5565b614cc7826001615a77565b6fffffffffffffffffffffffffffffffff16826fffffffffffffffffffffffffffffffff168467ffffffffffffffff16614d019190615b49565b6105f09190615afd565b6000826fffffffffffffffffffffffffffffffff16826fffffffffffffffffffffffffffffffff161115614d4b57614d4484838561523d565b90506105f0565b614d4484848461523d565b600080826fffffffffffffffffffffffffffffffff16846fffffffffffffffffffffffffffffffff1611614d8c57838303614d90565b8284035b905061074385826001614a11565b6000808215158415151415614df657614dc8866fffffffffffffffffffffffffffffffff16614256565b614de3866fffffffffffffffffffffffffffffffff16614256565b614dec90615cdc565b9092509050612aa9565b614e11866fffffffffffffffffffffffffffffffff16614256565b614e1a90615cdc565b614e35866fffffffffffffffffffffffffffffffff16614256565b9097909650945050505050565b60008082151584151514614e5e57614e5985615cdc565b614e60565b845b9050600081600f0b1215611a5b5760009150506105f0565b60008083614e9157614e8c878787866152bc565b614e9d565b614e9d87878786615320565b90506f0ffff5433e2b3d8211706e6102aa94726fffffffffffffffffffffffffffffffff821610614eeb57614ee360016f0ffff5433e2b3d8211706e6102aa9472615be9565b915050610743565b620100026fffffffffffffffffffffffffffffffff8216101561321b5762010002915050610743565b6000600a82901b6d03fffffffffffffffffffffff80016610ed5565b6040805173ffffffffffffffffffffffffffffffffffffffff85811660248301528481166044830152606480830185905283518084039091018152608490920183526020820180517bffffffffffffffffffffffffffffffffffffffffffffffffffffffff167f23b872dd000000000000000000000000000000000000000000000000000000001790529151600092839290881691614fcf91906158f6565b6000604051808303816000865af19150503d806000811461500c576040519150601f19603f3d011682016040523d82523d6000602084013e615011565b606091505b509150915081801561503b57508051158061503b57508080602001905181019061503b91906155ec565b6116c0576040517f08c379a000000000000000000000000000000000000000000000000000000000815260206004820152600260248201527f54460000000000000000000000000000000000000000000000000000000000006044820152606401611159565b60006fffffffffffffffffffffffffffffffff821677ffffffffffffffffffffffffffffffff0000000000000000604085901b168161467d577f4e487b7100000000000000000000000000000000000000000000000000000000600052601260045260246000fd5b600079ffffffffffffffffffffffffffffffffffffffffffffffffffff6fffffffffffffffffffffffffffffffff841610801561516a5750816fffffffffffffffffffffffffffffffff16836fffffffffffffffffffffffffffffffff1610155b61517357600080fd5b660100000000000075ffffffffffffffffffffffffffffffff000000000000603085901b166000826fffffffffffffffffffffffffffffffff861683816151e3577f4e487b7100000000000000000000000000000000000000000000000000000000600052601260045260246000fd5b0403905082811061074357829350505050610ed5565b600066010000000000008267ffffffffffffffff161061521857600080fd5b5067ffffffffffffffff8116800260331c60019190911c677fffffffffffffff160390565b60008061524a8385615be9565b9050600061525886856150a1565b77ffffffffffffffffffffffffffffffffffffffffffffffff1690506000856fffffffffffffffffffffffffffffffff16836fffffffffffffffffffffffffffffffff16836152a79190615b49565b6152b19190615afd565b9050613bc781612701565b6000806152c88661540e565b905060006152d98287878715615320565b90506fffffffffffffffffffffffffffffffff811661530c576f0ffff5433e2b3d8211706e6102aa947292505050611a5b565b6153158161540e565b611092906001615a77565b60006fffffffffffffffffffffffffffffffff841661535057506fffffffffffffffffffffffffffffffff611a5b565b600061535c84866150a1565b90506fffffffffffffffffffffffffffffffff77ffffffffffffffffffffffffffffffffffffffffffffffff821611156153a9576fffffffffffffffffffffffffffffffff915050611a5b565b8083156153c3576153ba8188615a77565b92505050611a5b565b866fffffffffffffffffffffffffffffffff16816fffffffffffffffffffffffffffffffff16106153f957600092505050611a5b565b615404816001615a77565b6153ba9088615be9565b6000816fffffffffffffffffffffffffffffffff1670010000000000000000000000000000000081615469577f4e487b7100000000000000000000000000000000000000000000000000000000600052601260045260246000fd5b0492915050565b60008083601f840112615481578182fd5b50813567ffffffffffffffff811115615498578182fd5b6020830191508360208285010111156154b057600080fd5b9250929050565b805165ffffffffffff81168114611b3357600080fd5b803560ff81168114611b3357600080fd5b6000806000606084860312156154f2578283fd5b83516154fd81615d77565b602085015190935061550e81615da7565b604085015190925061551f81615d77565b809150509250925092565b6000806000806000806000806000806101408b8d031215615549578586fd5b8a3561555481615d77565b995060208b013561556481615d77565b985060408b0135975060608b013561557b81615d99565b965060808b013561558b81615d99565b955060a08b013561559b81615da7565b945060c08b01356155ab81615dc5565b935060e08b01356155bb81615da7565b92506101008b01356155cc81615da7565b91506155db6101208c016154cd565b90509295989b9194979a5092959850565b6000602082840312156155fd578081fd5b81516105f081615d99565b600060208284031215615619578081fd5b815180600f0b81146105f0578182fd5b60006020828403121561563a578081fd5b81516105f081615dc5565b600080600060408486031215615659578283fd5b833561566481615dc5565b9250602084013567ffffffffffffffff81111561567f578283fd5b61568b86828701615470565b9497909650939450505050565b6000806000806000608086880312156156af578081fd5b85356156ba81615dc5565b9450602086013567ffffffffffffffff8111156156d5578182fd5b6156e188828901615470565b90955093505060408601356156f581615d77565b949793965091946060013592915050565b6000806000806060858703121561571b578384fd5b843561572681615dc5565b9350602085013567ffffffffffffffff811115615741578384fd5b61574d87828801615470565b909450925050604085013561576181615d99565b939692955090935050565b600080600080600080600080600060a08a8c031215615789578283fd5b893561579481615dc5565b985060208a013567ffffffffffffffff808211156157b0578485fd5b6157bc8d838e01615470565b909a50985060408c01359150808211156157d4578485fd5b6157e08d838e01615470565b909850965060608c01359150808211156157f8578485fd5b6158048d838e01615470565b909650945060808c013591508082111561581c578384fd5b506158298c828d01615470565b915080935050809150509295985092959850929598565b600060208284031215615851578081fd5b5035919050565b600080600080600060a0868803121561586f578283fd5b615878866154b7565b9450615886602087016154b7565b935060408601519250606086015163ffffffff811681146158a5578182fd5b60808701519092506158b681615d77565b809150509295509295909350565b6000806000606084860312156158d8578081fd5b6158e1846154cd565b95602085013595506040909401359392505050565b60008251615908818460208701615c4e565b9190910192915050565b60208152816020820152818360408301376000818301604090810191909152601f9092017fffffffffffffffffffffffffffffffffffffffffffffffffffffffffffffffe0160101919050565b602081526000825180602084015261597e816040850160208701615c4e565b601f017fffffffffffffffffffffffffffffffffffffffffffffffffffffffffffffffe0169190910160400192915050565b600081600f0b83600f0b828212826f7fffffffffffffffffffffffffffffff038213811516156159e2576159e2615d19565b827fffffffffffffffffffffffffffffffff80000000000000000000000000000000038212811615615a1657615a16615d19565b50019392505050565b60008160010b8360010b82821282617fff03821381151615615a4357615a43615d19565b827fffffffffffffffffffffffffffffffffffffffffffffffffffffffffffff8000038212811615615a1657615a16615d19565b60006fffffffffffffffffffffffffffffffff808316818516808303821115615aa257615aa2615d19565b01949350505050565b600067ffffffffffffffff808316818516808303821115615aa257615aa2615d19565b60006fffffffffffffffffffffffffffffffff80841680615af157615af1615d48565b92169190910492915050565b600082615b0c57615b0c615d48565b500490565b60006fffffffffffffffffffffffffffffffff80831681851681830481118215151615615b4057615b40615d19565b02949350505050565b6000817fffffffffffffffffffffffffffffffffffffffffffffffffffffffffffffffff0483118215151615615b8157615b81615d19565b500290565b60008160020b8360020b828112817fffffffffffffffffffffffffffffffffffffffffffffffffffffffffff80000001831281151615615bc857615bc8615d19565b81627fffff018313811615615bdf57615bdf615d19565b5090039392505050565b60006fffffffffffffffffffffffffffffffff8381169083168181101561459157614591615d19565b600061ffff8381169083168181101561459157614591615d19565b600067ffffffffffffffff8381169083168181101561459157614591615d19565b60005b83811015615c69578181015183820152602001615c51565b83811115610b8e5750506000910152565b600063ffffffff821680615c9057615c90615d19565b7fffffffffffffffffffffffffffffffffffffffffffffffffffffffffffffffff0192915050565b600063ffffffff80831681811415615cd257615cd2615d19565b6001019392505050565b600081600f0b7fffffffffffffffffffffffffffffffff80000000000000000000000000000000811415615d1257615d12615d19565b9003919050565b7f4e487b7100000000000000000000000000000000000000000000000000000000600052601160045260246000fd5b7f4e487b7100000000000000000000000000000000000000000000000000000000600052601260045260246000fd5b73ffffffffffffffffffffffffffffffffffffffff81168114610e3757600080fd5b8015158114610e3757600080fd5b6fffffffffffffffffffffffffffffffff81168114610e3757600080fd5b61ffff81168114610e3757600080fdfea2646970667358221220804fab31be33e8aacf29992b4b90d1c875a4580b54a1e6dd82a6b3da8101490364736f6c63430008040033",
  "linkReferences": {},
  "deployedLinkReferences": {}
}