{
  "_format": "hh-sol-artifact-1",
  "contractName": "ColdPath",
  "sourceName": "contracts/callpaths/ColdPath.sol",
  "abi": [
    {
      "anonymous": false,
      "inputs": [
        {
          "indexed": true,
          "internalType": "bytes32",
          "name": "pool",
          "type": "bytes32"
        },
        {
          "indexed": true,
          "internalType": "int24",
          "name": "tick",
          "type": "int24"
        },
        {
          "indexed": false,
          "internalType": "bool",
          "name": "isBid",
          "type": "bool"
        },
        {
          "indexed": false,
          "internalType": "uint32",
          "name": "pivotTime",
          "type": "uint32"
        },
        {
          "indexed": false,
          "internalType": "uint64",
          "name": "feeMileage",
          "type": "uint64"
        }
      ],
      "name": "CrocKnockoutCross",
      "type": "event"
    },
    {
      "inputs": [
        {
          "internalType": "bytes",
          "name": "cmd",
          "type": "bytes"
        }
      ],
      "name": "protocolCmd",
      "outputs": [],
      "stateMutability": "nonpayable",
      "type": "function"
    },
    {
      "inputs": [
        {
          "internalType": "bytes",
          "name": "cmd",
          "type": "bytes"
        }
      ],
      "name": "userCmd",
      "outputs": [],
      "stateMutability": "payable",
      "type": "function"
    },
    {
      "anonymous": false,
      "inputs": [
        {
          "indexed": false,
          "internalType": "bytes",
          "name": "input",
          "type": "bytes"
        }
      ],
      "name": "CrocColdCmd",
      "type": "event"
    },
    {
      "anonymous": false,
      "inputs": [
        {
          "indexed": false,
          "internalType": "bytes",
          "name": "input",
          "type": "bytes"
        }
      ],
      "name": "CrocColdProtocolCmd",
      "type": "event"
    }
  ],
  "bytecode": "0x608060405234801561001057600080fd5b50614929806100206000396000f3fe6080604052600436106100295760003560e01c8063b67019801461002e578063f96dc78814610050575b600080fd5b34801561003a57600080fd5b5061004e610049366004614000565b610063565b005b61004e61005e366004614000565b610166565b60008282601f81811061009f577f4e487b7100000000000000000000000000000000000000000000000000000000600052603260045260246000fd5b919091013560f81c915050606d8114156100c2576100bd838361029c565b505050565b60ff8116606e14156100d8576100bd8383610313565b60ff8116606f14156100ee576100bd83836104b3565b60ff811660721415610104576100bd83836104f0565b60ff81166074141561011a576100bd838361057f565b60ff811660731415610130576100bd8383610618565b60ff811660701415610146576100bd83836106b1565b60ff81166071141561015c576100bd838361074b565b6100bd8383610870565b60008282601f8181106101a2577f4e487b7100000000000000000000000000000000000000000000000000000000600052603260045260246000fd5b919091013560f81c91505060478114156101c0576100bd83836109b1565b60ff8116604814156101d6576100bd8383610a2e565b60ff8116604914156101ec576100bd8383610a50565b60ff8116604a1415610202576100bd8383610a72565b60ff8116604b1415610218576100bd8383610a94565b60ff8116604c141561022e576100bd8383610ab6565b60ff8116604d1415610244576100bd8383610ae4565b60ff8116604e141561025a576100bd8383610b0a565b60ff811660501415610270576100bd8383610b30565b60ff811660511415610286576100bd8383610b54565b60ff8116605214156100bd576100bd8383610b7a565b60006102aa82840184614558565b6040519092508291507ff04678cb0a9a94c6123dfbed8362627d9754e802db5ef393b2abf29bbffb10c890600090a26000908152620100086020526040902080547fffffffffffffffffffffffffffffffffffffffffffffffffffffffffffffff001690555050565b6000808080808061032687890189614581565b6040805161ffff87811682528616602082015260ff858116828401528481166060830152831660808201529051969d50949b50929950909750955093508892507f6574bab9cbe9cbdd301eff0716be38e5549a862fbb0a27f091ae8e30acf09752919081900360a00190a260008681526201000860205260409020805460ff83811668010000000000000000027fffffffffffffffffffffffffffffffffffffffffffffff00ffffffffffffffff86831667010000000000000002167fffffffffffffffffffffffffffffffffffffffffffffff0000ffffffffffffff9288166601000000000000027fffffffffffffffffffffffffffffffffffffffffffffffffff00ffffffffffff61ffff8b811664010000000002919091167fffffffffffffffffffffffffffffffffffffffffffffffffff000000ffffffff918d16610100027fffffffffffffffffffffffffffffffffffffffffffffffffffffffffff0000009097169690961760011716949094179390931791909116919091171790555b5050505050505050565b60008080808080806104c7888a018a614197565b9750975097509750975097509750506104e587878787878787610b98565b505050505050505050565b60006104fe82840184614649565b60405160ff821681529092507f703dadb0730cdc09b07d7039d74dddaa44bed181ac5df56ceaac826808f8c07c915060200160405180910390a16201000b80547fffffffffffffffffffffffffffffff00ffffffffffffffffffffffffffffffff1670010000000000000000000000000000000060ff841602179055505050565b600061058d82840184614649565b60405160ff821681529092507f78cebabf44aeb53b6a6d1d9fda97040ebcd7b5119147f4d20834f499d194eebb915060200160405180910390a16000805460ff90921677010000000000000000000000000000000000000000000000027fffffffffffffffff00ffffffffffffffffffffffffffffffffffffffffffffff9092169190911790555050565b60008080610628848601866140f0565b6201000b5460405170010000000000000000000000000000000090910460ff168152929650909450925082915073ffffffffffffffffffffffffffffffffffffffff80851691908616907fb89e42dc3bd965ba356db6bd3f5ddd604530083da13da6d8491ad2b2718a011f9060200160405180910390a46106aa838383610c72565b5050505050565b60006106bf8284018461452f565b6040516fffffffffffffffffffffffffffffffff821681529092507f7838d07bf20579cb7640bf7e1381607db1a5d8c4799053314890c72673a85c2e915060200160405180910390a16201000b80547fffffffffffffffffffffffffffffffff00000000000000000000000000000000166fffffffffffffffffffffffffffffffff8316179055505050565b6000808061075b8486018661430f565b604080516fffffffffffffffffffffffffffffffff8416815261ffff83166020820152939750919550935073ffffffffffffffffffffffffffffffffffffffff861692507f56f43876270ac6e001a4449e363d26518c494eac1547ed144ab29b5b99e38d08910160405180910390a273ffffffffffffffffffffffffffffffffffffffff831660009081526201000a6020526040902080547fffffffffffffffffffffffffff000000000000000000000000000000000000ff166101006fffffffffffffffffffffffffffffffff8516027fffffffffffffffffffffffffff0000ffffffffffffffffffffffffffffffffff16177101000000000000000000000000000000000061ffff8416021790556106aa565b60005474010000000000000000000000000000000000000000900460ff166108ff576040517f08c379a00000000000000000000000000000000000000000000000000000000081526004016108f69060208082526004908201527f5375646f00000000000000000000000000000000000000000000000000000000604082015260600190565b60405180910390fd5b60008282601f81811061093b577f4e487b7100000000000000000000000000000000000000000000000000000000600052603260045260246000fd5b919091013560f81c9150506028811415610959576100bd8383610ccf565b60ff81166014141561096f576100bd8383610d3d565b60ff811660151415610985576100bd8383610ddf565b60ff81166016141561099b576100bd8383610ece565b60ff8116601714156100bd576100bd8383610f67565b60008080806109c28587018761413a565b9450945094509450506000806109d9868686611001565b915091506109e9828787876110ca565b6000806109f784868561121d565b6000549193509150610a229073ffffffffffffffffffffffffffffffffffffffff1689848a8561140d565b50505050505050505050565b60008080610a3e8486018661444a565b935093509350506106aa83838361144d565b60008080610a60848601866142d5565b935093509350506106aa8383836114d3565b60008080610a8284860186614282565b935093509350506106aa83838361157f565b60008080610aa484860186614282565b935093509350506106aa838383611655565b6000808080610ac7858701876145ff565b945094509450945050610adc84848484611694565b505050505050565b6000808080610af585870187614407565b945094509450945050610adc84848484611709565b6000808080610b1b85870187614390565b945094509450945050610adc848484846118b7565b600080610b3f838501856144ba565b9250925050610b4e8282611a98565b50505050565b6000808080610b65858701876144ec565b945094509450945050610adc84848484611b1f565b600080610b8983850185614226565b9250925050610b4e8282611c43565b6000610ba5888888611d59565b80547fffffffffffffffffffffffffffffffffffffffffffffffffffff0000ff0000ff1661010061ffff978816027fffffffffffffffffffffffffffffffffffffffffffffffffffff0000ffffffff16176401000000009590961694909402949094177fffffffffffffffffffffffffffffffffffffffffffffffff0000ffffffffffff16660100000000000060ff938416027fffffffffffffffffffffffffffffffffffffffffffffffff00ffffffffffffff1617670100000000000000919092160217905550505050565b6000610c7f848484611d59565b6201000b5481547fffffffffffffffffffffffffffffffffffffffffffffffffffffffff00ffffff1670010000000000000000000000000000000090910460ff1663010000000217905550505050565b600080610cde838501856140ae565b60405173ffffffffffffffffffffffffffffffffffffffff808416825292955090935090831691507fbdcd7dcddd535083a6d22b55c021205ac0eff43705fb59b6645f6f479a6dd20b9060200160405180910390a2610b4e8282611e58565b6000610d4b82840184614085565b620100015460405191935073ffffffffffffffffffffffffffffffffffffffff1691507f794f2baba4b07f7dd9f1123c7e93530ca10b65cf26558362b14d0a437e3099c590600090a26201000180547fffffffffffffffffffffffff00000000000000000000000000000000000000001673ffffffffffffffffffffffffffffffffffffffff929092169190911790555050565b600080610dee83850185614357565b60405161ffff82168152919450925073ffffffffffffffffffffffffffffffffffffffff841691507f6d6175bccbf61a37eb104b2e776524b39d3c237dbc07dc62fc29c8b3e79f1b3c9060200160405180910390a28160018261ffff16620100008110610e84577f4e487b7100000000000000000000000000000000000000000000000000000000600052603260045260246000fd5b0180547fffffffffffffffffffffffff00000000000000000000000000000000000000001673ffffffffffffffffffffffffffffffffffffffff9290921691909117905550505050565b6000610edc82840184614484565b9150507f2e7754bb17467b54f4b17a302f1adb01f606496fa3421665b36ff44ff8dbc5fa81604051610f12911515815260200190565b60405180910390a1600080549115157501000000000000000000000000000000000000000000027fffffffffffffffffffff00ffffffffffffffffffffffffffffffffffffffffff9092169190911790555050565b6000610f7582840184614484565b9150507f7fabf78b254427483595fa50cfb7e832154c4936f7bdb0b266535f271722dc4681604051610fab911515815260200190565b60405180910390a160008054911515760100000000000000000000000000000000000000000000027fffffffffffffffffff00ffffffffffffffffffffffffffffffffffffffffffff9092169190911790555050565b60408051610140810182526000606082018181526080830182905260a0830182905260c0830182905260e08301829052610100830182905261012083018290528252602082018190529181018290529061105c858585611f35565b600061106784611fbe565b905061107962010009878787856120f6565b6201000b54700100000000000000000000000000000000900460ff1660408201526110a586868661220e565b6201000b549093506fffffffffffffffffffffffffffffffff16915050935093915050565b604084015173ffffffffffffffffffffffffffffffffffffffff1615610b4e576040848101516000805492517fc745fb8200000000000000000000000000000000000000000000000000000000815273ffffffffffffffffffffffffffffffffffffffff9384166004820152336024820152868416604482015285841660648201526084810185905290929091169063c745fb829060a401602060405180830381600087803b15801561117c57600080fd5b505af1158015611190573d6000803e3d6000fd5b505050506040513d601f19601f820116820180604052508101906111b49190613fe4565b9050806106aa576040517f08c379a000000000000000000000000000000000000000000000000000000000815260206004820152600160248201527f5a0000000000000000000000000000000000000000000000000000000000000060448201526064016108f6565b60008060006112f286602001516040805160a0810182526000808252602082018190529181018290526060810182905260808101919091525060009081526201000f6020908152604091829020825160a08101845281546fffffffffffffffffffffffffffffffff8082168352700100000000000000000000000000000000918290048116948301949094526001909201549283169381019390935267ffffffffffffffff90820481166060840152780100000000000000000000000000000000000000000000000090910416608082015290565b90506112fe818661227e565b6fffffffffffffffffffffffffffffffff8416156113265761132081856123be565b90935091505b60208087015160009081526201000f82526040908190208351928401516fffffffffffffffffffffffffffffffff9384167001000000000000000000000000000000009185168202178255918401516001909101805460608601516080870151939095167fffffffffffffffff0000000000000000000000000000000000000000000000009091161767ffffffffffffffff9485169093029290921777ffffffffffffffffffffffffffffffffffffffffffffffff167801000000000000000000000000000000000000000000000000939091169290920291909117905550935093915050565b60008061141a86856123e9565b9150915061142e8788888888886003612556565b6114398683876125ab565b6114448482856125ab565b50505050505050565b600080546114729073ffffffffffffffffffffffffffffffffffffffff16858461270a565b60009081526201001060205260409020805463ffffffff90941674010000000000000000000000000000000000000000027fffffffffffffffff00000000ffffffffffffffffffffffffffffffffffffffff90941693909317909255505050565b6000546115009073ffffffffffffffffffffffffffffffffffffffff1683836114fb346127b7565b6127d6565b600061150c848361280c565b60008181526201001060205260408120805492935085929091906115439084906fffffffffffffffffffffffffffffffff1661479f565b92506101000a8154816fffffffffffffffffffffffffffffffff02191690836fffffffffffffffffffffffffffffffff16021790555050505050565b600080546115a39073ffffffffffffffffffffffffffffffffffffffff168361280c565b60008181526201001060205260408120549192506fffffffffffffffffffffffffffffffff909116906115d6858361285c565b90506115e58682866000612927565b6000838152620100106020526040812080548392906116179084906fffffffffffffffffffffffffffffffff166147d3565b92506101000a8154816fffffffffffffffffffffffffffffffff02191690836fffffffffffffffffffffffffffffffff160217905550505050505050565b600080546116799073ffffffffffffffffffffffffffffffffffffffff168361280c565b90506000611687858461280c565b90506106aa82828661296a565b600080546116b89073ffffffffffffffffffffffffffffffffffffffff1686612a58565b60008054919250906116e09073ffffffffffffffffffffffffffffffffffffffff1686612a58565b905060006116ee838561280c565b905060006116fc838661280c565b90506104a982828861296a565b6000805461172e9073ffffffffffffffffffffffffffffffffffffffff168686612ab0565b60008181526201001060205260408120805492935085929091906117659084906fffffffffffffffffffffffffffffffff1661479f565b92506101000a8154816fffffffffffffffffffffffffffffffff02191690836fffffffffffffffffffffffffffffffff16021790555060008573ffffffffffffffffffffffffffffffffffffffff16632635b04460008054906101000a900473ffffffffffffffffffffffffffffffffffffffff168787876040518563ffffffff1660e01b81526004016117fc9493929190614752565b602060405180830381600087803b15801561181657600080fd5b505af115801561182a573d6000803e3d6000fd5b505050506040513d601f19601f8201168201806040525081019061184e9190613fe4565b905080610adc576040517f08c379a000000000000000000000000000000000000000000000000000000000815260206004820152600260248201527f564600000000000000000000000000000000000000000000000000000000000060448201526064016108f6565b600080546118dc9073ffffffffffffffffffffffffffffffffffffffff168686612ab0565b60008181526201001060205260408120549192506fffffffffffffffffffffffffffffffff9091169061190f858361285c565b60008481526201001060205260408120805492935083929091906119469084906fffffffffffffffffffffffffffffffff166147d3565b92506101000a8154816fffffffffffffffffffffffffffffffff02191690836fffffffffffffffffffffffffffffffff16021790555060008773ffffffffffffffffffffffffffffffffffffffff16632588be6a60008054906101000a900473ffffffffffffffffffffffffffffffffffffffff168985896040518563ffffffff1660e01b81526004016119dd9493929190614752565b602060405180830381600087803b1580156119f757600080fd5b505af1158015611a0b573d6000803e3d6000fd5b505050506040513d601f19601f82011682018060405250810190611a2f9190613fe4565b9050806104a9576040517f08c379a000000000000000000000000000000000000000000000000000000000815260206004820152600260248201527f564600000000000000000000000000000000000000000000000000000000000060448201526064016108f6565b6000805462010010908290611ac39073ffffffffffffffffffffffffffffffffffffffff1686612b0e565b81526020810191909152604001600020805463ffffffff909316700100000000000000000000000000000000027fffffffffffffffffffffffff00000000ffffffffffffffffffffffffffffffff909316929092179091555050565b600080546040517f70311dae00000000000000000000000000000000000000000000000000000000815273ffffffffffffffffffffffffffffffffffffffff858116926370311dae92611b7e92909116908990899088906004016146d8565b602060405180830381600087803b158015611b9857600080fd5b505af1158015611bac573d6000803e3d6000fd5b505050506040513d601f19601f82011682018060405250810190611bd09190613fe4565b905080611c39576040517f08c379a000000000000000000000000000000000000000000000000000000000815260206004820152600260248201527f4f4e00000000000000000000000000000000000000000000000000000000000060448201526064016108f6565b6106aa8585611a98565b600080546040517fc38a1b8c00000000000000000000000000000000000000000000000000000000815273ffffffffffffffffffffffffffffffffffffffff8581169263c38a1b8c92611c9e92909116908690600401614723565b602060405180830381600087803b158015611cb857600080fd5b505af1158015611ccc573d6000803e3d6000fd5b505050506040513d601f19601f82011682018060405250810190611cf09190613fe4565b9050806100bd576040517f08c379a000000000000000000000000000000000000000000000000000000000815260206004820152600260248201527f4f4700000000000000000000000000000000000000000000000000000000000060448201526064016108f6565b6000611d6a62010009858585612b3f565b6040805160e081018252825460ff80821680845261ffff610100840481166020860152630100000084048316958501959095526401000000008304909416606084015266010000000000008204811660808401526701000000000000008204811660a0840152680100000000000000009091041660c0909101529091506001145b611e51576040517f08c379a000000000000000000000000000000000000000000000000000000000815260206004820152600260248201527f504900000000000000000000000000000000000000000000000000000000000060448201526064016108f6565b9392505050565b73ffffffffffffffffffffffffffffffffffffffff811660009081526201000c6020526040902080547fffffffffffffffffffffffffffffffff0000000000000000000000000000000081169091556fffffffffffffffffffffffffffffffff1680156100bd576040805173ffffffffffffffffffffffffffffffffffffffff858116602080840191909152908516828401528251808303840181526060909201835281519181019190912060008181526201001090925291812080548492906115439084906fffffffffffffffffffffffffffffffff1661479f565b6000611f4662010009858585612b66565b9050611f5781515160ff1660011490565b15610b4e576040517f08c379a000000000000000000000000000000000000000000000000000000000815260206004820152600260248201527f504600000000000000000000000000000000000000000000000000000000000060448201526064016108f6565b6040805160e081018252600080825260208201819052918101829052606081018290526080810182905260a0810182905260c0810191909152506000818152620100086020908152604091829020825160e081018452905460ff808216808452610100830461ffff90811695850195909552630100000083048216958401959095526401000000008204909316606083015266010000000000008104831660808301526701000000000000008104831660a083015268010000000000000000900490911660c0820152906001146120f1576040517f08c379a000000000000000000000000000000000000000000000000000000000815260206004820152600260248201527f505400000000000000000000000000000000000000000000000000000000000060448201526064016108f6565b919050565b6000612103858585612c95565b90508186600083815260200190815260200160002060008201518160000160006101000a81548160ff021916908360ff16021790555060208201518160000160016101000a81548161ffff021916908361ffff16021790555060408201518160000160036101000a81548160ff021916908360ff16021790555060608201518160000160046101000a81548161ffff021916908361ffff16021790555060808201518160000160066101000a81548160ff021916908360ff16021790555060a08201518160000160076101000a81548160ff021916908360ff16021790555060c08201518160000160086101000a81548160ff021916908360ff160217905550905050505050505050565b60408051610140810182526000606082018181526080830182905260a0830182905260c0830182905260e08301829052610100830182905261012083018290528252602082018190529181019190915261226d62010009858585612b66565b9050611deb81515160ff1660011490565b600061228982612d22565b90507ffffffffffffffffffffffffffffffffffffffffffffffffffffffffffff5d892600282900b128015906122c65750620cb14a600282900b13155b61232c576040517f08c379a000000000000000000000000000000000000000000000000000000000815260206004820152600160248201527f520000000000000000000000000000000000000000000000000000000000000060448201526064016108f6565b82516fffffffffffffffffffffffffffffffff16156123a7576040517f08c379a000000000000000000000000000000000000000000000000000000000815260206004820152600160248201527f4e0000000000000000000000000000000000000000000000000000000000000060448201526064016108f6565b506fffffffffffffffffffffffffffffffff169052565b6000806000806123ce8686613075565b915091506123dc828261309f565b9350935050509250929050565b60008073ffffffffffffffffffffffffffffffffffffffff8416156124aa576040517f70a0823100000000000000000000000000000000000000000000000000000000815230600482015273ffffffffffffffffffffffffffffffffffffffff8516906370a082319060240160206040518083038186803b15801561246d57600080fd5b505afa158015612481573d6000803e3d6000fd5b505050506040513d601f19601f820116820180604052508101906124a5919061406d565b6124ad565b60005b6040517f70a0823100000000000000000000000000000000000000000000000000000000815230600482015290925073ffffffffffffffffffffffffffffffffffffffff8416906370a082319060240160206040518083038186803b15801561251557600080fd5b505afa158015612529573d6000803e3d6000fd5b505050506040513d601f19601f8201168201806040525081019061254d919061406d565b90509250929050565b73ffffffffffffffffffffffffffffffffffffffff8516612587576125828787866001851615156130e3565b612599565b61259987878688600186161515613119565b61144487878486600286161515613119565b73ffffffffffffffffffffffffffffffffffffffff8316156100bd576040517f70a0823100000000000000000000000000000000000000000000000000000000815230600482015260009073ffffffffffffffffffffffffffffffffffffffff8516906370a082319060240160206040518083038186803b15801561262f57600080fd5b505afa158015612643573d6000803e3d6000fd5b505050506040513d601f19601f82011682018060405250810190612667919061406d565b905082811015801561267d5750600082600f0b12155b80156126a457506fffffffffffffffffffffffffffffffff82166126a18483614804565b10155b610b4e576040517f08c379a000000000000000000000000000000000000000000000000000000000815260206004820152600260248201527f544400000000000000000000000000000000000000000000000000000000000060448201526064016108f6565b60008161275c576040805173ffffffffffffffffffffffffffffffffffffffff80871660208301528516918101919091526060015b604051602081830303815290604052805190602001209050611e51565b6040805173ffffffffffffffffffffffffffffffffffffffff858116602080840191909152828401869052835180840385018152606084019094528351930192909220868316608083015290911660a082015260c00161273f565b806fffffffffffffffffffffffffffffffff811681146120f157600080fd5b73ffffffffffffffffffffffffffffffffffffffff8216612801576127fc848483613149565b610b4e565b610b4e8484846131ef565b6040805173ffffffffffffffffffffffffffffffffffffffff80851660208301528316918101919091526000906060015b6040516020818303038152906040528051906020012090505b92915050565b60008083600f0b12156128835761287283614847565b61287c90836147d3565b9050612899565b82600f0b60001415612896575080612899565b50815b816fffffffffffffffffffffffffffffffff16816fffffffffffffffffffffffffffffffff161115612856576040517f08c379a000000000000000000000000000000000000000000000000000000000815260206004820152600260248201527f534300000000000000000000000000000000000000000000000000000000000060448201526064016108f6565b73ffffffffffffffffffffffffffffffffffffffff821661294d576127fc84848361320d565b610b4e8285856fffffffffffffffffffffffffffffffff16613232565b60008381526201001060205260408120546fffffffffffffffffffffffffffffffff1690612998838361285c565b60008681526201001060205260408120805492935083929091906129cf9084906fffffffffffffffffffffffffffffffff166147d3565b82546101009290920a6fffffffffffffffffffffffffffffffff8181021990931691831602179091556000868152620100106020526040812080548594509092612a1b9185911661479f565b92506101000a8154816fffffffffffffffffffffffffffffffff02191690836fffffffffffffffffffffffffffffffff1602179055505050505050565b600081612a66575081612856565b506040805173ffffffffffffffffffffffffffffffffffffffff84811660208084019190915282840185905283518084038501815260609093019093528151919092012016612856565b6000612b0684612b0185856040805173ffffffffffffffffffffffffffffffffffffffff93841660208083019190915281830193909352815180820383018152606090910190915280519101201690565b61280c565b949350505050565b6040805173ffffffffffffffffffffffffffffffffffffffff8416602082015290810182905260009060600161283d565b600080612b4d858585612c95565b6000908152602087905260409020915050949350505050565b60408051610140810182526000606082018181526080830182905260a0830182905260c0830182905260e083018290526101008301829052610120830182905282526020820181905291810182905290612bc1858585612c95565b600081815260208881526040808320815160e081018352905460ff808216835261ffff6101008304811695840195909552630100000082048116938301939093526401000000008104909316606082015266010000000000008304821660808201526701000000000000008304821660a0820152680100000000000000009092041660c0820181905292935091612c5990869061339b565b60408051606081018252938452602084019490945273ffffffffffffffffffffffffffffffffffffffff16928201929092529695505050505050565b60008273ffffffffffffffffffffffffffffffffffffffff168473ffffffffffffffffffffffffffffffffffffffff1610612ccf57600080fd5b6040805173ffffffffffffffffffffffffffffffffffffffff8087166020830152851691810191909152606081018390526080016040516020818303038152906040528051906020012090509392505050565b6000620100026fffffffffffffffffffffffffffffffff831610801590612d6a57506f0ffff5433e2b3d8211706e6102aa94726fffffffffffffffffffffffffffffffff8316105b612d7357600080fd5b77ffffffffffffffffffffffffffffffff0000000000000000604083901b166fffffffffffffffffffffffffffffffff811160071b81811c67ffffffffffffffff811160061b90811c63ffffffff811160051b90811c61ffff811160041b90811c60ff8111600390811b91821c600f811160021b90811c918211600190811b92831c97908811961790941790921717909117171760808110612e1d57607f810383901c9150612e27565b80607f0383901b91505b908002607f81811c60ff83811c9190911c800280831c81831c1c800280841c81841c1c800280851c81851c1c800280861c81861c1c800280871c81871c1c800280881c81881c1c800280891c81891c1c8002808a1c818a1c1c8002808b1c818b1c1c8002808c1c818c1c1c8002808d1c818d1c1c8002808e1c9c81901c9c909c1c80029c8d901c9e9d7fffffffffffffffffffffffffffffffffffffffffffffffffffffffffffffff808f0160401b60c09190911c678000000000000000161760c19b909b1c674000000000000000169a909a1760c29990991c672000000000000000169890981760c39790971c671000000000000000169690961760c49590951c670800000000000000169490941760c59390931c670400000000000000169290921760c69190911c670200000000000000161760c79190911c670100000000000000161760c89190911c6680000000000000161760c99190911c6640000000000000161760ca9190911c6620000000000000161760cb9190911c6610000000000000161760cc9190911c6608000000000000161760cd9190911c66040000000000001617693627a301d71055774c8581027ffffffffffffffffffffffffffffffffffd709b7e5480fba5a50fed5e62ffc5568101608090811d906fdb2df09e81959a81455e260799a0632f8301901d600281810b9083900b1461306657886fffffffffffffffffffffffffffffffff16613042826133b8565b6fffffffffffffffffffffffffffffffff1611156130605781613068565b80613068565b815b9998505050505050505050565b600080600080613085868661374e565b9150915061309386866137c1565b6123dc828260016137e9565b6000806130bd846fffffffffffffffffffffffffffffffff16613860565b6130d8846fffffffffffffffffffffffffffffffff16613860565b915091509250929050565b60006130ee346127b7565b905082600f0b60001461310f5761310a85858560008587613894565b6106aa565b6106aa84826138d5565b73ffffffffffffffffffffffffffffffffffffffff821661313957600080fd5b6000610adc868686868587613894565b816fffffffffffffffffffffffffffffffff16816fffffffffffffffffffffffffffffffff1610156131d7576040517f08c379a000000000000000000000000000000000000000000000000000000000815260206004820152600260248201527f454300000000000000000000000000000000000000000000000000000000000060448201526064016108f6565b60006131e383836147d3565b9050610b4e84826138d5565b6100bd818430856fffffffffffffffffffffffffffffffff16613909565b6100bd8361321b838561479f565b6fffffffffffffffffffffffffffffffff16613a7a565b6040805173ffffffffffffffffffffffffffffffffffffffff8481166024830152604480830185905283518084039091018152606490920183526020820180517bffffffffffffffffffffffffffffffffffffffffffffffffffffffff167fa9059cbb0000000000000000000000000000000000000000000000000000000017905291516000928392908716916132c991906146bc565b6000604051808303816000865af19150503d8060008114613306576040519150601f19603f3d011682016040523d82523d6000602084013e61330b565b606091505b50915091508180156133355750805115806133355750808060200190518101906133359190613fe4565b6106aa576040517f08c379a000000000000000000000000000000000000000000000000000000000815260206004820152600260248201527f544600000000000000000000000000000000000000000000000000000000000060448201526064016108f6565b6000600180831614806133af576000612b06565b50505060601c90565b60007ffffffffffffffffffffffffffffffffffffffffffffffffffffffffffff5d892600283900b128015906133f55750620cb14a600283900b13155b6133fe57600080fd5b6000808360020b12613413578260020b61341b565b8260020b6000035b905060006001821661343e57700100000000000000000000000000000000613450565b6ffffcb933bd6fad37aa2d162d1a5940015b70ffffffffffffffffffffffffffffffffff1690506002821615613484576ffff97272373d413259a46990580e213a0260801c5b60048216156134a3576ffff2e50f5f656932ef12357cf3c7fdcc0260801c5b60088216156134c2576fffe5caca7e10e4e61c3624eaa0941cd00260801c5b60108216156134e1576fffcb9843d60f6159c9db58835c9266440260801c5b6020821615613500576fff973b41fa98c081472e6896dfb254c00260801c5b604082161561351f576fff2ea16466c96a3843ec78b326b528610260801c5b608082161561353e576ffe5dee046a99a2a811c461f1969c30530260801c5b61010082161561355e576ffcbe86c7900a88aedcffc83b479aa3a40260801c5b61020082161561357e576ff987a7253ac413176f2b074cf7815e540260801c5b61040082161561359e576ff3392b0822b70005940c7a398e4b70f30260801c5b6108008216156135be576fe7159475a2c29b7443b29c7fa6e889d90260801c5b6110008216156135de576fd097f3bdfd2022b8845ad8f792aa58250260801c5b6120008216156135fe576fa9f746462d870fdf8a65dc1f90e061e50260801c5b61400082161561361e576f70d869a156d2a1b890bb3df62baf32f70260801c5b61800082161561363e576f31be135f97d08fd981231505542fcfa60260801c5b6201000082161561365f576f09aa508b5b7a84e1c677de54f3e99bc90260801c5b6202000082161561367f576e5d6af8dedb81196699c329225ee6040260801c5b6204000082161561369e576d2216e584f5fa1ea926041bedfe980260801c5b620800008216156136bb576b048a170391f7dc42444e8fa20260801c5b60008460020b131561372157807fffffffffffffffffffffffffffffffffffffffffffffffffffffffffffffffff8161371d577f4e487b7100000000000000000000000000000000000000000000000000000000600052601260045260246000fd5b0490505b6801000000000000000081061561373957600161373c565b60005b60ff16604082901c0192505050919050565b6000806000613761848660600151613b44565b85519091506137a4906fffffffffffffffffffffffffffffffff80841691160260401c5b77ffffffffffffffffffffffffffffffffffffffffffffffff16613ba2565b92506137b7613785828760000151613bdb565b9150509250929050565b6137e5826137e0836fffffffffffffffffffffffffffffffff16613860565b613c4b565b5050565b6000806000856fffffffffffffffffffffffffffffffff16118061380a5750825b613815576000613820565b61382060048661479f565b6000856fffffffffffffffffffffffffffffffff16118061383e5750835b613849576000613854565b61385460048661479f565b91509150935093915050565b60006f80000000000000000000000000000000826fffffffffffffffffffffffffffffffff161061389057600080fd5b5090565b6000600f85900b13156138b3576138ae8685858585613c8a565b610adc565b6000600f85900b1215610adc57610adc856138cd86614847565b858585613cbd565b6fffffffffffffffffffffffffffffffff8116156137e5576137e582826fffffffffffffffffffffffffffffffff16613a7a565b6040805173ffffffffffffffffffffffffffffffffffffffff85811660248301528481166044830152606480830185905283518084039091018152608490920183526020820180517bffffffffffffffffffffffffffffffffffffffffffffffffffffffff167f23b872dd0000000000000000000000000000000000000000000000000000000017905291516000928392908816916139a891906146bc565b6000604051808303816000865af19150503d80600081146139e5576040519150601f19603f3d011682016040523d82523d6000602084013e6139ea565b606091505b5091509150818015613a14575080511580613a14575080806020019051810190613a149190613fe4565b610adc576040517f08c379a000000000000000000000000000000000000000000000000000000000815260206004820152600260248201527f544600000000000000000000000000000000000000000000000000000000000060448201526064016108f6565b60008273ffffffffffffffffffffffffffffffffffffffff168260405160006040518083038185875af1925050503d8060008114613ad4576040519150601f19603f3d011682016040523d82523d6000602084013e613ad9565b606091505b50509050806100bd576040517f08c379a000000000000000000000000000000000000000000000000000000000815260206004820152600260248201527f544600000000000000000000000000000000000000000000000000000000000060448201526064016108f6565b600066010000000000006fffffffffffffffffffffffffffffffff80851667ffffffffffffffff851683010290603082901c90811115613b99576fffffffffffffffffffffffffffffffff9350505050612856565b95945050505050565b806fffffffffffffffffffffffffffffffff811677ffffffffffffffffffffffffffffffffffffffffffffffff8216146120f157600080fd5b60006fffffffffffffffffffffffffffffffff821677ffffffffffffffffffffffffffffffff0000000000000000604085901b1681613c43577f4e487b7100000000000000000000000000000000000000000000000000000000600052601260045260246000fd5b049392505050565b6020820151613c6c906fffffffffffffffffffffffffffffffff1682613ce5565b6fffffffffffffffffffffffffffffffff1660209092019190915250565b8015613cb1576000613c9d868686613d65565b9050613cab86828686613e44565b506106aa565b6106aa858585856127d6565b8015613cd957613cce858585611500565b61310a858484613e8d565b6106aa85858585612927565b60008082600f0b1215613d2f57826fffffffffffffffffffffffffffffffff168260000384039150816fffffffffffffffffffffffffffffffff1610613d2a57600080fd5b612856565b826fffffffffffffffffffffffffffffffff168284019150816fffffffffffffffffffffffffffffffff16101561285657600080fd5b600080613d72858461280c565b600081815262010010602052604090208054919250906fffffffffffffffffffffffffffffffff908116908616811115613e0757815486908390600090613dcc9084906fffffffffffffffffffffffffffffffff166147d3565b92506101000a8154816fffffffffffffffffffffffffffffffff02191690836fffffffffffffffffffffffffffffffff160217905550613e3a565b81547fffffffffffffffffffffffffffffffff00000000000000000000000000000000168255613e3781876147d3565b93505b5050509392505050565b6fffffffffffffffffffffffffffffffff831615613e68576127fc848484846127d6565b73ffffffffffffffffffffffffffffffffffffffff8216610b4e57610b4e84826138d5565b73ffffffffffffffffffffffffffffffffffffffff82166100bd576100bd83826138d5565b803573ffffffffffffffffffffffffffffffffffffffff811681146120f157600080fd5b600082601f830112613ee6578081fd5b813567ffffffffffffffff80821115613f0157613f016148b3565b604051601f83017fffffffffffffffffffffffffffffffffffffffffffffffffffffffffffffffe0908116603f01168101908282118183101715613f4757613f476148b3565b81604052838152866020858801011115613f5f578485fd5b8360208701602083013792830160200193909352509392505050565b8035600f81900b81146120f157600080fd5b80356fffffffffffffffffffffffffffffffff811681146120f157600080fd5b803561ffff811681146120f157600080fd5b803563ffffffff811681146120f157600080fd5b803560ff811681146120f157600080fd5b600060208284031215613ff5578081fd5b8151611e51816148e2565b60008060208385031215614012578081fd5b823567ffffffffffffffff80821115614029578283fd5b818501915085601f83011261403c578283fd5b81358181111561404a578384fd5b86602082850101111561405b578384fd5b60209290920196919550909350505050565b60006020828403121561407e578081fd5b5051919050565b60008060408385031215614097578182fd5b6140a083613fd3565b915061254d60208401613eb2565b6000806000606084860312156140c2578081fd5b6140cb84613fd3565b92506140d960208501613eb2565b91506140e760408501613eb2565b90509250925092565b60008060008060808587031215614105578081fd5b61410e85613fd3565b935061411c60208601613eb2565b925061412a60408601613eb2565b9396929550929360600135925050565b600080600080600060a08688031215614151578081fd5b61415a86613fd3565b945061416860208701613eb2565b935061417660408701613eb2565b92506060860135915061418b60808701613f8d565b90509295509295909350565b600080600080600080600080610100898b0312156141b3578283fd5b6141bc89613fd3565b97506141ca60208a01613eb2565b96506141d860408a01613eb2565b9550606089013594506141ed60808a01613fad565b93506141fb60a08a01613fad565b925061420960c08a01613fd3565b915061421760e08a01613fd3565b90509295985092959890939650565b60008060006060848603121561423a578081fd5b61424384613fd3565b925061425160208501613eb2565b9150604084013567ffffffffffffffff81111561426c578182fd5b61427886828701613ed6565b9150509250925092565b60008060008060808587031215614297578182fd5b6142a085613fd3565b93506142ae60208601613eb2565b92506142bc60408601613f7b565b91506142ca60608601613eb2565b905092959194509250565b600080600080608085870312156142ea578182fd5b6142f385613fd3565b935061430160208601613eb2565b92506142bc60408601613f8d565b60008060008060808587031215614324578182fd5b61432d85613fd3565b935061433b60208601613eb2565b925061434960408601613f8d565b91506142ca60608601613fad565b60008060006060848603121561436b578081fd5b61437484613fd3565b925061438260208501613eb2565b91506140e760408501613fad565b600080600080600060a086880312156143a7578283fd5b6143b086613fd3565b94506143be60208701613eb2565b9350604086013592506143d360608701613f7b565b9150608086013567ffffffffffffffff8111156143ee578182fd5b6143fa88828901613ed6565b9150509295509295909350565b600080600080600060a0868803121561441e578283fd5b61442786613fd3565b945061443560208701613eb2565b9350604086013592506143d360608701613f8d565b6000806000806080858703121561445f578182fd5b61446885613fd3565b935061447660208601613eb2565b925061412a60408601613fbf565b60008060408385031215614496578182fd5b61449f83613fd3565b915060208301356144af816148e2565b809150509250929050565b6000806000606084860312156144ce578081fd5b6144d784613fd3565b9250602084013591506140e760408501613fbf565b600080600080600060a08688031215614503578283fd5b61450c86613fd3565b94506020860135935061452160408701613fbf565b92506143d360608701613eb2565b60008060408385031215614541578182fd5b61454a83613fd3565b915061254d60208401613f8d565b6000806040838503121561456a578182fd5b61457383613fd3565b946020939093013593505050565b600080600080600080600060e0888a03121561459b578081fd5b6145a488613fd3565b9650602088013595506145b960408901613fad565b94506145c760608901613fad565b93506145d560808901613fd3565b92506145e360a08901613fd3565b91506145f160c08901613fd3565b905092959891949750929550565b600080600080600060a08688031215614616578283fd5b61461f86613fd3565b9450602086013593506040860135925061463b60608701613f7b565b915061418b60808701613eb2565b6000806040838503121561465b578182fd5b61466483613fd3565b915061254d60208401613fd3565b6000815180845261468a81602086016020860161481b565b601f017fffffffffffffffffffffffffffffffffffffffffffffffffffffffffffffffe0169290920160200192915050565b600082516146ce81846020870161481b565b9190910192915050565b73ffffffffffffffffffffffffffffffffffffffff8516815283602082015263ffffffff831660408201526080606082015260006147196080830184614672565b9695505050505050565b73ffffffffffffffffffffffffffffffffffffffff83168152604060208201526000612b066040830184614672565b73ffffffffffffffffffffffffffffffffffffffff851681528360208201526fffffffffffffffffffffffffffffffff831660408201526080606082015260006147196080830184614672565b60006fffffffffffffffffffffffffffffffff8083168185168083038211156147ca576147ca614884565b01949350505050565b60006fffffffffffffffffffffffffffffffff838116908316818110156147fc576147fc614884565b039392505050565b60008282101561481657614816614884565b500390565b60005b8381101561483657818101518382015260200161481e565b83811115610b4e5750506000910152565b600081600f0b7fffffffffffffffffffffffffffffffff8000000000000000000000000000000081141561487d5761487d614884565b9003919050565b7f4e487b7100000000000000000000000000000000000000000000000000000000600052601160045260246000fd5b7f4e487b7100000000000000000000000000000000000000000000000000000000600052604160045260246000fd5b80151581146148f057600080fd5b5056fea264697066735822122000d2716b5b87b5f3e7dbd83f72a415ff992dfdd23c5a2c1f875d2e8627d85bb964736f6c63430008040033",
  "linkReferences": {},
  "deployedLinkReferences": {}
}