{
  "_format": "hh-sol-artifact-1",
  "contractName": "HotProxy",
  "sourceName": "contracts/callpaths/HotPath.sol",
  "abi": [
    {
      "anonymous": false,
      "inputs": [
        {
          "indexed": true,
          "internalType": "bytes32",
          "name": "pool",
          "type": "bytes32"
        },
        {
          "indexed": true,
          "internalType": "int24",
          "name": "tick",
          "type": "int24"
        },
        {
          "indexed": false,
          "internalType": "bool",
          "name": "isBid",
          "type": "bool"
        },
        {
          "indexed": false,
          "internalType": "uint32",
          "name": "pivotTime",
          "type": "uint32"
        },
        {
          "indexed": false,
          "internalType": "uint64",
          "name": "feeMileage",
          "type": "uint64"
        }
      ],
      "name": "CrocKnockoutCross",
      "type": "event"
    },
    {
      "inputs": [
        {
          "internalType": "bytes",
          "name": "input",
          "type": "bytes"
        }
      ],
      "name": "userCmd",
      "outputs": [],
      "stateMutability": "payable",
      "type": "function"
    },
    {
      "anonymous": false,
      "inputs": [
        {
          "indexed": false,
          "internalType": "bytes",
          "name": "input",
          "type": "bytes"
        },
        {
          "indexed": false,
          "internalType": "int128",
          "name": "baseFlow",
          "type": "int128"
        },
        {
          "indexed": false,
          "internalType": "int128",
          "name": "quoteFlow",
          "type": "int128"
        }
      ],
      "name": "CrocHotCmd",
      "type": "event"
    }
  ],
  "bytecode": "0x608060405234801561001057600080fd5b5061495a806100206000396000f3fe60806040526004361061001e5760003560e01c8063f96dc78814610023575b600080fd5b610036610031366004614558565b610038565b005b6100428282610047565b505050565b60008080808080808080808061005f8c8e018e61447b565b99509950995099509950995099509950995099506100858a8a8a8a8a8a8a8a8a8a610098565b9a50505050505050505050505b92915050565b6000806100aa8c8c8c898d8d8d6100fe565b905060006100bb828b8b8b8a61019b565b905060006100cb82878d8d610215565b90506100e28e8e84600001518560200151896102e4565b6100ed828f8f610316565b9d9c50505050505050505050505050565b60408051610140810182526000606082018181526080830182905260a0830182905260c0830182905260e08301829052610100830182905261012083018290528252602082018190529181018290529061015989898961045d565b905080600001516020015161ffff168661ffff16111561018157805161ffff87166020909101525b61018f818a8a88888861053a565b98975050505050505050565b6040805160808082018352600080835260208084018290528385018290526060808501839052855160a081018752958601929092528815158552871515908501526fffffffffffffffffffffffffffffffff868116918501919091528416908301529061020881886106ed565b9150505b95945050505050565b600081610223578451610229565b84602001515b90508215158215151460008161023f5785610248565b61024886614897565b905080600f0b83600f0b13158061026f57506fffffffffffffffffffffffffffffffff8616155b6102da576040517f08c379a000000000000000000000000000000000000000000000000000000000815260206004820152600260248201527f534c00000000000000000000000000000000000000000000000000000000000060448201526064015b60405180910390fd5b5050949350505050565b60005473ffffffffffffffffffffffffffffffffffffffff168061030d818089888a8989610832565b50505050505050565b60408301516fffffffffffffffffffffffffffffffff16156103b85760408084015173ffffffffffffffffffffffffffffffffffffffff841660009081526201000c6020529182208054919290916103819084906fffffffffffffffffffffffffffffffff16614702565b92506101000a8154816fffffffffffffffffffffffffffffffff02191690836fffffffffffffffffffffffffffffffff1602179055505b60608301516fffffffffffffffffffffffffffffffff161561004257606083015173ffffffffffffffffffffffffffffffffffffffff821660009081526201000c6020526040812080549091906104229084906fffffffffffffffffffffffffffffffff16614702565b92506101000a8154816fffffffffffffffffffffffffffffffff02191690836fffffffffffffffffffffffffffffffff160217905550505050565b60408051610140810182526000606082018181526080830182905260a0830182905260c0830182905260e0830182905261010083018290526101208301829052825260208201819052918101919091526104bc62010009858585610887565b90506104cd81515160ff1660011490565b610533576040517f08c379a000000000000000000000000000000000000000000000000000000000815260206004820152600260248201527f504900000000000000000000000000000000000000000000000000000000000060448201526064016102d1565b9392505050565b604086015173ffffffffffffffffffffffffffffffffffffffff16156106e5576040868101516000805489516020015193517f4e56bd3800000000000000000000000000000000000000000000000000000000815273ffffffffffffffffffffffffffffffffffffffff918216600482015233602482015289821660448201528882166064820152871515608482015286151560a48201526fffffffffffffffffffffffffffffffff861660c482015261ffff90941660e48501529092911690634e56bd389061010401602060405180830381600087803b15801561061e57600080fd5b505af1158015610632573d6000803e3d6000fd5b505050506040513d601f19601f8201168201806040525081019061065691906145e6565b905060008161ffff16116106c6576040517f08c379a000000000000000000000000000000000000000000000000000000000815260206004820152600160248201527f5a0000000000000000000000000000000000000000000000000000000000000060448201526064016102d1565b8087600001516020018181516106dc919061485b565b61ffff16905250505b505050505050565b604080516080810182526000808252602082018190529181018290526060810191909152600061072083602001516109b8565b905061074d828261074684600001516fffffffffffffffffffffffffffffffff16610a8d565b8787610de0565b60208084015160009081526201000f82526040908190208351928401516fffffffffffffffffffffffffffffffff9384167001000000000000000000000000000000009185168202178255918401516001909101805460608601516080870151939095167fffffffffffffffff0000000000000000000000000000000000000000000000009091161767ffffffffffffffff9485169093029290921777ffffffffffffffffffffffffffffffffffffffffffffffff16780100000000000000000000000000000000000000000000000093909116929092029190911790555092915050565b73ffffffffffffffffffffffffffffffffffffffff85166108635761085e878786600185161515610f23565b610875565b61087587878688600186161515610f60565b61030d87878486600286161515610f60565b60408051610140810182526000606082018181526080830182905260a0830182905260c0830182905260e0830182905261010083018290526101208301829052825260208201819052918101829052906108e2858585610f90565b600081815260208881526040808320815160e081018352905460ff808216835261ffff6101008304811695840195909552630100000082048116938301939093526401000000008104909316606082015266010000000000008304821660808201526701000000000000008304821660a0820152680100000000000000009092041660c082018190529293509161097a90869061101d565b60408051606081018252938452602084019490945273ffffffffffffffffffffffffffffffffffffffff16928201929092529150505b949350505050565b6040805160a0810182526000808252602082018190529181018290526060810182905260808101919091525060008181526201000f6020908152604091829020825160a08101845281546fffffffffffffffffffffffffffffffff808216808452700100000000000000000000000000000000928390048216958401959095526001909301549283169482019490945292810467ffffffffffffffff90811660608501527801000000000000000000000000000000000000000000000000909104166080830152610a8857600080fd5b919050565b6000620100026fffffffffffffffffffffffffffffffff831610801590610ad557506f0ffff5433e2b3d8211706e6102aa94726fffffffffffffffffffffffffffffffff8316105b610ade57600080fd5b77ffffffffffffffffffffffffffffffff0000000000000000604083901b166fffffffffffffffffffffffffffffffff811160071b81811c67ffffffffffffffff811160061b90811c63ffffffff811160051b90811c61ffff811160041b90811c60ff8111600390811b91821c600f811160021b90811c918211600190811b92831c97908811961790941790921717909117171760808110610b8857607f810383901c9150610b92565b80607f0383901b91505b908002607f81811c60ff83811c9190911c800280831c81831c1c800280841c81841c1c800280851c81851c1c800280861c81861c1c800280871c81871c1c800280881c81881c1c800280891c81891c1c8002808a1c818a1c1c8002808b1c818b1c1c8002808c1c818c1c1c8002808d1c818d1c1c8002808e1c9c81901c9c909c1c80029c8d901c9e9d7fffffffffffffffffffffffffffffffffffffffffffffffffffffffffffffff808f0160401b60c09190911c678000000000000000161760c19b909b1c674000000000000000169a909a1760c29990991c672000000000000000169890981760c39790971c671000000000000000169690961760c49590951c670800000000000000169490941760c59390931c670400000000000000169290921760c69190911c670200000000000000161760c79190911c670100000000000000161760c89190911c6680000000000000161760c99190911c6640000000000000161760ca9190911c6620000000000000161760cb9190911c6610000000000000161760cc9190911c6608000000000000161760cd9190911c66040000000000001617693627a301d71055774c8581027ffffffffffffffffffffffffffffffffffd709b7e5480fba5a50fed5e62ffc5568101608090811d906fdb2df09e81959a81455e260799a0632f8301901d600281810b9083900b14610dd157886fffffffffffffffffffffffffffffffff16610dad8261103a565b6fffffffffffffffffffffffffffffffff161115610dcb5781610dd3565b80610dd3565b815b9998505050505050505050565b60808201518451835115156fffffffffffffffffffffffffffffffff928316919092161014610e6b576040517f08c379a000000000000000000000000000000000000000000000000000000000815260206004820152600260248201527f534400000000000000000000000000000000000000000000000000000000000060448201526064016102d1565b60015b80156106e557600080610e8a84602001518660000151886113d0565b85519193509150610ea19088908a90889086611422565b610eab87866114c2565b92508215610f1c578015610f02576000610ece856020015184886000015161155b565b92839150600282810b91900b1480610eff578551610ef2908a908c908a9088611422565b610efc89886114c2565b94505b50505b8215610f1c57610f198883898888602001516115bd565b95505b5050610e6e565b6000610f2e34611656565b905082600f0b600014610f4f57610f4a85858560008587611675565b610f59565b610f5984826116b6565b5050505050565b73ffffffffffffffffffffffffffffffffffffffff8216610f8057600080fd5b60006106e5868686868587611675565b60008273ffffffffffffffffffffffffffffffffffffffff168473ffffffffffffffffffffffffffffffffffffffff1610610fca57600080fd5b6040805173ffffffffffffffffffffffffffffffffffffffff8087166020830152851691810191909152606081018390526080016040516020818303038152906040528051906020012090509392505050565b6000600180831614806110315760006109b0565b50505060601c90565b60007ffffffffffffffffffffffffffffffffffffffffffffffffffffffffffff5d892600283900b128015906110775750620cb14a600283900b13155b61108057600080fd5b6000808360020b12611095578260020b61109d565b8260020b6000035b90506000600182166110c0577001000000000000000000000000000000006110d2565b6ffffcb933bd6fad37aa2d162d1a5940015b70ffffffffffffffffffffffffffffffffff1690506002821615611106576ffff97272373d413259a46990580e213a0260801c5b6004821615611125576ffff2e50f5f656932ef12357cf3c7fdcc0260801c5b6008821615611144576fffe5caca7e10e4e61c3624eaa0941cd00260801c5b6010821615611163576fffcb9843d60f6159c9db58835c9266440260801c5b6020821615611182576fff973b41fa98c081472e6896dfb254c00260801c5b60408216156111a1576fff2ea16466c96a3843ec78b326b528610260801c5b60808216156111c0576ffe5dee046a99a2a811c461f1969c30530260801c5b6101008216156111e0576ffcbe86c7900a88aedcffc83b479aa3a40260801c5b610200821615611200576ff987a7253ac413176f2b074cf7815e540260801c5b610400821615611220576ff3392b0822b70005940c7a398e4b70f30260801c5b610800821615611240576fe7159475a2c29b7443b29c7fa6e889d90260801c5b611000821615611260576fd097f3bdfd2022b8845ad8f792aa58250260801c5b612000821615611280576fa9f746462d870fdf8a65dc1f90e061e50260801c5b6140008216156112a0576f70d869a156d2a1b890bb3df62baf32f70260801c5b6180008216156112c0576f31be135f97d08fd981231505542fcfa60260801c5b620100008216156112e1576f09aa508b5b7a84e1c677de54f3e99bc90260801c5b62020000821615611301576e5d6af8dedb81196699c329225ee6040260801c5b62040000821615611320576d2216e584f5fa1ea926041bedfe980260801c5b6208000082161561133d576b048a170391f7dc42444e8fa20260801c5b60008460020b13156113a357807fffffffffffffffffffffffffffffffffffffffffffffffffffffffffffffffff8161139f577f4e487b7100000000000000000000000000000000000000000000000000000000600052601260045260246000fd5b0490505b680100000000000000008106156113bb5760016113be565b60005b60ff16604082901c0192505050919050565b60008060006113df86856116ee565b905060006113f1600286900b87611714565b905060006114058660020b60020b60081d90565b905061141387838386611750565b90999098509650505050505050565b600061143782856080015186600001516117a2565b90506000806000611453898860600151888a602001518861181d565b60208a0151929550909350915061146e908990858585611869565b61148789886020015189600001518a60600151886118d4565b6fffffffffffffffffffffffffffffffff1660608a0152602089015191945092506114b790899085856000611869565b505050505050505050565b60008082600001516115025782608001516fffffffffffffffffffffffffffffffff1684600001516fffffffffffffffffffffffffffffffff1611611532565b82608001516fffffffffffffffffffffffffffffffff1684600001516fffffffffffffffffffffffffffffffff16105b90508080156109b057505050606001516fffffffffffffffffffffffffffffffff161515919050565b600080600061156a8585611956565b9150915060008061157d88858589611998565b915091508061159157509250610533915050565b61159d88858589611a07565b9092509050806115b257509250610533915050565b61018f888588611a84565b60006115c885611aa4565b6115d357508361020c565b6115e38486856000015185611ae3565b600080600061160b8660200151876000015188606001518a611b79909392919063ffffffff16565b9194509250905061161d898484611c54565b6060860180518290036fffffffffffffffffffffffffffffffff16905285516116495760018803610dd3565b5095979650505050505050565b806fffffffffffffffffffffffffffffffff81168114610a8857600080fd5b6000600f85900b13156116945761168f8685858585611c93565b6106e5565b6000600f85900b12156106e5576106e5856116ae86614897565b858585611cc6565b6fffffffffffffffffffffffffffffffff8116156116ea576116ea82826fffffffffffffffffffffffffffffffff16611cee565b5050565b6000806116fb8484611db8565b6000908152620100076020526040902054949350505050565b60008061172084611e0e565b9050600083611730576000611733565b60015b60ff169050806117438386611e52565b60ff160195945050505050565b600080808061176085888a611e69565b9150915061176f888287611ea8565b92508261178b57600186900b60020b60081b60ff831601611795565b6117958887611edb565b9350505094509492505050565b6000806117b0858585611f48565b9050620100026fffffffffffffffffffffffffffffffff821610156117db5762010002915050610533565b6f0ffff5433e2b3d8211706e6102aa94726fffffffffffffffffffffffffffffffff8216106109b057506f0ffff5433e2b3d8211706e6102aa94719050610533565b600080600080600061183b8a8a8a602001518b604001518b8b61201f565b909250905061184b8a838961206f565b6118568282896120df565b9450945094505050955095509592505050565b611874858484611c54565b83156118a657808560600181815161188c9190614702565b6fffffffffffffffffffffffffffffffff16905250610f59565b80856040018181516118b89190614702565b6fffffffffffffffffffffffffffffffff169052505050505050565b60008080806118e589878a88612137565b90506fffffffffffffffffffffffffffffffff808716908216108015611929576119128a878b8b8b612184565b919650945092506119248a84886121d2565b611949565b6119368a838b8b8b612261565b919650945092506119498a848a8961229b565b5050955095509592505050565b6000806000836119705761196b6001866147cf565b611972565b845b90506119808160020b612360565b925061198e8160020b612377565b9150509250929050565b60008060006201000760006119ae8989896123c0565b815260208101919091526040016000908120549150806119cf838288611e69565b9150915080156119e95760006001945094505050506119fe565b6119f4888884612424565b6000945094505050505b94509492505050565b6000806000620100066000611a1c8989612454565b81526020019081526020016000205490506000611a398686611e52565b9050600080611a4c8460ff851689611e69565b915091508015611a67576000600195509550505050506119fe565b611a738a8a848a611998565b955095505050505094509492505050565b600081611a9a57611a958484612468565b6109b0565b6109b084846124f4565b60007fffffffffffffffffffffffffffffffffffffffffffffffffffffffffff800000600283900b138015610092575050627fffff60029190910b1290565b600080611af6838686896080015161253e565b60408801519193509150611b1c906fffffffffffffffffffffffffffffffff168361267d565b6fffffffffffffffffffffffffffffffff16604087015280156106e5576000611b4b8487878a608001516126fd565b6040880151909150611b6f906fffffffffffffffffffffffffffffffff168261267d565b5050505050505050565b600080600080611b93611b8b89612864565b895189612889565b9050806fffffffffffffffffffffffffffffffff16856fffffffffffffffffffffffffffffffff1611611c22576040517f08c379a000000000000000000000000000000000000000000000000000000000815260206004820152600260248201527f424400000000000000000000000000000000000000000000000000000000000060448201526064016102d1565b8515611c3f57611c33888883612928565b93509350935050611c4a565b611c338888836129c4565b9450945094915050565b8183600001818151611c66919061463b565b600f90810b900b905250602083018051829190611c8490839061463b565b600f90810b900b905250505050565b8015611cba576000611ca6868686612a5f565b9050611cb486828686612b3e565b50610f59565b610f5985858585612b92565b8015611ce257611cd7858585612bc3565b610f4a858484612c42565b610f5985858585612c67565b60008273ffffffffffffffffffffffffffffffffffffffff168260405160006040518083038185875af1925050503d8060008114611d48576040519150601f19603f3d011682016040523d82523d6000602084013e611d4d565b606091505b5050905080610042576040517f08c379a000000000000000000000000000000000000000000000000000000000815260206004820152600260248201527f544600000000000000000000000000000000000000000000000000000000000060448201526064016102d1565b600080611dcb8360020b60020b60081d90565b90508381604051602001611def92919091825260010b60f01b602082015260220190565b6040516020818303038152906040528051906020012091505092915050565b60006101008260020b81611e4b577f4e487b7100000000000000000000000000000000000000000000000000000000600052601260045260246000fd5b0792915050565b600081611e62578260ff03610533565b5090919050565b600080611e77858585612caa565b945050831580611ea05782611e9457611e8f85612cce565b611e9d565b611e9d85612d7b565b91505b935093915050565b60008315611eb7575081610533565b6000611ec38382612f5e565b905080611ed0578361020c565b600095945050505050565b60008215611f3857611eec83612f91565b60010b8260010b14611f2857611f23611f068360016146aa565b611f108515612fc7565b60ff1660019190910b60020b60081b0190565b611f31565b611f3183612fdd565b9050610092565b600182900b60020b60081b611f31565b60007ffffffffffffffffffffffffffffffffffffffffffffffffffffffffffff5d892600285900b131580611f845750620cb14a600285900b12155b15611f90575081610533565b8115611fe15760006001611fa38661103a565b039050836fffffffffffffffffffffffffffffffff16816fffffffffffffffffffffffffffffffff1610611fd75783611fd9565b805b915050610533565b6000611fec8561103a565b9050836fffffffffffffffffffffffffffffffff16816fffffffffffffffffffffffffffffffff1611611fd75783611fd9565b6000808061202f89898787613014565b9050610100620f42406fffffffffffffffffffffffffffffffff831661ffff8a16020460ff8816810291909104908190039a909950975050505050505050565b600061207a84612864565b90506fffffffffffffffffffffffffffffffff81166120995750505050565b83518215906000906120ae9084908785613056565b905060006120c284886000015184866130a6565b905067ffffffffffffffff81161561030d5761030d8782856130c0565b60008080858501841561210e57612107816fffffffffffffffffffffffffffffffff166131c6565b925061212c565b612129816fffffffffffffffffffffffffffffffff166131c6565b93505b509195909450915050565b6000806121458685856131fa565b9050846fffffffffffffffffffffffffffffffff16816fffffffffffffffffffffffffffffffff1611612178578061217a565b845b9695505050505050565b60008060008060006121978a8a8a613230565b915091506000806121aa84848c8c6132b0565b915091506121bd8c8b8b8b8f87876132e7565b96509650965050505050955095509592505050565b82516fffffffffffffffffffffffffffffffff9081168183161490831615158180156121fb5750805b610f59576040517f08c379a000000000000000000000000000000000000000000000000000000000815260206004820152600260248201527f525000000000000000000000000000000000000000000000000000000000000060448201526064016102d1565b60008060008060006122758a8a8a8a61337f565b915091506000806122888b858c8c6133f9565b915091506121bd8c8b8b8b8787876132e7565b6000826122c05784516fffffffffffffffffffffffffffffffff8084169116116122da565b84516fffffffffffffffffffffffffffffffff8084169116105b90506fffffffffffffffffffffffffffffffff8416158180156122fa5750805b6106e5576040517f08c379a000000000000000000000000000000000000000000000000000000000815260206004820152600260248201527f524600000000000000000000000000000000000000000000000000000000000060448201526064016102d1565b60006100926123728360020b60101d90565b613418565b60006101006123898360020b60081d90565b60010b81611e4b577f4e487b7100000000000000000000000000000000000000000000000000000000600052601260045260246000fd5b6000806123e06123cf85613438565b60000b60010b60081b60ff85160190565b9050848160405160200161240492919091825260010b60f01b602082015260220190565b604051602081830303815290604052805190602001209150509392505050565b60006109b061243285613438565b848460009290920b600290810b60101b60ff92831690910b60081b0191160190565b60006105338361246384613438565b613477565b600060ff7fffffffffffffffffffffffffffffffffffffffffffffffffffffffffffffffff83015b60ff8160ff1610156124e9576000806124ac8784866000611a07565b91509150806124c057509250610092915050565b50507fffffffffffffffffffffffffffffffffffffffffffffffffffffffffffffffff01612490565b506109b06000612fdd565b600080600183015b60ff811615612533576000806125158784866001611a07565b915091508061252957509250610092915050565b50506001016124fc565b506109b06001612fdd565b600080600061254d87876134b9565b8054909150600090612580906bffffffffffffffffffffffff808216916c0100000000000000000000000090041661350f565b9050856125955761259081614897565b612597565b805b825490945067ffffffffffffffff868116780100000000000000000000000000000000000000000000000090920416146126475781546125fd907801000000000000000000000000000000000000000000000000900467ffffffffffffffff1686614876565b825467ffffffffffffffff9190911678010000000000000000000000000000000000000000000000000277ffffffffffffffffffffffffffffffffffffffffffffffff9091161782555b856126585781546001161515612670565b81546c01000000000000000000000000900460011615155b9250505094509492505050565b60008082600f0b12156126c757826fffffffffffffffffffffffffffffffff168260000384039150816fffffffffffffffffffffffffffffffff16106126c257600080fd5b610092565b826fffffffffffffffffffffffffffffffff168284019150816fffffffffffffffffffffffffffffffff16101561009257600080fd5b610dad5460009073ffffffffffffffffffffffffffffffffffffffff1661272357600080fd5b6000806001610dac015460405160248101899052600288900b6044820152861515606482015267ffffffffffffffff8616608482015273ffffffffffffffffffffffffffffffffffffffff9091169060a401604080517fffffffffffffffffffffffffffffffffffffffffffffffffffffffffffffffe08184030181529181526020820180517bffffffffffffffffffffffffffffffffffffffffffffffffffffffff167f3c05c62100000000000000000000000000000000000000000000000000000000179052516127f69190614602565b600060405180830381855af49150503d8060008114612831576040519150601f19603f3d011682016040523d82523d6000602084013e612836565b606091505b50915091508161284557600080fd5b8080602001905181019061285991906145c5565b979650505050505050565b6000806128798360200151846060015161352b565b9050610533818460400151613580565b600081156128a95750600167ffffffffffffffff604085901c1601610533565b68010000000000000000836fffffffffffffffffffffffffffffffff16116129105760006128da85600186036135a5565b60010190506fffffffffffffffffffffffffffffffff811115611fd7576fffffffffffffffffffffffffffffffff915050610533565b50600167ffffffffffffffff604085901c1601610533565b600080600060016f0ffff5433e2b3d8211706e6102aa9472036fffffffffffffffffffffffffffffffff1686600001516fffffffffffffffffffffffffffffffff16101561298a5785516001016fffffffffffffffffffffffffffffffff1686525b6129a5846fffffffffffffffffffffffffffffffff166131c6565b6000866129b35760006129b5565b855b92509250925093509350939050565b6000806000620100026fffffffffffffffffffffffffffffffff1686600001516fffffffffffffffffffffffffffffffff161115612a355785517fffffffffffffffffffffffffffffffffffffffffffffffffffffffffffffffff016fffffffffffffffffffffffffffffffff1686525b6000612a52856fffffffffffffffffffffffffffffffff166131c6565b86156129b35760006129b5565b600080612a6c8584613617565b600081815262010010602052604090208054919250906fffffffffffffffffffffffffffffffff908116908616811115612b0157815486908390600090612ac69084906fffffffffffffffffffffffffffffffff16614832565b92506101000a8154816fffffffffffffffffffffffffffffffff02191690836fffffffffffffffffffffffffffffffff160217905550612b34565b81547fffffffffffffffffffffffffffffffff00000000000000000000000000000000168255612b318187614832565b93505b5050509392505050565b6fffffffffffffffffffffffffffffffff831615612b6757612b6284848484612b92565b612b8c565b73ffffffffffffffffffffffffffffffffffffffff8216612b8c57612b8c84826116b6565b50505050565b73ffffffffffffffffffffffffffffffffffffffff8216612bb857612b6284848361364c565b612b8c8484846136f2565b6000612bcf8483613617565b6000818152620100106020526040812080549293508592909190612c069084906fffffffffffffffffffffffffffffffff16614702565b92506101000a8154816fffffffffffffffffffffffffffffffff02191690836fffffffffffffffffffffffffffffffff16021790555050505050565b73ffffffffffffffffffffffffffffffffffffffff82166100425761004283826116b6565b73ffffffffffffffffffffffffffffffffffffffff8216612c8d57612b62848483613710565b612b8c8285856fffffffffffffffffffffffffffffffff16613735565b600081612cc05761ffff831684811b901c6109b0565b505061ffff1690811c901b90565b6000808211612cdc57600080fd5b7001000000000000000000000000000000008210612cfc57608091821c91015b680100000000000000008210612d1457604091821c91015b6401000000008210612d2857602091821c91015b620100008210612d3a57601091821c91015b6101008210612d4b57600891821c91015b60108210612d5b57600491821c91015b60048210612d6b57600291821c91015b60028210610a8857600101919050565b6000808211612d8957600080fd5b5060ff6fffffffffffffffffffffffffffffffff821615612dcb577fffffffffffffffffffffffffffffffffffffffffffffffffffffffffffffff8001612dd3565b608082901c91505b67ffffffffffffffff821615612e0a577fffffffffffffffffffffffffffffffffffffffffffffffffffffffffffffffc001612e12565b604082901c91505b63ffffffff821615612e45577fffffffffffffffffffffffffffffffffffffffffffffffffffffffffffffffe001612e4d565b602082901c91505b61ffff821615612e7e577ffffffffffffffffffffffffffffffffffffffffffffffffffffffffffffffff001612e86565b601082901c91505b60ff821615612eb6577ffffffffffffffffffffffffffffffffffffffffffffffffffffffffffffffff801612ebe565b600882901c91505b600f821615612eee577ffffffffffffffffffffffffffffffffffffffffffffffffffffffffffffffffc01612ef6565b600482901c91505b6003821615612f26577ffffffffffffffffffffffffffffffffffffffffffffffffffffffffffffffffe01612f2e565b600282901c91505b6001821615610a88577fffffffffffffffffffffffffffffffffffffffffffffffffffffffffffffffff01919050565b6000806000612f72858560ff166001611e69565b915060ff1691508015801561020c57508360ff16821495945050505050565b600081612fbe577fffffffffffffffffffffffffffffffffffffffffffffffffffffffffffff8000610092565b617fff92915050565b600081612fd5576000610092565b60ff92915050565b60008161300a577fffffffffffffffffffffffffffffffffffffffffffffffffffffffffff800000610092565b627fffff92915050565b83516000906fffffffffffffffffffffffffffffffff908116908316118161303e87878787612137565b905061285961304c88612864565b885183858961389e565b600080613064868685612889565b9050806fffffffffffffffffffffffffffffffff16846fffffffffffffffffffffffffffffffff16111561309a5780840361217a565b50600095945050505050565b6000806130b48686856139d8565b905061217a8185613a2c565b82516130cd908383613abe565b6fffffffffffffffffffffffffffffffff16835260608301516130fa9067ffffffffffffffff1683613b6a565b67ffffffffffffffff9081166060850181905260009161311d9190851690613bcd565b9050600061316661314d8387604001516fffffffffffffffffffffffffffffffff16613c3c90919063ffffffff16565b71ffffffffffffffffffffffffffffffffffff16611656565b905060006131748383613c62565b905081866020018181516131889190614702565b6fffffffffffffffffffffffffffffffff169052506080860180518291906131b1908390614736565b67ffffffffffffffff16905250505050505050565b60006f80000000000000000000000000000000826fffffffffffffffffffffffffffffffff16106131f657600080fd5b5090565b60008061320685612864565b9050836132215761321c81848760000151613cd2565b61020c565b61020c81866000015185613d1d565b600080600061323e86612864565b8651909150600090613264906fffffffffffffffffffffffffffffffff84169088613d1d565b875190915060009061328a906fffffffffffffffffffffffffffffffff85169089613cd2565b9050851561329e57909350915082826132a5565b9350915081835b505050935093915050565b6000806132bf86868686613d65565b90925090506132cf60048361463b565b91506132dc60048261463b565b905094509492505050565b6000806000806132f8868b8b613e09565b9050876fffffffffffffffffffffffffffffffff16816fffffffffffffffffffffffffffffffff161061332e576000915061333b565b6133388189614832565b91505b896133465784613348565b855b9350896133555785613357565b845b6fffffffffffffffffffffffffffffffff909716909a52919994985090965092945050505050565b600080600061338d87612864565b90506133a0876000015182888888613e3f565b915084156133cd5786516133c8906fffffffffffffffffffffffffffffffff83169084613cd2565b6133ed565b86516133ed906fffffffffffffffffffffffffffffffff83169084613d1d565b92505094509492505050565b60008061340886868686613d65565b90925090506132dc60048261463b565b6000808260000b1215613431578160000b608001610092565b5060800190565b600060808260ff161061344e5760808203610092565b5060ff167fffffffffffffffffffffffffffffffffffffffffffffffffffffffffffffff800190565b6000828260405160200161349b92919091825260000b60f81b602082015260210190565b60405160208183030381529060405280519060200120905092915050565b600062010002600084846040516020016134e392919091825260020b60e81b602082015260230190565b604051602081830303815290604052805190602001208152602001908152602001600020905092915050565b600061351a82613edb565b61352384613edb565b039392505050565b600066010000000000006fffffffffffffffffffffffffffffffff80851667ffffffffffffffff851683010290603082901c9081111561020c576fffffffffffffffffffffffffffffffff9350505050610092565b8082016fffffffffffffffffffffffffffffffff808416908216101561009257600080fd5b60006fffffffffffffffffffffffffffffffff8216800277ffffffffffffffffffffffffffffffff0000000000000000604085901b168161360f577f4e487b7100000000000000000000000000000000000000000000000000000000600052601260045260246000fd5b049392505050565b6040805173ffffffffffffffffffffffffffffffffffffffff808516602083015283169181019190915260009060600161349b565b816fffffffffffffffffffffffffffffffff16816fffffffffffffffffffffffffffffffff1610156136da576040517f08c379a000000000000000000000000000000000000000000000000000000000815260206004820152600260248201527f454300000000000000000000000000000000000000000000000000000000000060448201526064016102d1565b60006136e68383614832565b9050612b8c84826116b6565b610042818430856fffffffffffffffffffffffffffffffff16613ef7565b6100428361371e8385614702565b6fffffffffffffffffffffffffffffffff16611cee565b6040805173ffffffffffffffffffffffffffffffffffffffff8481166024830152604480830185905283518084039091018152606490920183526020820180517bffffffffffffffffffffffffffffffffffffffffffffffffffffffff167fa9059cbb0000000000000000000000000000000000000000000000000000000017905291516000928392908716916137cc9190614602565b6000604051808303816000865af19150503d8060008114613809576040519150601f19603f3d011682016040523d82523d6000602084013e61380e565b606091505b5091509150818015613838575080511580613838575080806020019051810190613838919061453c565b610f59576040517f08c379a000000000000000000000000000000000000000000000000000000000815260206004820152600260248201527f544600000000000000000000000000000000000000000000000000000000000060448201526064016102d1565b60006fffffffffffffffffffffffffffffffff86166138bf5750600061020c565b60006138cd878785156139d8565b6fffffffffffffffffffffffffffffffff16905060006138ee8888866139d8565b6fffffffffffffffffffffffffffffffff16905060008415158615151461392957866fffffffffffffffffffffffffffffffff16820361393f565b866fffffffffffffffffffffffffffffffff1682015b905080613961576fffffffffffffffffffffffffffffffff935050505061020c565b6000816fffffffffffffffffffffffffffffffff8b168002816139ad577f4e487b7100000000000000000000000000000000000000000000000000000000600052601260045260246000fd5b0490506139ca8482116139c257818503611656565b848203611656565b9a9950505050505050505050565b60006109b0826139f1576139ec8585614068565b613a0d565b6fffffffffffffffffffffffffffffffff8086169085160260401c5b77ffffffffffffffffffffffffffffffffffffffffffffffff16611656565b60006fffffffffffffffffffffffffffffffff83161580613a705750826fffffffffffffffffffffffffffffffff16826fffffffffffffffffffffffffffffffff16115b15613a7d57506000610092565b6000613a898385614702565b90506000613aa96fffffffffffffffffffffffffffffffff8316866140d0565b905061020c8167ffffffffffffffff166141c0565b6000660100000000000067ffffffffffffffff841681018315613b0c576fffffffffffffffffffffffffffffffff86168102603081901c613b0160018201611656565b945050505050610533565b75ffffffffffffffffffffffffffffffff000000000000603087901b16818181613b5f577f4e487b7100000000000000000000000000000000000000000000000000000000600052601260045260246000fd5b049350505050610533565b6000660100000000000067ffffffffffffffff848116820181851683010290603082901c907fffffffffffffffffffffffffffffffffffffffffffffffffffff000000000000820190811061217a5767ffffffffffffffff945050505050610092565b6000660100000000000067ffffffffffffffff831681016dffffffffffffffff000000000000603086901b1683828281613c30577f4e487b7100000000000000000000000000000000000000000000000000000000600052601260045260246000fd5b04979650505050505050565b67ffffffffffffffff166fffffffffffffffffffffffffffffffff9182160260301c1690565b60006fffffffffffffffffffffffffffffffff8216613c8357506000610092565b613c8e826001614702565b6fffffffffffffffffffffffffffffffff16826fffffffffffffffffffffffffffffffff168467ffffffffffffffff16613cc89190614792565b6105339190614759565b6000826fffffffffffffffffffffffffffffffff16826fffffffffffffffffffffffffffffffff161115613d1257613d0b848385614204565b9050610533565b613d0b848484614204565b600080826fffffffffffffffffffffffffffffffff16846fffffffffffffffffffffffffffffffff1611613d5357838303613d57565b8284035b905061020c858260016139d8565b6000808215158415151415613dbd57613d8f866fffffffffffffffffffffffffffffffff166131c6565b613daa866fffffffffffffffffffffffffffffffff166131c6565b613db390614897565b90925090506119fe565b613dd8866fffffffffffffffffffffffffffffffff166131c6565b613de190614897565b613dfc866fffffffffffffffffffffffffffffffff166131c6565b9097909650945050505050565b60008082151584151514613e2557613e2085614897565b613e27565b845b9050600081600f0b12156109b0576000915050610533565b60008083613e5857613e5387878786614283565b613e64565b613e64878787866142e7565b90506f0ffff5433e2b3d8211706e6102aa94726fffffffffffffffffffffffffffffffff821610613eb257613eaa60016f0ffff5433e2b3d8211706e6102aa9472614832565b91505061020c565b620100026fffffffffffffffffffffffffffffffff8216101561217a576201000291505061020c565b6000600a82901b6d03fffffffffffffffffffffff80016610092565b6040805173ffffffffffffffffffffffffffffffffffffffff85811660248301528481166044830152606480830185905283518084039091018152608490920183526020820180517bffffffffffffffffffffffffffffffffffffffffffffffffffffffff167f23b872dd000000000000000000000000000000000000000000000000000000001790529151600092839290881691613f969190614602565b6000604051808303816000865af19150503d8060008114613fd3576040519150601f19603f3d011682016040523d82523d6000602084013e613fd8565b606091505b5091509150818015614002575080511580614002575080806020019051810190614002919061453c565b6106e5576040517f08c379a000000000000000000000000000000000000000000000000000000000815260206004820152600260248201527f544600000000000000000000000000000000000000000000000000000000000060448201526064016102d1565b60006fffffffffffffffffffffffffffffffff821677ffffffffffffffffffffffffffffffff0000000000000000604085901b168161360f577f4e487b7100000000000000000000000000000000000000000000000000000000600052601260045260246000fd5b600079ffffffffffffffffffffffffffffffffffffffffffffffffffff6fffffffffffffffffffffffffffffffff84161080156141315750816fffffffffffffffffffffffffffffffff16836fffffffffffffffffffffffffffffffff1610155b61413a57600080fd5b660100000000000075ffffffffffffffffffffffffffffffff000000000000603085901b166000826fffffffffffffffffffffffffffffffff861683816141aa577f4e487b7100000000000000000000000000000000000000000000000000000000600052601260045260246000fd5b0403905082811061020c57829350505050610092565b600066010000000000008267ffffffffffffffff16106141df57600080fd5b5067ffffffffffffffff8116800260331c60019190911c677fffffffffffffff160390565b6000806142118385614832565b9050600061421f8685614068565b77ffffffffffffffffffffffffffffffffffffffffffffffff1690506000856fffffffffffffffffffffffffffffffff16836fffffffffffffffffffffffffffffffff168361426e9190614792565b6142789190614759565b9050612b3181611656565b60008061428f866143d5565b905060006142a082878787156142e7565b90506fffffffffffffffffffffffffffffffff81166142d3576f0ffff5433e2b3d8211706e6102aa9472925050506109b0565b6142dc816143d5565b612859906001614702565b60006fffffffffffffffffffffffffffffffff841661431757506fffffffffffffffffffffffffffffffff6109b0565b60006143238486614068565b90506fffffffffffffffffffffffffffffffff77ffffffffffffffffffffffffffffffffffffffffffffffff82161115614370576fffffffffffffffffffffffffffffffff9150506109b0565b80831561438a576143818188614702565b925050506109b0565b866fffffffffffffffffffffffffffffffff16816fffffffffffffffffffffffffffffffff16106143c0576000925050506109b0565b6143cb816001614702565b6143819088614832565b6000816fffffffffffffffffffffffffffffffff1670010000000000000000000000000000000081614430577f4e487b7100000000000000000000000000000000000000000000000000000000600052601260045260246000fd5b0492915050565b803573ffffffffffffffffffffffffffffffffffffffff81168114610a8857600080fd5b80356fffffffffffffffffffffffffffffffff81168114610a8857600080fd5b6000806000806000806000806000806101408b8d03121561449a578586fd5b6144a38b614437565b99506144b160208c01614437565b985060408b0135975060608b01356144c881614903565b965060808b01356144d881614903565b95506144e660a08c0161445b565b945060c08b01356144f681614914565b935061450460e08c0161445b565b92506145136101008c0161445b565b91506101208b013560ff81168114614529578182fd5b809150509295989b9194979a5092959850565b60006020828403121561454d578081fd5b815161053381614903565b6000806020838503121561456a578182fd5b823567ffffffffffffffff80821115614581578384fd5b818501915085601f830112614594578384fd5b8135818111156145a2578485fd5b8660208285010111156145b3578485fd5b60209290920196919550909350505050565b6000602082840312156145d6578081fd5b815180600f0b8114610533578182fd5b6000602082840312156145f7578081fd5b815161053381614914565b60008251815b818110156146225760208186018101518583015201614608565b818111156146305782828501525b509190910192915050565b600081600f0b83600f0b828212826f7fffffffffffffffffffffffffffffff0382138115161561466d5761466d6148d4565b827fffffffffffffffffffffffffffffffff800000000000000000000000000000000382128116156146a1576146a16148d4565b50019392505050565b60008160010b8360010b82821282617fff038213811516156146ce576146ce6148d4565b827fffffffffffffffffffffffffffffffffffffffffffffffffffffffffffff80000382128116156146a1576146a16148d4565b60006fffffffffffffffffffffffffffffffff80831681851680830382111561472d5761472d6148d4565b01949350505050565b600067ffffffffffffffff80831681851680830382111561472d5761472d6148d4565b60008261478d577f4e487b710000000000000000000000000000000000000000000000000000000081526012600452602481fd5b500490565b6000817fffffffffffffffffffffffffffffffffffffffffffffffffffffffffffffffff04831182151516156147ca576147ca6148d4565b500290565b60008160020b8360020b828112817fffffffffffffffffffffffffffffffffffffffffffffffffffffffffff80000001831281151615614811576148116148d4565b81627fffff018313811615614828576148286148d4565b5090039392505050565b60006fffffffffffffffffffffffffffffffff83811690831681811015613523576135236148d4565b600061ffff83811690831681811015613523576135236148d4565b600067ffffffffffffffff83811690831681811015613523576135236148d4565b600081600f0b7fffffffffffffffffffffffffffffffff800000000000000000000000000000008114156148cd576148cd6148d4565b9003919050565b7f4e487b7100000000000000000000000000000000000000000000000000000000600052601160045260246000fd5b801515811461491157600080fd5b50565b61ffff8116811461491157600080fdfea2646970667358221220595002a563aeb896d8c2242b5caef297ea897ba86a489b26ed362ba994e012f164736f6c63430008040033",
  "linkReferences": {},
  "deployedLinkReferences": {}
}