{
  "_format": "hh-sol-artifact-1",
  "contractName": "KnockoutLiqPath",
  "sourceName": "contracts/callpaths/KnockoutPath.sol",
  "abi": [
    {
      "anonymous": false,
      "inputs": [
        {
          "indexed": true,
          "internalType": "bytes32",
          "name": "pool",
          "type": "bytes32"
        },
        {
          "indexed": true,
          "internalType": "int24",
          "name": "tick",
          "type": "int24"
        },
        {
          "indexed": false,
          "internalType": "bool",
          "name": "isBid",
          "type": "bool"
        },
        {
          "indexed": false,
          "internalType": "uint32",
          "name": "pivotTime",
          "type": "uint32"
        },
        {
          "indexed": false,
          "internalType": "uint64",
          "name": "feeMileage",
          "type": "uint64"
        }
      ],
      "name": "CrocKnockoutCross",
      "type": "event"
    },
    {
      "inputs": [
        {
          "internalType": "bytes",
          "name": "cmd",
          "type": "bytes"
        }
      ],
      "name": "userCmd",
      "outputs": [
        {
          "internalType": "int128",
          "name": "baseFlow",
          "type": "int128"
        },
        {
          "internalType": "int128",
          "name": "quoteFlow",
          "type": "int128"
        }
      ],
      "stateMutability": "payable",
      "type": "function"
    },
    {
      "anonymous": false,
      "inputs": [
        {
          "indexed": false,
          "internalType": "bytes",
          "name": "input",
          "type": "bytes"
        },
        {
          "indexed": false,
          "internalType": "int128",
          "name": "baseFlow",
          "type": "int128"
        },
        {
          "indexed": false,
          "internalType": "int128",
          "name": "quoteFlow",
          "type": "int128"
        }
      ],
      "name": "CrocKnockoutCmd",
      "type": "event"
    }
  ],
  "bytecode": "0x608060405234801561001057600080fd5b50614c9d806100206000396000f3fe60806040526004361061001e5760003560e01c8063f96dc78814610023575b600080fd5b6100366100313660046145d9565b610054565b60408051600f93840b81529190920b60208201520160405180910390f35b60008080808080808080808061006c8c8e018e6147c4565b985098509850985098509850985098509850600061008b8989896100ee565b9050600061009c82602001516101d0565b60408051606081018252871515815260028a810b810b602083015289810b900b918101919091529091506100d68c8c8c8686868b8b6102a5565b9d509d505050505050505050505050505b9250929050565b60408051610140810182526000606082018181526080830182905260a0830182905260c0830182905260e08301829052610100830182905261012083018290528252602082018190529181019190915261014d6201000985858561033d565b905061015e81515160ff1660011490565b6101c9576040517f08c379a000000000000000000000000000000000000000000000000000000000815260206004820152600260248201527f504900000000000000000000000000000000000000000000000000000000000060448201526064015b60405180910390fd5b9392505050565b6040805160a0810182526000808252602082018190529181018290526060810182905260808101919091525060008181526201000f6020908152604091829020825160a08101845281546fffffffffffffffffffffffffffffffff808216808452700100000000000000000000000000000000928390048216958401959095526001909301549283169482019490945292810467ffffffffffffffff908116606085015278010000000000000000000000000000000000000000000000009091041660808301526102a057600080fd5b919050565b60008060ff8a16605b14156102cc576102c289898989898861046e565b9092509050610323565b60ff8a16605c14156102e6576102c2898989898988610686565b60ff8a16605d1415610302576102c28760200151878786610892565b60ff8a16605e14156103235761031d876020015186856109a5565b90925090505b61033089898484886109d8565b9850989650505050505050565b60408051610140810182526000606082018181526080830182905260a0830182905260c0830182905260e083018290526101008301829052610120830182905282526020820181905291810182905290610398858585610a0a565b600081815260208881526040808320815160e081018352905460ff808216835261ffff6101008304811695840195909552630100000082048116938301939093526401000000008104909316606082015266010000000000008304821660808201526701000000000000008304821660a0820152680100000000000000009092041660c0820181905292935091610430908690610a98565b60408051606081018252938452602084019490945273ffffffffffffffffffffffffffffffffffffffff16928201929092529150505b949350505050565b600080600080848060200190518101906104889190614646565b9150915060006104ad88600001516fffffffffffffffffffffffffffffffff16610abc565b90506104bc8782846000610e0f565b610522576040517f08c379a000000000000000000000000000000000000000000000000000000000815260206004820152600260248201527f4b4c00000000000000000000000000000000000000000000000000000000000060448201526064016101c0565b60006105438460018b600001518b602001518c604001518d60000151610e7b565b905061055b8a8d8d8b602001518c6040015186610f19565b61057589838a848e602001518f6000015160a00151611098565b60208c01519197509550610663908a60009182526201000f60209081526040928390208251918301516fffffffffffffffffffffffffffffffff9081167001000000000000000000000000000000009081029382169390931782559383015160019091018054606085015160809095015167ffffffffffffffff90811678010000000000000000000000000000000000000000000000000277ffffffffffffffffffffffffffffffffffffffffffffffff919096169094027fffffffffffffffff00000000000000000000000000000000000000000000000090911692909516919091179390931716179055565b6106738686868b600001516110ff565b909d909c509a5050505050505050505050565b6000806000806000858060200190518101906106a2919061467c565b92509250925060006106c989600001516fffffffffffffffffffffffffffffffff16610abc565b90506106d88882846000610e0f565b61073e576040517f08c379a000000000000000000000000000000000000000000000000000000000815260206004820152600260248201527f4b4c00000000000000000000000000000000000000000000000000000000000060448201526064016101c0565b600083610769576107648560008c600001518c602001518d604001518e60000151610e7b565b61076b565b845b90506107838b8e8e8c602001518d604001518661114c565b6107948a838b848f6020015161120c565b60208d01519198509650610882908b60009182526201000f60209081526040928390208251918301516fffffffffffffffffffffffffffffffff9081167001000000000000000000000000000000009081029382169390931782559383015160019091018054606085015160809095015167ffffffffffffffff90811678010000000000000000000000000000000000000000000000000277ffffffffffffffffffffffffffffffffffffffffffffffff919096169094027fffffffffffffffff00000000000000000000000000000000000000000000000090911692909516919091179390931716179055565b5050505050965096945050505050565b600080600080848060200190518101906108ac91906146c5565b915091506108bd878784848c611266565b60008a81526201000f60209081526040918290208b51918c01516fffffffffffffffffffffffffffffffff9283167001000000000000000000000000000000009184168202178255928c01516001909101805460608e015160808f0151939094167fffffffffffffffff0000000000000000000000000000000000000000000000009091161767ffffffffffffffff9384169094029390931777ffffffffffffffffffffffffffffffffffffffffffffffff16780100000000000000000000000000000000000000000000000092909116919091021790559094509250505094509492505050565b6000806000838060200190518101906109be91906147a0565b90506109cb8582886112af565b9097909650945050505050565b60005473ffffffffffffffffffffffffffffffffffffffff1680610a01818089888a8989611301565b50505050505050565b60008273ffffffffffffffffffffffffffffffffffffffff168473ffffffffffffffffffffffffffffffffffffffff1610610a4457600080fd5b6040805173ffffffffffffffffffffffffffffffffffffffff8087166020830152851691810191909152606081018390526080015b6040516020818303038152906040528051906020012090509392505050565b600060018083161480610aac576000610ab2565b606084901c5b9150505b92915050565b6000620100026fffffffffffffffffffffffffffffffff831610801590610b0457506f0ffff5433e2b3d8211706e6102aa94726fffffffffffffffffffffffffffffffff8316105b610b0d57600080fd5b77ffffffffffffffffffffffffffffffff0000000000000000604083901b166fffffffffffffffffffffffffffffffff811160071b81811c67ffffffffffffffff811160061b90811c63ffffffff811160051b90811c61ffff811160041b90811c60ff8111600390811b91821c600f811160021b90811c918211600190811b92831c97908811961790941790921717909117171760808110610bb757607f810383901c9150610bc1565b80607f0383901b91505b908002607f81811c60ff83811c9190911c800280831c81831c1c800280841c81841c1c800280851c81851c1c800280861c81861c1c800280871c81871c1c800280881c81881c1c800280891c81891c1c8002808a1c818a1c1c8002808b1c818b1c1c8002808c1c818c1c1c8002808d1c818d1c1c8002808e1c9c81901c9c909c1c80029c8d901c9e9d7fffffffffffffffffffffffffffffffffffffffffffffffffffffffffffffff808f0160401b60c09190911c678000000000000000161760c19b909b1c674000000000000000169a909a1760c29990991c672000000000000000169890981760c39790971c671000000000000000169690961760c49590951c670800000000000000169490941760c59390931c670400000000000000169290921760c69190911c670200000000000000161760c79190911c670100000000000000161760c89190911c6680000000000000161760c99190911c6640000000000000161760ca9190911c6620000000000000161760cb9190911c6610000000000000161760cc9190911c6608000000000000161760cd9190911c66040000000000001617693627a301d71055774c8581027ffffffffffffffffffffffffffffffffffd709b7e5480fba5a50fed5e62ffc5568101608090811d906fdb2df09e81959a81455e260799a0632f8301901d600281810b9083900b14610e0057886fffffffffffffffffffffffffffffffff16610ddc82611356565b6fffffffffffffffffffffffffffffffff161115610dfa5781610e02565b80610e02565b815b9998505050505050505050565b60008115610e1f57506001610466565b845115610e5057600083610e37578560400151610e3d565b85602001515b90508460020b8160020b12915050610466565b600083610e61578560200151610e67565b85604001515b90508460020b8160020b1215915050610466565b6000806000610e8c878787876116ec565b915091506000610ebc858484610ea28e8e611791565b6fffffffffffffffffffffffffffffffff169291906117ea565b905088610ef757600b81811c6e1fffffffffffffffffffffffffffff16600101901b7107fffffffffffffffffffffffffffffff80016610f0b565b6ffffffffffffffffffffffffffffff80081165b9a9950505050505050505050565b604086015173ffffffffffffffffffffffffffffffffffffffff1615611090576040868101516000805492517f2dd148f100000000000000000000000000000000000000000000000000000000815273ffffffffffffffffffffffffffffffffffffffff938416600482015233602482015288841660448201528784166064820152600287810b608483015286900b60a48201526fffffffffffffffffffffffffffffffff851660c4820152909290911690632dd148f19060e4015b602060405180830381600087803b158015610fef57600080fd5b505af1158015611003573d6000803e3d6000fd5b505050506040513d601f19601f8201168201806040525081019061102791906145bd565b905080610a01576040517f08c379a000000000000000000000000000000000000000000000000000000000815260206004820152600160248201527f5a0000000000000000000000000000000000000000000000000000000000000060448201526064016101c0565b505050505050565b6000806110c78484898b608001518a6110c28b6fffffffffffffffffffffffffffffffff16611864565b61193a565b50506000806110e08a888a602001518b60400151611995565b915091506110ee82826119d9565b909b909a5098505050505050505050565b600080828015611114575085600f0b84600f0b135b156111215783955061113d565b82158015611134575084600f0b84600f0b135b1561113d578394505b50849050835b94509492505050565b604086015173ffffffffffffffffffffffffffffffffffffffff1615611090576040868101516000805492517f2a179e9b00000000000000000000000000000000000000000000000000000000815273ffffffffffffffffffffffffffffffffffffffff938416600482015233602482015288841660448201528784166064820152600287810b608483015286900b60a48201526fffffffffffffffffffffffffffffffff851660c4820152909290911690632a179e9b9060e401610fd5565b600080600061123c84888a60800151896112378a6fffffffffffffffffffffffffffffffff16611864565b611a1d565b925050506000806112588a88858b602001518c60400151611a76565b915091506110ee8282611aa5565b60008060008061127885898989611af0565b90925090506d03fffffffffffffffffffffff800600a83901b166000806112a18c84868e611b21565b915091506106738282611aa5565b60008060006112bf848787611b40565b90506d03fffffffffffffffffffffff800600a82901b166000806112e3838a611b63565b915091506112f18282611aa5565b909a909950975050505050505050565b73ffffffffffffffffffffffffffffffffffffffff85166113325761132d878786600185161515611bd4565b611344565b61134487878688600186161515611c11565b610a0187878486600286161515611c11565b60007ffffffffffffffffffffffffffffffffffffffffffffffffffffffffffff5d892600283900b128015906113935750620cb14a600283900b13155b61139c57600080fd5b6000808360020b126113b1578260020b6113b9565b8260020b6000035b90506000600182166113dc577001000000000000000000000000000000006113ee565b6ffffcb933bd6fad37aa2d162d1a5940015b70ffffffffffffffffffffffffffffffffff1690506002821615611422576ffff97272373d413259a46990580e213a0260801c5b6004821615611441576ffff2e50f5f656932ef12357cf3c7fdcc0260801c5b6008821615611460576fffe5caca7e10e4e61c3624eaa0941cd00260801c5b601082161561147f576fffcb9843d60f6159c9db58835c9266440260801c5b602082161561149e576fff973b41fa98c081472e6896dfb254c00260801c5b60408216156114bd576fff2ea16466c96a3843ec78b326b528610260801c5b60808216156114dc576ffe5dee046a99a2a811c461f1969c30530260801c5b6101008216156114fc576ffcbe86c7900a88aedcffc83b479aa3a40260801c5b61020082161561151c576ff987a7253ac413176f2b074cf7815e540260801c5b61040082161561153c576ff3392b0822b70005940c7a398e4b70f30260801c5b61080082161561155c576fe7159475a2c29b7443b29c7fa6e889d90260801c5b61100082161561157c576fd097f3bdfd2022b8845ad8f792aa58250260801c5b61200082161561159c576fa9f746462d870fdf8a65dc1f90e061e50260801c5b6140008216156115bc576f70d869a156d2a1b890bb3df62baf32f70260801c5b6180008216156115dc576f31be135f97d08fd981231505542fcfa60260801c5b620100008216156115fd576f09aa508b5b7a84e1c677de54f3e99bc90260801c5b6202000082161561161d576e5d6af8dedb81196699c329225ee6040260801c5b6204000082161561163c576d2216e584f5fa1ea926041bedfe980260801c5b62080000821615611659576b048a170391f7dc42444e8fa20260801c5b60008460020b13156116bf57807fffffffffffffffffffffffffffffffffffffffffffffffffffffffffffffffff816116bb577f4e487b7100000000000000000000000000000000000000000000000000000000600052601260045260246000fd5b0490505b680100000000000000008106156116d75760016116da565b60005b60ff16604082901c0192505050919050565b6000806116fb8560020b611356565b91506117098460020b611356565b9050816fffffffffffffffffffffffffffffffff16866fffffffffffffffffffffffffffffffff161161174657821561174157600080fd5b611143565b806fffffffffffffffffffffffffffffffff16866fffffffffffffffffffffffffffffffff161061177b578261174157600080fd5b8215611788575084611143565b94959350505050565b6000600482156117e057806fffffffffffffffffffffffffffffffff16846fffffffffffffffffffffffffffffffff16106117d5576117d08185614ad6565b6117d8565b60005b915050610ab6565b6117d8818561497f565b6000836118155761180e85600161180086611c41565b61180986611c41565b6117ea565b9050610466565b6000826fffffffffffffffffffffffffffffffff16846fffffffffffffffffffffffffffffffff161161184a5783830361184e565b8284035b905061185c86600183611ca3565b915050610466565b6000600a82901c6e3fffffffffffffffffffffffffffff8116906ffffffffffffffffffffffffffffffc00841690600116158080156118b45750846fffffffffffffffffffffffffffffffff1682145b80156118cb57506bffffffffffffffffffffffff83105b611931576040517f08c379a000000000000000000000000000000000000000000000000000000000815260206004820152600260248201527f464400000000000000000000000000000000000000000000000000000000000060448201526064016101c0565b50909392505050565b60008061194a888886868a611cfa565b8092508193505050600061196a898887602001518860400151888b611f04565b9050811561197c5761197c8986611f4c565b6119898986868487612007565b50965096945050505050565b60008060008060006119ad89600001518989896121b8565b9250925092506119be8989836122bc565b6119c98383836122cc565b9450945050505094509492505050565b6000806119f7846fffffffffffffffffffffffffffffffff16612343565b611a12846fffffffffffffffffffffffffffffffff16612343565b915091509250929050565b6000806000611a2d888686612377565b935091508215611a4157611a4188866124cc565b6000611a59898988602001518960400151898c6124f3565b9050611a68898787848761254d565b915050955095509592505050565b600080611a8587878686612734565b9092509050611a978282898989612788565b909890975095505050505050565b600080611ac3846fffffffffffffffffffffffffffffffff16612343565b611acc90614b6a565b611ae7846fffffffffffffffffffffffffffffffff16612343565b611a1290614b6a565b600080600080611b0288888888612831565b91509150611b12888883856128e5565b90999098509650505050505050565b600080611b2e8584611b63565b90925090506109cb8282888888612788565b6000611b4d8484846129e9565b611b5a84846000856128e5565b50949350505050565b600080600080611b7b85602001518660400151612a9d565b8651919350915015611bab57611ba46fffffffffffffffffffffffffffffffff87168383612b14565b9250611bcb565b611bc86fffffffffffffffffffffffffffffffff87168383612b5f565b93505b50509250929050565b6000611bdf34612bb0565b905082600f0b600014611c0057611bfb85858560008587612bcf565b611c0a565b611c0a8482612c10565b5050505050565b73ffffffffffffffffffffffffffffffffffffffff8216611c3157600080fd5b6000611090868686868587612bcf565b6000816fffffffffffffffffffffffffffffffff1670010000000000000000000000000000000081611c9c577f4e487b7100000000000000000000000000000000000000000000000000000000600052601260045260246000fd5b0492915050565b600082611ced57611ce86fffffffffffffffffffffffffffffffff8086169084160260401c5b77ffffffffffffffffffffffffffffffffffffffffffffffff16612c44565b610466565b610466611cc98584612c7d565b60008080611d088689612ced565b6000818152620100036020526040902080546bffffffffffffffffffffffff161593509091508215611e0357611d3c612d01565b60008381526201000460205260409020909450611d5890612d1b565b611d6387868a612df8565b805463ffffffff85166c01000000000000000000000000027fffffffffffffffffffffffffffffffff000000000000000000000000000000009091166bffffffffffffffffffffffff881617178155611dbb87612eb1565b815461ffff91909116700100000000000000000000000000000000027fffffffffffffffffffffffffffff0000ffffffffffffffffffffffffffffffff909116178155611ef8565b805486908290600090611e259084906bffffffffffffffffffffffff166149d6565b92506101000a8154816bffffffffffffffffffffffff02191690836bffffffffffffffffffffffff16021790555080600001600c9054906101000a900463ffffffff169350611e7387612eb1565b8154700100000000000000000000000000000000900461ffff908116911614611ef8576040517f08c379a000000000000000000000000000000000000000000000000000000000815260206004820152600260248201527f4b5200000000000000000000000000000000000000000000000000000000000060448201526064016101c0565b50509550959350505050565b6000611f1287878785612edd565b611f1e87878685612edd565b611f29878685612f88565b611f34878585612ff3565b611f41878787878661307e565b979650505050505050565b805115611fa3576000611f638383602001516130ac565b80547fffffffffffffffffffffffffffffffffffffffff00000000000000000000000081166bffffffffffffffffffffffff909116176001179055505050565b6000611fb38383604001516130ac565b80547fffffffffffffffff000000000000000000000000ffffffffffffffffffffffff811660016c01000000000000000000000000928390046bffffffffffffffffffffffff1617909102179055505b5050565b6000805485516020808801516040808a015181518085018d905273ffffffffffffffffffffffffffffffffffffffff909616868301529315156060860152600291820b608086015292900b60a084015263ffffffff851660c0808501919091528251808503909101815260e09093019091528151910120600081815262010005602052604081208054929350916120ce9067ffffffffffffffff878116916bffffffffffffffffffffffff808b16926c010000000000000000000000008304169116613102565b8254909150869083906000906120f39084906bffffffffffffffffffffffff166149d6565b82546101009290920a6bffffffffffffffffffffffff8181021990931691909216919091021790555081547fffffffffffffffffffffffff0000000000000000ffffffffffffffffffffffff166c0100000000000000000000000067ffffffffffffffff831602178255612165612d01565b825463ffffffff9190911674010000000000000000000000000000000000000000027fffffffffffffffff00000000ffffffffffffffffffffffffffffffffffffffff9091161790915550505050505050565b60008060008060006121ca8787612a9d565b91509150816fffffffffffffffffffffffffffffffff16896fffffffffffffffffffffffffffffffff16101561221e576122176fffffffffffffffffffffffffffffffff89168383612b14565b93506122b0565b806fffffffffffffffffffffffffffffffff16896fffffffffffffffffffffffffffffffff161061226d576122666fffffffffffffffffffffffffffffffff89168383612b5f565b94506122b0565b61228a6fffffffffffffffffffffffffffffffff89168a83612b14565b93506122a96fffffffffffffffffffffffffffffffff8916838b612b5f565b9450600192505b50509450945094915050565b6122c78383836131ae565b505050565b6000806000856fffffffffffffffffffffffffffffffff1611806122ed5750825b6122f8576000612303565b61230360048661497f565b6000856fffffffffffffffffffffffffffffffff1611806123215750835b61232c576000612337565b61233760048661497f565b91509150935093915050565b60006f80000000000000000000000000000000826fffffffffffffffffffffffffffffffff161061237357600080fd5b5090565b600080600061239386866000015161238e886131f1565b61320c565b60008181526201000360205260409020805463ffffffff6c010000000000000000000000008204169550919250906bffffffffffffffffffffffff908116908616111561243c576040517f08c379a000000000000000000000000000000000000000000000000000000000815260206004820152600260248201527f4b4200000000000000000000000000000000000000000000000000000000000060448201526064016101c0565b80546bffffffffffffffffffffffff868116911614925082156124845780547fffffffffffffffffffffffffffff0000000000000000000000000000000000001681556124c2565b80546bffffffffffffffffffffffff808216879003167fffffffffffffffffffffffffffffffffffffffff0000000000000000000000009091161781555b5050935093915050565b8051156124e3576120038260018360200151613237565b6120038260008360400151613237565b6000806125018887866132da565b90506000612510898787613393565b905061251f898989898861307e565b92508115612531576125318988613442565b8015612541576125418987613442565b50509695505050505050565b6000805485516020808801516040808a015181518085018d905273ffffffffffffffffffffffffffffffffffffffff909616868301529315156060860152600291820b608086015292900b60a084015263ffffffff851660c0808501919091528251808503909101815260e0909301825282519281019290922080845262010005909252822080546125fc9067ffffffffffffffff878116916c010000000000000000000000009004166134b4565b81549093506126299074010000000000000000000000000000000000000000900463ffffffff16896134da565b80546bffffffffffffffffffffffff90811690871611156126a6576040517f08c379a000000000000000000000000000000000000000000000000000000000815260206004820152600260248201527f4b4200000000000000000000000000000000000000000000000000000000000060448201526064016101c0565b80546bffffffffffffffffffffffff878116911614156126eb5780547fffffffffffffffff000000000000000000000000000000000000000000000000168155612729565b80546bffffffffffffffffffffffff808216889003167fffffffffffffffffffffffffffffffffffffffff0000000000000000000000009091161781555b505095945050505050565b600080600061274987600001518787876121b8565b9194509250905061277e8761276f6fffffffffffffffffffffffffffffffff8916612343565b61277890614b6a565b836131ae565b5094509492505050565b60008067ffffffffffffffff8316156128265760006127dd6fffffffffffffffffffffffffffffffff80871667ffffffffffffffff87160260301c1671ffffffffffffffffffffffffffffffffffff1661358c565b90506fffffffffffffffffffffffffffffffff8116156128245760008061280488846135bf565b9092509050612813828b61497f565b995061281f818a61497f565b985050505b505b509495939450505050565b600080600061284887876000015161238e896131f1565b60008181526201000460209081526040918290208251606081018452815473ffffffffffffffffffffffffffffffffffffffff8116825263ffffffff74010000000000000000000000000000000000000000820481169483019490945267ffffffffffffffff78010000000000000000000000000000000000000000000000009091041693810193909352929350611b129190889088906135fe16565b60008054845160208087015160408089015181518085018c905273ffffffffffffffffffffffffffffffffffffffff909616868301529315156060860152600291820b608086015292900b60a084015263ffffffff851660c0808501919091528251808503909101815260e0909301825282519281019290922080845262010005909252822080546bffffffffffffffffffffffff1692919067ffffffffffffffff8616156129b75780546129b4906c01000000000000000000000000900467ffffffffffffffff1687614b24565b92505b80547fffffffffffffffff00000000000000000000000000000000000000000000000016905550909590945092505050565b60006129fd84846000015161238e866131f1565b6000818152620100046020526040902080549192509063ffffffff80851674010000000000000000000000000000000000000000909204161015611c0a576040517f08c379a000000000000000000000000000000000000000000000000000000000815260206004820152600260248201527f4b4100000000000000000000000000000000000000000000000000000000000060448201526064016101c0565b6000808360020b8360020b13612ab257600080fd5b7ffffffffffffffffffffffffffffffffffffffffffffffffffffffffffff5d892600285900b1215612ae357600080fd5b620cb14a600284900b1315612af757600080fd5b612b0084611356565b9150612b0b83611356565b90509250929050565b6000826fffffffffffffffffffffffffffffffff16826fffffffffffffffffffffffffffffffff161115612b5457612b4d84838561362d565b90506101c9565b612b4d84848461362d565b600080826fffffffffffffffffffffffffffffffff16846fffffffffffffffffffffffffffffffff1611612b9557838303612b99565b8284035b9050612ba7858260016136ac565b95945050505050565b806fffffffffffffffffffffffffffffffff811681146102a057600080fd5b6000600f85900b1315612bee57612be98685858585613700565b611090565b6000600f85900b12156110905761109085612c0886614b6a565b858585613733565b6fffffffffffffffffffffffffffffffff8116156120035761200382826fffffffffffffffffffffffffffffffff1661375b565b806fffffffffffffffffffffffffffffffff811677ffffffffffffffffffffffffffffffffffffffffffffffff8216146102a057600080fd5b60006fffffffffffffffffffffffffffffffff821677ffffffffffffffffffffffffffffffff0000000000000000604085901b1681612ce5577f4e487b7100000000000000000000000000000000000000000000000000000000600052601260045260246000fd5b049392505050565b60006101c982846000015161238e866131f1565b60004263ffffffff8111156102a05763ffffffff91505090565b612d23612d01565b815474010000000000000000000000000000000000000000900463ffffffff90811691161415612daf576040517f08c379a000000000000000000000000000000000000000000000000000000000815260206004820152600260248201527f4b5400000000000000000000000000000000000000000000000000000000000060448201526064016101c0565b805473ffffffffffffffffffffffffffffffffffffffff16612df55780547fffffffffffffffffffffffff00000000000000000000000000000000000000001660011781555b50565b6003600482901c81168015801592600f85169260028110159291111590604086161515908590612e2e5750612e2e888583613825565b8015612e415750612e4188888585610e0f565b612ea7576040517f08c379a000000000000000000000000000000000000000000000000000000000815260206004820152600260248201527f4b5600000000000000000000000000000000000000000000000000000000000060448201526064016101c0565b5050505050505050565b60008082602001518360400151612ec89190614a73565b905061ffff62ffffff821610610ab657600080fd5b6000612ee985846130ac565b80549091506bffffffffffffffffffffffff16158015612f26575080546c0100000000000000000000000090046bffffffffffffffffffffffff16155b15611c0a578360020b8360020b12612f7e57805477ffffffffffffffffffffffffffffffffffffffffffffffff16780100000000000000000000000000000000000000000000000067ffffffffffffffff8416021781555b611c0a85846138ad565b6000612f9484846130ac565b80549091506bffffffffffffffffffffffff166000612fb38285613935565b83547fffffffffffffffffffffffffffffffffffffffff000000000000000000000000166bffffffffffffffffffffffff91909116179092555050505050565b6000612fff84846130ac565b80549091506c0100000000000000000000000090046bffffffffffffffffffffffff16600061302e8285613935565b83546bffffffffffffffffffffffff9091166c01000000000000000000000000027fffffffffffffffff000000000000000000000000ffffffffffffffffffffffff909116179092555050505050565b60008061308d87868886613956565b9050600061309d88868987613956565b91909103979650505050505050565b600062010002600084846040516020016130d692919091825260020b60e81b602082015260230190565b604051602081830303815290604052805190602001208152602001908152602001600020905092915050565b60006fffffffffffffffffffffffffffffffff8216613122575083610466565b6fffffffffffffffffffffffffffffffff8416613140575081610466565b8267ffffffffffffffff168567ffffffffffffffff161415613163575083610466565b60006131798686613174868261497f565b6139dd565b9050600061318c8585613174818a61497f565b90506131998160016149b3565b6131a48360016149b3565b611f4191906149b3565b80156122c75760408301516131d5906fffffffffffffffffffffffffffffffff1683613a4e565b6fffffffffffffffffffffffffffffffff166040840152505050565b8051600090613204578160400151610ab6565b506020015190565b6000838383604051602001610a7993929190928352901515602083015260020b604082015260600190565b600061324384836130ac565b905082156132885780547fffffffffffffffffffffffffffffffffffffffff00000000000000000000000081166bfffffffffffffffffffffffe9091161781556132d4565b80547fffffffffffffffff000000000000000000000000ffffffffffffffffffffffff81166c01000000000000000000000000918290046bfffffffffffffffffffffffe169091021781555b50505050565b6000806132e785856130ac565b80549091506bffffffffffffffffffffffff1660006133068286613ace565b83547fffffffffffffffffffffffffffffffffffffffff000000000000000000000000166bffffffffffffffffffffffff8216908117855590915015801561336b575082546c0100000000000000000000000090046bffffffffffffffffffffffff16155b156133865761337a8787613ada565b600193505050506101c9565b5060009695505050505050565b6000806133a085856130ac565b80549091506c0100000000000000000000000090046bffffffffffffffffffffffff1660006133cf8286613ace565b83547fffffffffffffffff000000000000000000000000ffffffffffffffffffffffff166c010000000000000000000000006bffffffffffffffffffffffff831690810291909117855590915015801561336b575082546bffffffffffffffffffffffff166133865761337a8787613ada565b620100026000838360405160200161346a92919091825260020b60e81b602082015260230190565b604080517fffffffffffffffffffffffffffffffffffffffffffffffffffffffffffffffe08184030181529181528151602092830120835290820192909252016000908120555050565b6000600267ffffffffffffffff838201811690851611156117d557828403039050610ab6565b6000826134e5612d01565b6134ef9190614b07565b905060ff63ffffffff8216116122c75760008281526201000960205260409020546601000000000000900460ff1663ffffffff821610156122c7576040517f08c379a000000000000000000000000000000000000000000000000000000000815260206004820152600160248201527f4a0000000000000000000000000000000000000000000000000000000000000060448201526064016101c0565b806fffffffffffffffffffffffffffffffff811671ffffffffffffffffffffffffffffffffffff8216146102a057600080fd5b6000806135cc8484613b61565b90925090506100e7846135f06fffffffffffffffffffffffffffffffff8616612343565b6135f990614b6a565b613bb9565b600080825160001461361a57613615858585613bf8565b612337565b5050505060208101516040909101519091565b60008061363a8385614ad6565b905060006136488685612c7d565b77ffffffffffffffffffffffffffffffffffffffffffffffff1690506000856fffffffffffffffffffffffffffffffff16836fffffffffffffffffffffffffffffffff16836136979190614a36565b6136a191906149fd565b9050611f4181612bb0565b6000610466826136c5576136c08585612c7d565b6136e1565b6fffffffffffffffffffffffffffffffff8086169085160260401c5b77ffffffffffffffffffffffffffffffffffffffffffffffff16612bb0565b8015613727576000613713868686613d9d565b905061372186828686613eaf565b50611c0a565b611c0a85858585613efd565b801561374f57613744858585613f2e565b611bfb858484613fe0565b611c0a85858585614005565b60008273ffffffffffffffffffffffffffffffffffffffff168260405160006040518083038185875af1925050503d80600081146137b5576040519150601f19603f3d011682016040523d82523d6000602084013e6137ba565b606091505b50509050806122c7576040517f08c379a000000000000000000000000000000000000000000000000000000000815260206004820152600260248201527f544600000000000000000000000000000000000000000000000000000000000060448201526064016101c0565b6000808460200151856040015161383c9190614a73565b604086015190915062ffffff808316600160ff88161b90911614906000600282900b81126138725761386d82614ba7565b613874565b815b90506000861580613897575062ffffff80831660ff8a1681811c8316901b909116145b9050838015610e02575098975050505050505050565b60006138bb8260020b614048565b60ff166001901b905060006138d28360020b614098565b60ff166001901b9050816201000660006138ec87876140d5565b81526020019081526020016000206000828254179250508190555080620100076000613918878761412b565b815260208101919091526040016000208054909117905550505050565b8082016bffffffffffffffffffffffff8084169082161015610ab657600080fd5b60008061396386866130ac565b90508360020b8560020b13156139aa5780546139a5907801000000000000000000000000000000000000000000000000900467ffffffffffffffff1684614b24565b6139d3565b80547801000000000000000000000000000000000000000000000000900467ffffffffffffffff165b9695505050505050565b6000816fffffffffffffffffffffffffffffffff16836fffffffffffffffffffffffffffffffff168567ffffffffffffffff160281613a45577f4e487b7100000000000000000000000000000000000000000000000000000000600052601260045260246000fd5b04949350505050565b60008082600f0b1215613a9857826fffffffffffffffffffffffffffffffff168260000384039150816fffffffffffffffffffffffffffffffff1610613a9357600080fd5b610ab6565b826fffffffffffffffffffffffffffffffff168284019150816fffffffffffffffffffffffffffffffff161015610ab657600080fd5b60006101c98284614b45565b6000613ae88260020b614048565b60ff166001901b1990506000613b008360020b614098565b60ff166001901b1990506000613b16858561412b565b60008181526201000760205260409020805484169081905590915080611090576000613b4287876140d5565b6000908152620100066020526040902080548616905550505050505050565b6000806000613b74848660600151614162565b8551909150613b9c906fffffffffffffffffffffffffffffffff80841691160260401c611cc9565b9250613baf611cc9828760000151612c7d565b9150509250929050565b6020820151613bda906fffffffffffffffffffffffffffffffff1682613a4e565b6fffffffffffffffffffffffffffffffff1660209092019190915250565b60008083815b8451811015613cac57613ca282868381518110613c44577f4e487b7100000000000000000000000000000000000000000000000000000000600052603260045260246000fd5b60200260200101516040805173ffffffffffffffffffffffffffffffffffffffff939093166020808501919091526bffffffffffffffffffffffff929092168382015280518084038201815260609384019091528051910120901c90565b9150600101613bfe565b50855173ffffffffffffffffffffffffffffffffffffffff828116911614613d30576040517f08c379a000000000000000000000000000000000000000000000000000000000815260206004820152600260248201527f4b5000000000000000000000000000000000000000000000000000000000000060448201526064016101c0565b613d9084600081518110613d6d577f4e487b7100000000000000000000000000000000000000000000000000000000600052603260045260246000fd5b602002602001015163ffffffff604082901c169167ffffffffffffffff90911690565b9250925050935093915050565b6040805173ffffffffffffffffffffffffffffffffffffffff858116602080840191909152908416828401528251808303840181526060909201835281519181019190912060008181526201001090925291812080549192916fffffffffffffffffffffffffffffffff908116908616811115613e7557815486908390600090613e3a9084906fffffffffffffffffffffffffffffffff16614ad6565b92506101000a8154816fffffffffffffffffffffffffffffffff02191690836fffffffffffffffffffffffffffffffff160217905550613ea5565b81547fffffffffffffffffffffffffffffffff00000000000000000000000000000000168255611f418187614ad6565b5050509392505050565b6fffffffffffffffffffffffffffffffff831615613ed857613ed384848484613efd565b6132d4565b73ffffffffffffffffffffffffffffffffffffffff82166132d4576132d48482612c10565b73ffffffffffffffffffffffffffffffffffffffff8216613f2357613ed38484836141b7565b6132d484848461425d565b6040805173ffffffffffffffffffffffffffffffffffffffff85811660208084019190915290841682840152825180830384018152606090920183528151918101919091206000818152620100109092529181208054859290613fa49084906fffffffffffffffffffffffffffffffff1661497f565b92506101000a8154816fffffffffffffffffffffffffffffffff02191690836fffffffffffffffffffffffffffffffff16021790555050505050565b73ffffffffffffffffffffffffffffffffffffffff82166122c7576122c78382612c10565b73ffffffffffffffffffffffffffffffffffffffff821661402b57613ed384848361427b565b6132d48285856fffffffffffffffffffffffffffffffff166142a0565b600061010061405a8360020b60081d90565b60010b81614091577f4e487b7100000000000000000000000000000000000000000000000000000000600052601260045260246000fd5b0792915050565b60006101008260020b81614091577f4e487b7100000000000000000000000000000000000000000000000000000000600052601260045260246000fd5b6000806140e88360020b60020b60101d90565b9050838160405160200161410c92919091825260000b60f81b602082015260210190565b6040516020818303038152906040528051906020012091505092915050565b60008061413e8360020b60020b60081d90565b9050838160405160200161410c92919091825260010b60f01b602082015260220190565b600066010000000000006fffffffffffffffffffffffffffffffff80851667ffffffffffffffff851683010290603082901c90811115612ba7576fffffffffffffffffffffffffffffffff9350505050610ab6565b816fffffffffffffffffffffffffffffffff16816fffffffffffffffffffffffffffffffff161015614245576040517f08c379a000000000000000000000000000000000000000000000000000000000815260206004820152600260248201527f454300000000000000000000000000000000000000000000000000000000000060448201526064016101c0565b60006142518383614ad6565b90506132d48482612c10565b6122c7818430856fffffffffffffffffffffffffffffffff16614409565b6122c783614289838561497f565b6fffffffffffffffffffffffffffffffff1661375b565b6040805173ffffffffffffffffffffffffffffffffffffffff8481166024830152604480830185905283518084039091018152606490920183526020820180517bffffffffffffffffffffffffffffffffffffffffffffffffffffffff167fa9059cbb00000000000000000000000000000000000000000000000000000000179052915160009283929087169161433791906148f7565b6000604051808303816000865af19150503d8060008114614374576040519150601f19603f3d011682016040523d82523d6000602084013e614379565b606091505b50915091508180156143a35750805115806143a35750808060200190518101906143a391906145bd565b611c0a576040517f08c379a000000000000000000000000000000000000000000000000000000000815260206004820152600260248201527f544600000000000000000000000000000000000000000000000000000000000060448201526064016101c0565b6040805173ffffffffffffffffffffffffffffffffffffffff85811660248301528481166044830152606480830185905283518084039091018152608490920183526020820180517bffffffffffffffffffffffffffffffffffffffffffffffffffffffff167f23b872dd0000000000000000000000000000000000000000000000000000000017905291516000928392908816916144a891906148f7565b6000604051808303816000865af19150503d80600081146144e5576040519150601f19603f3d011682016040523d82523d6000602084013e6144ea565b606091505b509150915081801561451457508051158061451457508080602001905181019061451491906145bd565b611090576040517f08c379a000000000000000000000000000000000000000000000000000000000815260206004820152600260248201527f544600000000000000000000000000000000000000000000000000000000000060448201526064016101c0565b8035600281900b81146102a057600080fd5b80516fffffffffffffffffffffffffffffffff811681146102a057600080fd5b803560ff811681146102a057600080fd5b6000602082840312156145ce578081fd5b81516101c981614c59565b600080602083850312156145eb578081fd5b823567ffffffffffffffff80821115614602578283fd5b818501915085601f830112614615578283fd5b813581811115614623578384fd5b866020828501011115614634578384fd5b60209290920196919550909350505050565b60008060408385031215614658578182fd5b6146618361458c565b9150602083015161467181614c59565b809150509250929050565b600080600060608486031215614690578081fd5b6146998461458c565b925060208401516146a981614c59565b60408501519092506146ba81614c59565b809150509250925092565b600080604083850312156146d7578182fd5b82516146e281614c37565b8092505060208084015167ffffffffffffffff80821115614701578384fd5b818601915086601f830112614714578384fd5b81518181111561472657614726614c08565b8060051b9150614737848301614930565b8181528481019084860184860187018b1015614751578788fd5b8795505b8386101561478f57805194506bffffffffffffffffffffffff8516851461477a578788fd5b84835260019590950194918601918601614755565b508096505050505050509250929050565b6000602082840312156147b1578081fd5b815163ffffffff811681146101c9578182fd5b60008060008060008060008060006101208a8c0312156147e2578485fd5b6147eb8a6145ac565b98506020808b01356147fc81614c37565b985060408b013561480c81614c37565b975060608b0135965061482160808c0161457a565b955061482f60a08c0161457a565b945060c08b013561483f81614c59565b935061484d60e08c016145ac565b92506101008b013567ffffffffffffffff8082111561486a578384fd5b818d0191508d601f83011261487d578384fd5b81358181111561488f5761488f614c08565b6148bf847fffffffffffffffffffffffffffffffffffffffffffffffffffffffffffffffe0601f84011601614930565b91508082528e848285010111156148d4578485fd5b808484018584013784848284010152508093505050509295985092959850929598565b60008251815b8181101561491757602081860181015185830152016148fd565b818111156149255782828501525b509190910192915050565b604051601f82017fffffffffffffffffffffffffffffffffffffffffffffffffffffffffffffffe016810167ffffffffffffffff8111828210171561497757614977614c08565b604052919050565b60006fffffffffffffffffffffffffffffffff8083168185168083038211156149aa576149aa614bd9565b01949350505050565b600067ffffffffffffffff8083168185168083038211156149aa576149aa614bd9565b60006bffffffffffffffffffffffff8083168185168083038211156149aa576149aa614bd9565b600082614a31577f4e487b710000000000000000000000000000000000000000000000000000000081526012600452602481fd5b500490565b6000817fffffffffffffffffffffffffffffffffffffffffffffffffffffffffffffffff0483118215151615614a6e57614a6e614bd9565b500290565b60008160020b8360020b828112817fffffffffffffffffffffffffffffffffffffffffffffffffffffffffff80000001831281151615614ab557614ab5614bd9565b81627fffff018313811615614acc57614acc614bd9565b5090039392505050565b60006fffffffffffffffffffffffffffffffff83811690831681811015614aff57614aff614bd9565b039392505050565b600063ffffffff83811690831681811015614aff57614aff614bd9565b600067ffffffffffffffff83811690831681811015614aff57614aff614bd9565b60006bffffffffffffffffffffffff83811690831681811015614aff57614aff614bd9565b600081600f0b7fffffffffffffffffffffffffffffffff80000000000000000000000000000000811415614ba057614ba0614bd9565b9003919050565b60008160020b7fffffffffffffffffffffffffffffffffffffffffffffffffffffffffff800000811415614ba057614ba05b7f4e487b7100000000000000000000000000000000000000000000000000000000600052601160045260246000fd5b7f4e487b7100000000000000000000000000000000000000000000000000000000600052604160045260246000fd5b73ffffffffffffffffffffffffffffffffffffffff81168114612df557600080fd5b8015158114612df557600080fdfea2646970667358221220cc0618a52a375b00093b6e73c3947cc2afbfb163b44af6d0272dcf75e0d5478964736f6c63430008040033",
  "linkReferences": {},
  "deployedLinkReferences": {}
}