{
  "_format": "hh-sol-artifact-1",
  "contractName": "MicroPaths",
  "sourceName": "contracts/callpaths/MicroPaths.sol",
  "abi": [
    {
      "anonymous": false,
      "inputs": [
        {
          "indexed": true,
          "internalType": "bytes32",
          "name": "pool",
          "type": "bytes32"
        },
        {
          "indexed": true,
          "internalType": "int24",
          "name": "tick",
          "type": "int24"
        },
        {
          "indexed": false,
          "internalType": "bool",
          "name": "isBid",
          "type": "bool"
        },
        {
          "indexed": false,
          "internalType": "uint32",
          "name": "pivotTime",
          "type": "uint32"
        },
        {
          "indexed": false,
          "internalType": "uint64",
          "name": "feeMileage",
          "type": "uint64"
        }
      ],
      "name": "CrocKnockoutCross",
      "type": "event"
    },
    {
      "inputs": [
        {
          "internalType": "uint128",
          "name": "price",
          "type": "uint128"
        },
        {
          "internalType": "uint128",
          "name": "seed",
          "type": "uint128"
        },
        {
          "internalType": "uint128",
          "name": "conc",
          "type": "uint128"
        },
        {
          "internalType": "uint64",
          "name": "seedGrowth",
          "type": "uint64"
        },
        {
          "internalType": "uint64",
          "name": "concGrowth",
          "type": "uint64"
        },
        {
          "internalType": "uint128",
          "name": "liq",
          "type": "uint128"
        },
        {
          "internalType": "bytes32",
          "name": "poolHash",
          "type": "bytes32"
        }
      ],
      "name": "burnAmbient",
      "outputs": [
        {
          "internalType": "int128",
          "name": "baseFlow",
          "type": "int128"
        },
        {
          "internalType": "int128",
          "name": "quoteFlow",
          "type": "int128"
        },
        {
          "internalType": "uint128",
          "name": "seedOut",
          "type": "uint128"
        }
      ],
      "stateMutability": "payable",
      "type": "function"
    },
    {
      "inputs": [
        {
          "internalType": "uint128",
          "name": "price",
          "type": "uint128"
        },
        {
          "internalType": "int24",
          "name": "priceTick",
          "type": "int24"
        },
        {
          "internalType": "uint128",
          "name": "seed",
          "type": "uint128"
        },
        {
          "internalType": "uint128",
          "name": "conc",
          "type": "uint128"
        },
        {
          "internalType": "uint64",
          "name": "seedGrowth",
          "type": "uint64"
        },
        {
          "internalType": "uint64",
          "name": "concGrowth",
          "type": "uint64"
        },
        {
          "internalType": "int24",
          "name": "lowTick",
          "type": "int24"
        },
        {
          "internalType": "int24",
          "name": "highTick",
          "type": "int24"
        },
        {
          "internalType": "uint128",
          "name": "liq",
          "type": "uint128"
        },
        {
          "internalType": "bytes32",
          "name": "poolHash",
          "type": "bytes32"
        }
      ],
      "name": "burnRange",
      "outputs": [
        {
          "internalType": "int128",
          "name": "baseFlow",
          "type": "int128"
        },
        {
          "internalType": "int128",
          "name": "quoteFlow",
          "type": "int128"
        },
        {
          "internalType": "uint128",
          "name": "seedOut",
          "type": "uint128"
        },
        {
          "internalType": "uint128",
          "name": "concOut",
          "type": "uint128"
        }
      ],
      "stateMutability": "payable",
      "type": "function"
    },
    {
      "inputs": [
        {
          "internalType": "uint128",
          "name": "price",
          "type": "uint128"
        },
        {
          "internalType": "uint128",
          "name": "seed",
          "type": "uint128"
        },
        {
          "internalType": "uint128",
          "name": "conc",
          "type": "uint128"
        },
        {
          "internalType": "uint64",
          "name": "seedGrowth",
          "type": "uint64"
        },
        {
          "internalType": "uint64",
          "name": "concGrowth",
          "type": "uint64"
        },
        {
          "internalType": "uint128",
          "name": "liq",
          "type": "uint128"
        },
        {
          "internalType": "bytes32",
          "name": "poolHash",
          "type": "bytes32"
        }
      ],
      "name": "mintAmbient",
      "outputs": [
        {
          "internalType": "int128",
          "name": "baseFlow",
          "type": "int128"
        },
        {
          "internalType": "int128",
          "name": "quoteFlow",
          "type": "int128"
        },
        {
          "internalType": "uint128",
          "name": "seedOut",
          "type": "uint128"
        }
      ],
      "stateMutability": "payable",
      "type": "function"
    },
    {
      "inputs": [
        {
          "internalType": "uint128",
          "name": "price",
          "type": "uint128"
        },
        {
          "internalType": "int24",
          "name": "priceTick",
          "type": "int24"
        },
        {
          "internalType": "uint128",
          "name": "seed",
          "type": "uint128"
        },
        {
          "internalType": "uint128",
          "name": "conc",
          "type": "uint128"
        },
        {
          "internalType": "uint64",
          "name": "seedGrowth",
          "type": "uint64"
        },
        {
          "internalType": "uint64",
          "name": "concGrowth",
          "type": "uint64"
        },
        {
          "internalType": "int24",
          "name": "lowTick",
          "type": "int24"
        },
        {
          "internalType": "int24",
          "name": "highTick",
          "type": "int24"
        },
        {
          "internalType": "uint128",
          "name": "liq",
          "type": "uint128"
        },
        {
          "internalType": "bytes32",
          "name": "poolHash",
          "type": "bytes32"
        }
      ],
      "name": "mintRange",
      "outputs": [
        {
          "internalType": "int128",
          "name": "baseFlow",
          "type": "int128"
        },
        {
          "internalType": "int128",
          "name": "quoteFlow",
          "type": "int128"
        },
        {
          "internalType": "uint128",
          "name": "seedOut",
          "type": "uint128"
        },
        {
          "internalType": "uint128",
          "name": "concOut",
          "type": "uint128"
        }
      ],
      "stateMutability": "payable",
      "type": "function"
    },
    {
      "inputs": [
        {
          "components": [
            {
              "internalType": "uint128",
              "name": "priceRoot_",
              "type": "uint128"
            },
            {
              "internalType": "uint128",
              "name": "ambientSeeds_",
              "type": "uint128"
            },
            {
              "internalType": "uint128",
              "name": "concLiq_",
              "type": "uint128"
            },
            {
              "internalType": "uint64",
              "name": "seedDeflator_",
              "type": "uint64"
            },
            {
              "internalType": "uint64",
              "name": "concGrowth_",
              "type": "uint64"
            }
          ],
          "internalType": "struct CurveMath.CurveState",
          "name": "curve",
          "type": "tuple"
        },
        {
          "internalType": "int24",
          "name": "midTick",
          "type": "int24"
        },
        {
          "components": [
            {
              "internalType": "bool",
              "name": "isBuy_",
              "type": "bool"
            },
            {
              "internalType": "bool",
              "name": "inBaseQty_",
              "type": "bool"
            },
            {
              "internalType": "uint8",
              "name": "rollType_",
              "type": "uint8"
            },
            {
              "internalType": "uint128",
              "name": "qty_",
              "type": "uint128"
            },
            {
              "internalType": "uint128",
              "name": "limitPrice_",
              "type": "uint128"
            }
          ],
          "internalType": "struct Directives.SwapDirective",
          "name": "swap",
          "type": "tuple"
        },
        {
          "components": [
            {
              "components": [
                {
                  "internalType": "uint8",
                  "name": "schema_",
                  "type": "uint8"
                },
                {
                  "internalType": "uint16",
                  "name": "feeRate_",
                  "type": "uint16"
                },
                {
                  "internalType": "uint8",
                  "name": "protocolTake_",
                  "type": "uint8"
                },
                {
                  "internalType": "uint16",
                  "name": "tickSize_",
                  "type": "uint16"
                },
                {
                  "internalType": "uint8",
                  "name": "jitThresh_",
                  "type": "uint8"
                },
                {
                  "internalType": "uint8",
                  "name": "knockoutBits_",
                  "type": "uint8"
                },
                {
                  "internalType": "uint8",
                  "name": "oracleFlags_",
                  "type": "uint8"
                }
              ],
              "internalType": "struct PoolSpecs.Pool",
              "name": "head_",
              "type": "tuple"
            },
            {
              "internalType": "bytes32",
              "name": "hash_",
              "type": "bytes32"
            },
            {
              "internalType": "address",
              "name": "oracle_",
              "type": "address"
            }
          ],
          "internalType": "struct PoolSpecs.PoolCursor",
          "name": "pool",
          "type": "tuple"
        }
      ],
      "name": "sweepSwap",
      "outputs": [
        {
          "components": [
            {
              "internalType": "int128",
              "name": "baseFlow_",
              "type": "int128"
            },
            {
              "internalType": "int128",
              "name": "quoteFlow_",
              "type": "int128"
            },
            {
              "internalType": "uint128",
              "name": "baseProto_",
              "type": "uint128"
            },
            {
              "internalType": "uint128",
              "name": "quoteProto_",
              "type": "uint128"
            }
          ],
          "internalType": "struct Chaining.PairFlow",
          "name": "accum",
          "type": "tuple"
        },
        {
          "internalType": "uint128",
          "name": "priceOut",
          "type": "uint128"
        },
        {
          "internalType": "uint128",
          "name": "seedOut",
          "type": "uint128"
        },
        {
          "internalType": "uint128",
          "name": "concOut",
          "type": "uint128"
        },
        {
          "internalType": "uint64",
          "name": "ambientOut",
          "type": "uint64"
        },
        {
          "internalType": "uint64",
          "name": "concGrowthOut",
          "type": "uint64"
        }
      ],
      "stateMutability": "payable",
      "type": "function"
    },
    {
      "anonymous": false,
      "inputs": [
        {
          "indexed": false,
          "internalType": "bytes",
          "name": "input",
          "type": "bytes"
        },
        {
          "indexed": false,
          "internalType": "bytes",
          "name": "output",
          "type": "bytes"
        }
      ],
      "name": "CrocMicroBurnAmbient",
      "type": "event"
    },
    {
      "anonymous": false,
      "inputs": [
        {
          "indexed": false,
          "internalType": "bytes",
          "name": "input",
          "type": "bytes"
        },
        {
          "indexed": false,
          "internalType": "bytes",
          "name": "output",
          "type": "bytes"
        }
      ],
      "name": "CrocMicroBurnRange",
      "type": "event"
    },
    {
      "anonymous": false,
      "inputs": [
        {
          "indexed": false,
          "internalType": "bytes",
          "name": "input",
          "type": "bytes"
        },
        {
          "indexed": false,
          "internalType": "bytes",
          "name": "output",
          "type": "bytes"
        }
      ],
      "name": "CrocMicroMintAmbient",
      "type": "event"
    },
    {
      "anonymous": false,
      "inputs": [
        {
          "indexed": false,
          "internalType": "bytes",
          "name": "input",
          "type": "bytes"
        },
        {
          "indexed": false,
          "internalType": "bytes",
          "name": "output",
          "type": "bytes"
        }
      ],
      "name": "CrocMicroMintRange",
      "type": "event"
    },
    {
      "anonymous": false,
      "inputs": [
        {
          "indexed": false,
          "internalType": "bytes",
          "name": "input",
          "type": "bytes"
        },
        {
          "indexed": false,
          "internalType": "bytes",
          "name": "output",
          "type": "bytes"
        }
      ],
      "name": "CrocMicroSwap",
      "type": "event"
    }
  ],
  "bytecode": "0x608060405234801561001057600080fd5b506154d4806100206000396000f3fe60806040526004361061005a5760003560e01c80632ee11587116100435780632ee11587146100fe5780637b370fc2146101115780637c6dfe3d146101a457600080fd5b80632370632b1461005f5780632a6f0864146100b6575b600080fd5b61007261006d366004614f51565b6101b7565b60408051600f95860b81529390940b60208401526fffffffffffffffffffffffffffffffff9182169383019390935290911660608201526080015b60405180910390f35b6100c96100c4366004615003565b61030e565b60408051600f94850b81529290930b60208301526fffffffffffffffffffffffffffffffff16918101919091526060016100ad565b6100c961010c366004615003565b61039f565b61012461011f366004614e1a565b610418565b604080518751600f90810b82526020808a015190910b90820152878201516fffffffffffffffffffffffffffffffff90811692820192909252606097880151821697810197909752948516608087015292841660a0860152921660c084015267ffffffffffffffff91821660e084015216610100820152610120016100ad565b6100726101b2366004614f51565b610477565b6040805160a08101825260008082526020820181905291810182905260608101829052608081018290528190819081908e81600001906fffffffffffffffffffffffffffffffff1690816fffffffffffffffffffffffffffffffff16815250508c81602001906fffffffffffffffffffffffffffffffff1690816fffffffffffffffffffffffffffffffff16815250508b81604001906fffffffffffffffffffffffffffffffff1690816fffffffffffffffffffffffffffffffff16815250508a816060019067ffffffffffffffff16908167ffffffffffffffff168152505089816080019067ffffffffffffffff16908167ffffffffffffffff16815250506102e6818f8b8b8b8b60008054906101000a900473ffffffffffffffffffffffffffffffffffffffff166105a6565b80955081965050508060400151915080602001519250509a509a509a509a9650505050505050565b6040805160a0810182526fffffffffffffffffffffffffffffffff8981168252888116602083015287169181019190915267ffffffffffffffff85811660608301528416608082015260008054909182918291906103879082908890889073ffffffffffffffffffffffffffffffffffffffff16610625565b602090920151909c919b509950975050505050505050565b6040805160a0810182526fffffffffffffffffffffffffffffffff8981168252888116602083015287169181019190915267ffffffffffffffff85811660608301528416608082015260008054909182918291906103879082908890889073ffffffffffffffffffffffffffffffffffffffff16610678565b6040805160808101825260008082526020820181905291810182905260608101829052908080808061044d868b8b8b8b6106ca565b50508751602089015160408a015160608b01516080909b0151969b929a9199509750955092505050565b6040805160a08101825260008082526020820181905291810182905260608101829052608081018290528190819081908e81600001906fffffffffffffffffffffffffffffffff1690816fffffffffffffffffffffffffffffffff16815250508c81602001906fffffffffffffffffffffffffffffffff1690816fffffffffffffffffffffffffffffffff16815250508b81604001906fffffffffffffffffffffffffffffffff1690816fffffffffffffffffffffffffffffffff16815250508a816060019067ffffffffffffffff16908167ffffffffffffffff168152505089816080019067ffffffffffffffff16908167ffffffffffffffff16815250506102e6818f8b8b8b8b60008054906101000a900473ffffffffffffffffffffffffffffffffffffffff1661081a565b60008060006105d7858a8a8a6105cd8b6fffffffffffffffffffffffffffffffff1661089f565b8f60800151610975565b90506105e784868a8a8a866109bd565b6105f58589898985896109e1565b6000806106048c898c8c610b54565b915091506106128282610b88565b909d909c509a5050505050505050505050565b600080600061063a8486888a60600151610bcd565b905061064c8582896060015187610cbf565b6000806106598984610cd4565b915091506106678282610d13565b945094505050505b94509492505050565b600080600061068d8486888a60600151610d5e565b905061069f8582896060015187610e3b565b6000806106ac8984610e4a565b915091506106ba8282610b88565b909a909950975050505050505050565b60808201518451835115156fffffffffffffffffffffffffffffffff92831691909216101461075a576040517f08c379a000000000000000000000000000000000000000000000000000000000815260206004820152600260248201527f534400000000000000000000000000000000000000000000000000000000000060448201526064015b60405180910390fd5b60015b8015610812576000806107798460200151866000015188610e81565b855191935091506107909088908a90889086610ed3565b61079a8786610f73565b9250821561080b5780156107f15760006107bd8560200151848860000151611012565b92839150600282810b91900b14806107ee5785516107e1908a908c908a9088610ed3565b6107eb8988610f73565b94505b50505b821561080b57610808888389888860200151611082565b95505b505061075d565b505050505050565b600080600061084b858a8a8a6108418b6fffffffffffffffffffffffffffffffff1661089f565b8f6080015161111f565b9050600061085d85878b8b8b87611179565b905061086d868a8a8a868a6111d0565b60008061087d8d8a858e8e61128c565b9150915061088b8282610d13565b955095505050505097509795505050505050565b6000600a82901c6e3fffffffffffffffffffffffffffff8116906ffffffffffffffffffffffffffffffc00841690600116158080156108ef5750846fffffffffffffffffffffffffffffffff1682145b801561090657506bffffffffffffffffffffffff83105b61096c576040517f08c379a000000000000000000000000000000000000000000000000000000000815260206004820152600260248201527f46440000000000000000000000000000000000000000000000000000000000006044820152606401610751565b50909392505050565b6000610983878787856112bb565b61098f878786856112bb565b61099a87868561136d565b6109a58785856113d8565b6109b28787878786611463565b979650505050505050565b60006109cb87878787611491565b90506109d8818484611516565b50505050505050565b60005473ffffffffffffffffffffffffffffffffffffffff82811691161461081257600080546040517f0f382c0e00000000000000000000000000000000000000000000000000000000815273ffffffffffffffffffffffffffffffffffffffff918216600482015260248101899052600288810b604483015287900b60648201526fffffffffffffffffffffffffffffffff8616608482015267ffffffffffffffff851660a482015290831690630f382c0e9060c4015b602060405180830381600087803b158015610ab357600080fd5b505af1158015610ac7573d6000803e3d6000fd5b505050506040513d601f19601f82011682018060405250810190610aeb9190614ddd565b9050806109d8576040517f08c379a000000000000000000000000000000000000000000000000000000000815260206004820152600260248201527f4c500000000000000000000000000000000000000000000000000000000000006044820152606401610751565b6000806000806000610b6c8960000151898989611654565b925092509250610b7d898983611758565b610667838383611768565b600080610ba6846fffffffffffffffffffffffffffffffff166117e0565b610bc1846fffffffffffffffffffffffffffffffff166117e0565b915091505b9250929050565b600080610bda8686611814565b9050610bf86fffffffffffffffffffffffffffffffff85168461183c565b81549092506fffffffffffffffffffffffffffffffff90811690831610610c595780547fffffffffffffffffffffffff0000000000000000000000000000000000000000811682556fffffffffffffffffffffffffffffffff169150610cb6565b805482908290600090610c7f9084906fffffffffffffffffffffffffffffffff16615395565b92506101000a8154816fffffffffffffffffffffffffffffffff02191690836fffffffffffffffffffffffffffffffff1602179055505b50949350505050565b610cce846000808686866111d0565b50505050565b600080610ce184846118ab565b9092509050610bc684610d056fffffffffffffffffffffffffffffffff86166117e0565b610d0e90615421565b61191e565b600080610d31846fffffffffffffffffffffffffffffffff166117e0565b610d3a90615421565b610d55846fffffffffffffffffffffffffffffffff166117e0565b610bc190615421565b600080610d6b8686611814565b9050610d896fffffffffffffffffffffffffffffffff85168461183c565b8154909250610daa906fffffffffffffffffffffffffffffffff168361195d565b81547fffffffffffffffffffffffffffffffff00000000000000000000000000000000166fffffffffffffffffffffffffffffffff91909116178155610dee611982565b815463ffffffff91909116700100000000000000000000000000000000027fffffffffffffffffffffffff00000000ffffffffffffffffffffffffffffffff909116179055949350505050565b610cce846000808686866109e1565b600080600080610e5a86866118ab565b91509150610e6886866119a1565b610e7482826001611768565b9350935050509250929050565b6000806000610e9086856119c4565b90506000610ea2600286900b876119ea565b90506000610eb68660020b60020b60081d90565b9050610ec487838386611a26565b90999098509650505050505050565b6000610ee88285608001518660000151611a78565b90506000806000610f04898860600151888a6020015188611af3565b60208a01519295509093509150610f1f908990858585611b3f565b610f3889886020015189600001518a6060015188611baa565b6fffffffffffffffffffffffffffffffff1660608a015260208901519194509250610f6890899085856000611b3f565b505050505050505050565b6000808260000151610fb35782608001516fffffffffffffffffffffffffffffffff1684600001516fffffffffffffffffffffffffffffffff1611610fe3565b82608001516fffffffffffffffffffffffffffffffff1684600001516fffffffffffffffffffffffffffffffff16105b90508080156110085750600083606001516fffffffffffffffffffffffffffffffff16115b9150505b92915050565b60008060006110218585611c2c565b9150915060008061103488858589611c64565b91509150806110485750925061107b915050565b61105488858589611cd0565b9092509050806110695750925061107b915050565b611074888588611d4d565b9450505050505b9392505050565b600061108d85611d6d565b611098575083611116565b6110a88486856000015185611dac565b60008060006110d08660200151876000015188606001518a611e42909392919063ffffffff16565b919450925090506110e2898484611f1d565b6060860180518290036fffffffffffffffffffffffffffffffff169052855161110e5760018803611110565b875b93505050505b95945050505050565b60008061112d888786611f5c565b9050600061113c898787612015565b905061114b8989898988611463565b9250811561115d5761115d89886120c4565b801561116d5761116d89876120c4565b50509695505050505050565b60008061118888888888611491565b80549091506111b9907801000000000000000000000000000000000000000000000000900463ffffffff1688612136565b6111c48185856121e8565b98975050505050505050565b60005473ffffffffffffffffffffffffffffffffffffffff82811691161461081257600080546040517f9534070300000000000000000000000000000000000000000000000000000000815273ffffffffffffffffffffffffffffffffffffffff918216600482015260248101899052600288810b604483015287900b60648201526fffffffffffffffffffffffffffffffff8616608482015267ffffffffffffffff851660a48201529083169063953407039060c401610a99565b60008061129b8787868661234f565b90925090506112ad82828989896123a3565b909890975095505050505050565b60006112c7858461244c565b80549091506bffffffffffffffffffffffff16158015611304575080546c0100000000000000000000000090046bffffffffffffffffffffffff16155b15611366578360020b8360020b1261135c57805477ffffffffffffffffffffffffffffffffffffffffffffffff16780100000000000000000000000000000000000000000000000067ffffffffffffffff8416021781555b61136685846124a2565b5050505050565b6000611379848461244c565b80549091506bffffffffffffffffffffffff166000611398828561252a565b83547fffffffffffffffffffffffffffffffffffffffff000000000000000000000000166bffffffffffffffffffffffff91909116179092555050505050565b60006113e4848461244c565b80549091506c0100000000000000000000000090046bffffffffffffffffffffffff166000611413828561252a565b83546bffffffffffffffffffffffff9091166c01000000000000000000000000027fffffffffffffffff000000000000000000000000ffffffffffffffffffffffff909116179092555050505050565b6000806114728786888661254b565b905060006114828886898761254b565b91909103979650505050505050565b60408051606086901b7fffffffffffffffffffffffffffffffffffffffff0000000000000000000000001660208083019190915260348201869052600285810b60e890811b60548501529085900b901b60578301528251603a818403018152605a909201835281519181019190912060009081526201000d909152205b949350505050565b82546fffffffffffffffffffffffffffffffff166000811561155857508354700100000000000000000000000000000000900467ffffffffffffffff1661155c565b5060005b600061157a6fffffffffffffffffffffffffffffffff84168661195d565b9050600061159467ffffffffffffffff86168785876125d2565b905060006115a0611982565b885463ffffffff9091167801000000000000000000000000000000000000000000000000027fffffffff00000000ffffffffffffffffffffffffffffffffffffffffffffffff67ffffffffffffffff909416700100000000000000000000000000000000027fffffffffffffffff0000000000000000000000000000000000000000000000009092166fffffffffffffffffffffffffffffffff909516949094171791909116919091179095555050505050565b6000806000806000611666878761267e565b91509150816fffffffffffffffffffffffffffffffff16896fffffffffffffffffffffffffffffffff1610156116ba576116b36fffffffffffffffffffffffffffffffff891683836126f5565b935061174c565b806fffffffffffffffffffffffffffffffff16896fffffffffffffffffffffffffffffffff1610611709576117026fffffffffffffffffffffffffffffffff89168383612740565b945061174c565b6117266fffffffffffffffffffffffffffffffff89168a836126f5565b93506117456fffffffffffffffffffffffffffffffff8916838b612740565b9450600192505b50509450945094915050565b611763838383612788565b505050565b6000806000856fffffffffffffffffffffffffffffffff1611806117895750825b61179457600061179f565b61179f600486615265565b6000856fffffffffffffffffffffffffffffffff1611806117bd5750835b6117c85760006117d3565b6117d3600486615265565b915091505b935093915050565b60006f80000000000000000000000000000000826fffffffffffffffffffffffffffffffff161061181057600080fd5b5090565b60006201000e600061182685856127cb565b8152602001908152602001600020905092915050565b600066010000000000006fffffffffffffffffffff000000000000603085901b168267ffffffffffffffff8516830182816118a0577f4e487b7100000000000000000000000000000000000000000000000000000000600052601260045260246000fd5b049695505050505050565b60008060006118be848660600151612826565b8551909150611901906fffffffffffffffffffffffffffffffff80841691160260401c5b77ffffffffffffffffffffffffffffffffffffffffffffffff1661287b565b92506119146118e28287600001516128b4565b9150509250929050565b602082015161193f906fffffffffffffffffffffffffffffffff1682612924565b6fffffffffffffffffffffffffffffffff1660209092019190915250565b8082016fffffffffffffffffffffffffffffffff808416908216101561100c57600080fd5b60004263ffffffff81111561199c5763ffffffff91505090565b919050565b6119c082610d0e836fffffffffffffffffffffffffffffffff166117e0565b5050565b6000806119d184846129a4565b6000908152620100076020526040902054949350505050565b6000806119f6846129fa565b9050600083611a06576000611a09565b60015b60ff16905080611a198386612a3e565b60ff160195945050505050565b6000808080611a3685888a612a55565b91509150611a45888287612a93565b925082611a6157600186900b60020b60081b60ff831601611a6b565b611a6b8887612ac6565b9350505094509492505050565b600080611a86858585612b33565b9050620100026fffffffffffffffffffffffffffffffff82161015611ab1576201000291505061107b565b6f0ffff5433e2b3d8211706e6102aa94726fffffffffffffffffffffffffffffffff82161061150e57506f0ffff5433e2b3d8211706e6102aa9471905061107b565b6000806000806000611b118a8a8a602001518b604001518b8b612c0a565b9092509050611b218a8389612c51565b611b2c828289612cc1565b9450945094505050955095509592505050565b611b4a858484611f1d565b8315611b7c578085606001818151611b629190615265565b6fffffffffffffffffffffffffffffffff16905250611366565b8085604001818151611b8e9190615265565b6fffffffffffffffffffffffffffffffff169052505050505050565b6000808080611bbb89878a88612d19565b90506fffffffffffffffffffffffffffffffff808716908216108015611bff57611be88a878b8b8b612d64565b91965094509250611bfa8a8488612db2565b611c1f565b611c0c8a838b8b8b612e41565b91965094509250611c1f8a848a89612e7b565b5050955095509592505050565b600080600083611c4657611c41600186615332565b611c48565b845b9050611c568160020b612f40565b92506119148160020b612f57565b6000806000620100076000611c7a898989612fa0565b81526020810191909152604001600090812054915080611c9b838288612a55565b915091508015611cb557600060019450945050505061066f565b611cc0888884613004565b9960009950975050505050505050565b6000806000620100066000611ce58989613034565b81526020019081526020016000205490506000611d028686612a3e565b9050600080611d158460ff851689612a55565b915091508015611d305760006001955095505050505061066f565b611d3c8a8a848a611c64565b955095505050505094509492505050565b600081611d6357611d5e8484613048565b61150e565b61150e84846130d4565b60007fffffffffffffffffffffffffffffffffffffffffffffffffffffffffff800000600283900b13801561100c575050627fffff60029190910b1290565b600080611dbf838686896080015161311e565b60408801519193509150611de5906fffffffffffffffffffffffffffffffff1683612924565b6fffffffffffffffffffffffffffffffff1660408701528015610812576000611e148487878a6080015161325d565b6040880151909150611e38906fffffffffffffffffffffffffffffffff1682612924565b5050505050505050565b600080600080611e5c611e54896133b9565b8951896133de565b9050806fffffffffffffffffffffffffffffffff16856fffffffffffffffffffffffffffffffff1611611eeb576040517f08c379a000000000000000000000000000000000000000000000000000000000815260206004820152600260248201527f42440000000000000000000000000000000000000000000000000000000000006044820152606401610751565b8515611f0857611efc88888361347d565b93509350935050611f13565b611efc888883613519565b9450945094915050565b8183600001818151611f2f919061519e565b600f90810b900b905250602083018051829190611f4d90839061519e565b600f90810b900b905250505050565b600080611f69858561244c565b80549091506bffffffffffffffffffffffff166000611f8882866135b4565b83547fffffffffffffffffffffffffffffffffffffffff000000000000000000000000166bffffffffffffffffffffffff82169081178555909150158015611fed575082546c0100000000000000000000000090046bffffffffffffffffffffffff16155b1561200857611ffc87876135c0565b6001935050505061107b565b5060009695505050505050565b600080612022858561244c565b80549091506c0100000000000000000000000090046bffffffffffffffffffffffff16600061205182866135b4565b83547fffffffffffffffff000000000000000000000000ffffffffffffffffffffffff166c010000000000000000000000006bffffffffffffffffffffffff8316908102919091178555909150158015611fed575082546bffffffffffffffffffffffff1661200857611ffc87876135c0565b62010002600083836040516020016120ec92919091825260020b60e81b602082015260230190565b604080517fffffffffffffffffffffffffffffffffffffffffffffffffffffffffffffffe08184030181529181528151602092830120835290820192909252016000908120555050565b600082612141611982565b61214b91906153be565b905060ff63ffffffff8216116117635760008281526201000960205260409020546601000000000000900460ff1663ffffffff82161015611763576040517f08c379a000000000000000000000000000000000000000000000000000000000815260206004820152600160248201527f4a000000000000000000000000000000000000000000000000000000000000006044820152606401610751565b82546000906fffffffffffffffffffffffffffffffff168161220a8286613647565b865490915061223a9067ffffffffffffffff86811691700100000000000000000000000000000000900416613653565b92506fffffffffffffffffffffffffffffffff81161561231f5785547c0100000000000000000000000000000000000000000000000000000000900460ff16156122e0576040517f08c379a000000000000000000000000000000000000000000000000000000000815260206004820152600260248201527f4f520000000000000000000000000000000000000000000000000000000000006044820152606401610751565b85547fffffffffffffffffffffffffffffffff00000000000000000000000000000000166fffffffffffffffffffffffffffffffff8216178655612346565b85547fffffff00000000000000000000000000000000000000000000000000000000001686555b50509392505050565b60008060006123648760000151878787611654565b919450925090506123998761238a6fffffffffffffffffffffffffffffffff89166117e0565b61239390615421565b83612788565b5094509492505050565b60008067ffffffffffffffff8316156124415760006123f86fffffffffffffffffffffffffffffffff80871667ffffffffffffffff87160260301c1671ffffffffffffffffffffffffffffffffffff166136a9565b90506fffffffffffffffffffffffffffffffff81161561243f5760008061241f8884610cd4565b909250905061242e828b615265565b995061243a818a615265565b985050505b505b509495939450505050565b6000620100026000848460405160200161247692919091825260020b60e81b602082015260230190565b604051602081830303815290604052805190602001208152602001908152602001600020905092915050565b60006124b08260020b612f57565b60ff166001901b905060006124c78360020b6129fa565b60ff166001901b9050816201000660006124e187876136dc565b8152602001908152602001600020600082825417925050819055508062010007600061250d87876129a4565b815260208101919091526040016000208054909117905550505050565b8082016bffffffffffffffffffffffff808416908216101561100c57600080fd5b600080612558868661244c565b90508360020b8560020b131561259f57805461259a907801000000000000000000000000000000000000000000000000900467ffffffffffffffff16846153db565b6125c8565b80547801000000000000000000000000000000000000000000000000900467ffffffffffffffff165b9695505050505050565b60006fffffffffffffffffffffffffffffffff82166125f257508361150e565b6fffffffffffffffffffffffffffffffff841661261057508161150e565b8267ffffffffffffffff168567ffffffffffffffff16141561263357508361150e565b600061264986866126448682615265565b613713565b9050600061265c8585612644818a615265565b9050612669816001615299565b612674836001615299565b6109b29190615299565b6000808360020b8360020b1361269357600080fd5b7ffffffffffffffffffffffffffffffffffffffffffffffffffffffffffff5d892600285900b12156126c457600080fd5b620cb14a600284900b13156126d857600080fd5b6126e184613784565b91506126ec83613784565b90509250929050565b6000826fffffffffffffffffffffffffffffffff16826fffffffffffffffffffffffffffffffff1611156127355761272e848385613b1a565b905061107b565b61272e848484613b1a565b600080826fffffffffffffffffffffffffffffffff16846fffffffffffffffffffffffffffffffff16116127765783830361277a565b8284035b905061111685826001613b99565b80156117635760408301516127af906fffffffffffffffffffffffffffffffff1683612924565b6fffffffffffffffffffffffffffffffff166040840152505050565b6040517fffffffffffffffffffffffffffffffffffffffff000000000000000000000000606084901b166020820152603481018290526000906054015b60405160208183030381529060405280519060200120905092915050565b600066010000000000006fffffffffffffffffffffffffffffffff80851667ffffffffffffffff851683010290603082901c90811115611116576fffffffffffffffffffffffffffffffff935050505061100c565b806fffffffffffffffffffffffffffffffff811677ffffffffffffffffffffffffffffffffffffffffffffffff82161461199c57600080fd5b60006fffffffffffffffffffffffffffffffff821677ffffffffffffffffffffffffffffffff0000000000000000604085901b168161291c577f4e487b7100000000000000000000000000000000000000000000000000000000600052601260045260246000fd5b049392505050565b60008082600f0b121561296e57826fffffffffffffffffffffffffffffffff168260000384039150816fffffffffffffffffffffffffffffffff161061296957600080fd5b61100c565b826fffffffffffffffffffffffffffffffff168284019150816fffffffffffffffffffffffffffffffff16101561100c57600080fd5b6000806129b78360020b60020b60081d90565b905083816040516020016129db92919091825260010b60f01b602082015260220190565b6040516020818303038152906040528051906020012091505092915050565b60006101008260020b81612a37577f4e487b7100000000000000000000000000000000000000000000000000000000600052601260045260246000fd5b0792915050565b600081612a4e578260ff0361107b565b5090919050565b600080612a63858585613bed565b9450508315806117d85782612a8057612a7b85613c11565b612a89565b612a8985613cbe565b9150935093915050565b60008315612aa257508161107b565b6000612aae8382613ea1565b905080612abb5783611116565b506000949350505050565b60008215612b2357612ad783613ed4565b60010b8260010b14612b1357612b0e612af183600161520d565b612afb8515613f0a565b60ff1660019190910b60020b60081b0190565b612b1c565b612b1c83613f20565b905061100c565b600182900b60020b60081b612b1c565b60007ffffffffffffffffffffffffffffffffffffffffffffffffffffffffffff5d892600285900b131580612b6f5750620cb14a600285900b12155b15612b7b57508161107b565b8115612bcc5760006001612b8e86613784565b039050836fffffffffffffffffffffffffffffffff16816fffffffffffffffffffffffffffffffff1610612bc25783612bc4565b805b91505061107b565b6000612bd785613784565b9050836fffffffffffffffffffffffffffffffff16816fffffffffffffffffffffffffffffffff1611612bc25783612bc4565b60008080612c1a89898787613f57565b9050610100620f42406fffffffffffffffffffffffffffffffff831661ffff8a16020460ff881681029190910490819003906106ba565b6000612c5c846133b9565b90506fffffffffffffffffffffffffffffffff8116612c7b5750505050565b8351821590600090612c909084908785613f99565b90506000612ca48488600001518486613fe9565b905067ffffffffffffffff8116156109d8576109d8878285614003565b600080808585018415612cf057612ce9816fffffffffffffffffffffffffffffffff166117e0565b9250612d0e565b612d0b816fffffffffffffffffffffffffffffffff166117e0565b93505b509195909450915050565b600080612d27868585614109565b9050846fffffffffffffffffffffffffffffffff16816fffffffffffffffffffffffffffffffff1611612d5a57806125c8565b5092949350505050565b6000806000806000612d778a8a8a61413f565b91509150600080612d8a84848c8c6141bf565b91509150612d9d8c8b8b8b8f87876141f6565b96509650965050505050955095509592505050565b82516fffffffffffffffffffffffffffffffff908116818316149083161515818015612ddb5750805b611366576040517f08c379a000000000000000000000000000000000000000000000000000000000815260206004820152600260248201527f52500000000000000000000000000000000000000000000000000000000000006044820152606401610751565b6000806000806000612e558a8a8a8a61428e565b91509150600080612e688b858c8c614308565b91509150612d9d8c8b8b8b8787876141f6565b600082612ea05784516fffffffffffffffffffffffffffffffff808416911611612eba565b84516fffffffffffffffffffffffffffffffff8084169116105b90506fffffffffffffffffffffffffffffffff841615818015612eda5750805b610812576040517f08c379a000000000000000000000000000000000000000000000000000000000815260206004820152600260248201527f52460000000000000000000000000000000000000000000000000000000000006044820152606401610751565b600061100c612f528360020b60101d90565b614327565b6000610100612f698360020b60081d90565b60010b81612a37577f4e487b7100000000000000000000000000000000000000000000000000000000600052601260045260246000fd5b600080612fc0612faf85614347565b60000b60010b60081b60ff85160190565b90508481604051602001612fe492919091825260010b60f01b602082015260220190565b604051602081830303815290604052805190602001209150509392505050565b600061150e61301285614347565b848460009290920b600290810b60101b60ff92831690910b60081b0191160190565b600061107b8361304384614347565b614386565b600060ff7fffffffffffffffffffffffffffffffffffffffffffffffffffffffffffffffff83015b60ff8160ff1610156130c95760008061308c8784866000611cd0565b91509150806130a05750925061100c915050565b50507fffffffffffffffffffffffffffffffffffffffffffffffffffffffffffffffff01613070565b506110086000613f20565b600080600183015b60ff811615613113576000806130f58784866001611cd0565b91509150806131095750925061100c915050565b50506001016130dc565b506110086001613f20565b600080600061312d878761244c565b8054909150600090613160906bffffffffffffffffffffffff808216916c010000000000000000000000009004166143aa565b9050856131755761317081615421565b613177565b805b825490945067ffffffffffffffff868116780100000000000000000000000000000000000000000000000090920416146132275781546131dd907801000000000000000000000000000000000000000000000000900467ffffffffffffffff16866153db565b825467ffffffffffffffff9190911678010000000000000000000000000000000000000000000000000277ffffffffffffffffffffffffffffffffffffffffffffffff9091161782555b856132385781546001161515613250565b81546c01000000000000000000000000900460011615155b9250505094509492505050565b610dad5460009073ffffffffffffffffffffffffffffffffffffffff1661328357600080fd5b6000806001610dac015460405160248101899052600288900b6044820152861515606482015267ffffffffffffffff8616608482015273ffffffffffffffffffffffffffffffffffffffff9091169060a401604080517fffffffffffffffffffffffffffffffffffffffffffffffffffffffffffffffe08184030181529181526020820180517bffffffffffffffffffffffffffffffffffffffffffffffffffffffff167f3c05c62100000000000000000000000000000000000000000000000000000000179052516133569190615081565b600060405180830381855af49150503d8060008114613391576040519150601f19603f3d011682016040523d82523d6000602084013e613396565b606091505b5091509150816133a557600080fd5b808060200190518101906109b29190614df9565b6000806133ce83602001518460600151612826565b905061107b81846040015161195d565b600081156133fe5750600167ffffffffffffffff604085901c160161107b565b68010000000000000000836fffffffffffffffffffffffffffffffff161161346557600061342f85600186036143c6565b60010190506fffffffffffffffffffffffffffffffff811115612bc2576fffffffffffffffffffffffffffffffff91505061107b565b50600167ffffffffffffffff604085901c160161107b565b600080600060016f0ffff5433e2b3d8211706e6102aa9472036fffffffffffffffffffffffffffffffff1686600001516fffffffffffffffffffffffffffffffff1610156134df5785516001016fffffffffffffffffffffffffffffffff1686525b6134fa846fffffffffffffffffffffffffffffffff166117e0565b60008661350857600061350a565b855b92509250925093509350939050565b6000806000620100026fffffffffffffffffffffffffffffffff1686600001516fffffffffffffffffffffffffffffffff16111561358a5785517fffffffffffffffffffffffffffffffffffffffffffffffffffffffffffffffff016fffffffffffffffffffffffffffffffff1686525b60006135a7856fffffffffffffffffffffffffffffffff166117e0565b861561350857600061350a565b600061107b82846153fc565b60006135ce8260020b612f57565b60ff166001901b19905060006135e68360020b6129fa565b60ff166001901b19905060006135fc85856129a4565b6000818152620100076020526040902080548416908190559091508061081257600061362887876136dc565b6000908152620100066020526040902080548616905550505050505050565b600061107b8284615395565b6000600267ffffffffffffffff838201811690851611156136795782840303905061100c565b600091505061100c565b67ffffffffffffffff166fffffffffffffffffffffffffffffffff9182160260301c1690565b806fffffffffffffffffffffffffffffffff811671ffffffffffffffffffffffffffffffffffff82161461199c57600080fd5b6000806136ef8360020b60020b60101d90565b905083816040516020016129db92919091825260000b60f81b602082015260210190565b6000816fffffffffffffffffffffffffffffffff16836fffffffffffffffffffffffffffffffff168567ffffffffffffffff16028161377b577f4e487b7100000000000000000000000000000000000000000000000000000000600052601260045260246000fd5b04949350505050565b60007ffffffffffffffffffffffffffffffffffffffffffffffffffffffffffff5d892600283900b128015906137c15750620cb14a600283900b13155b6137ca57600080fd5b6000808360020b126137df578260020b6137e7565b8260020b6000035b905060006001821661380a5770010000000000000000000000000000000061381c565b6ffffcb933bd6fad37aa2d162d1a5940015b70ffffffffffffffffffffffffffffffffff1690506002821615613850576ffff97272373d413259a46990580e213a0260801c5b600482161561386f576ffff2e50f5f656932ef12357cf3c7fdcc0260801c5b600882161561388e576fffe5caca7e10e4e61c3624eaa0941cd00260801c5b60108216156138ad576fffcb9843d60f6159c9db58835c9266440260801c5b60208216156138cc576fff973b41fa98c081472e6896dfb254c00260801c5b60408216156138eb576fff2ea16466c96a3843ec78b326b528610260801c5b608082161561390a576ffe5dee046a99a2a811c461f1969c30530260801c5b61010082161561392a576ffcbe86c7900a88aedcffc83b479aa3a40260801c5b61020082161561394a576ff987a7253ac413176f2b074cf7815e540260801c5b61040082161561396a576ff3392b0822b70005940c7a398e4b70f30260801c5b61080082161561398a576fe7159475a2c29b7443b29c7fa6e889d90260801c5b6110008216156139aa576fd097f3bdfd2022b8845ad8f792aa58250260801c5b6120008216156139ca576fa9f746462d870fdf8a65dc1f90e061e50260801c5b6140008216156139ea576f70d869a156d2a1b890bb3df62baf32f70260801c5b618000821615613a0a576f31be135f97d08fd981231505542fcfa60260801c5b62010000821615613a2b576f09aa508b5b7a84e1c677de54f3e99bc90260801c5b62020000821615613a4b576e5d6af8dedb81196699c329225ee6040260801c5b62040000821615613a6a576d2216e584f5fa1ea926041bedfe980260801c5b62080000821615613a87576b048a170391f7dc42444e8fa20260801c5b60008460020b1315613aed57807fffffffffffffffffffffffffffffffffffffffffffffffffffffffffffffffff81613ae9577f4e487b7100000000000000000000000000000000000000000000000000000000600052601260045260246000fd5b0490505b68010000000000000000810615613b05576001613b08565b60005b60ff16604082901c0192505050919050565b600080613b278385615395565b90506000613b3586856128b4565b77ffffffffffffffffffffffffffffffffffffffffffffffff1690506000856fffffffffffffffffffffffffffffffff16836fffffffffffffffffffffffffffffffff1683613b8491906152f5565b613b8e91906152bc565b90506109b281614430565b600061150e82613bb257613bad85856128b4565b613bce565b6fffffffffffffffffffffffffffffffff8086169085160260401c5b77ffffffffffffffffffffffffffffffffffffffffffffffff16614430565b600081613c035761ffff831684811b901c61150e565b505061ffff1690811c901b90565b6000808211613c1f57600080fd5b7001000000000000000000000000000000008210613c3f57608091821c91015b680100000000000000008210613c5757604091821c91015b6401000000008210613c6b57602091821c91015b620100008210613c7d57601091821c91015b6101008210613c8e57600891821c91015b60108210613c9e57600491821c91015b60048210613cae57600291821c91015b6002821061199c57600101919050565b6000808211613ccc57600080fd5b5060ff6fffffffffffffffffffffffffffffffff821615613d0e577fffffffffffffffffffffffffffffffffffffffffffffffffffffffffffffff8001613d16565b608082901c91505b67ffffffffffffffff821615613d4d577fffffffffffffffffffffffffffffffffffffffffffffffffffffffffffffffc001613d55565b604082901c91505b63ffffffff821615613d88577fffffffffffffffffffffffffffffffffffffffffffffffffffffffffffffffe001613d90565b602082901c91505b61ffff821615613dc1577ffffffffffffffffffffffffffffffffffffffffffffffffffffffffffffffff001613dc9565b601082901c91505b60ff821615613df9577ffffffffffffffffffffffffffffffffffffffffffffffffffffffffffffffff801613e01565b600882901c91505b600f821615613e31577ffffffffffffffffffffffffffffffffffffffffffffffffffffffffffffffffc01613e39565b600482901c91505b6003821615613e69577ffffffffffffffffffffffffffffffffffffffffffffffffffffffffffffffffe01613e71565b600282901c91505b600182161561199c577fffffffffffffffffffffffffffffffffffffffffffffffffffffffffffffffff01919050565b6000806000613eb5858560ff166001612a55565b915060ff1691508015801561111657508360ff16821495945050505050565b600081613f01577fffffffffffffffffffffffffffffffffffffffffffffffffffffffffffff800061100c565b617fff92915050565b600081613f1857600061100c565b60ff92915050565b600081613f4d577fffffffffffffffffffffffffffffffffffffffffffffffffffffffffff80000061100c565b627fffff92915050565b83516000906fffffffffffffffffffffffffffffffff9081169083161181613f8187878787612d19565b90506109b2613f8f886133b9565b885183858961444f565b600080613fa78686856133de565b9050806fffffffffffffffffffffffffffffffff16846fffffffffffffffffffffffffffffffff161115613fdd578084036125c8565b50600095945050505050565b600080613ff7868685613b99565b90506125c88185614589565b825161401090838361461b565b6fffffffffffffffffffffffffffffffff168352606083015161403d9067ffffffffffffffff16836146c7565b67ffffffffffffffff90811660608501819052600091614060919085169061472a565b905060006140a96140908387604001516fffffffffffffffffffffffffffffffff1661368390919063ffffffff16565b71ffffffffffffffffffffffffffffffffffff16614430565b905060006140b78383614799565b905081866020018181516140cb9190615265565b6fffffffffffffffffffffffffffffffff169052506080860180518291906140f4908390615299565b67ffffffffffffffff16905250505050505050565b600080614115856133b9565b9050836141305761412b818487600001516126f5565b611116565b61111681866000015185612740565b600080600061414d866133b9565b8651909150600090614173906fffffffffffffffffffffffffffffffff84169088612740565b8751909150600090614199906fffffffffffffffffffffffffffffffff851690896126f5565b905085156141ad57909350915082826141b4565b9350915081835b505050935093915050565b6000806141ce86868686614809565b90925090506141de60048361519e565b91506141eb60048261519e565b905094509492505050565b600080600080614207868b8b6148ad565b9050876fffffffffffffffffffffffffffffffff16816fffffffffffffffffffffffffffffffff161061423d576000915061424a565b6142478189615395565b91505b896142555784614257565b855b9350896142645785614266565b845b6fffffffffffffffffffffffffffffffff909716909a52919994985090965092945050505050565b600080600061429c876133b9565b90506142af8760000151828888886148e3565b915084156142dc5786516142d7906fffffffffffffffffffffffffffffffff831690846126f5565b6142fc565b86516142fc906fffffffffffffffffffffffffffffffff83169084612740565b92505094509492505050565b60008061431786868686614809565b90925090506141eb60048261519e565b6000808260000b1215614340578160000b60800161100c565b5060800190565b600060808260ff161061435d576080820361100c565b5060ff167fffffffffffffffffffffffffffffffffffffffffffffffffffffffffffffff800190565b6000828260405160200161280892919091825260000b60f81b602082015260210190565b60006143b58261497f565b6143be8461497f565b039392505050565b60006fffffffffffffffffffffffffffffffff8216800277ffffffffffffffffffffffffffffffff0000000000000000604085901b168161291c577f4e487b7100000000000000000000000000000000000000000000000000000000600052601260045260246000fd5b806fffffffffffffffffffffffffffffffff8116811461199c57600080fd5b60006fffffffffffffffffffffffffffffffff861661447057506000611116565b600061447e87878515613b99565b6fffffffffffffffffffffffffffffffff169050600061449f888886613b99565b6fffffffffffffffffffffffffffffffff1690506000841515861515146144da57866fffffffffffffffffffffffffffffffff1682036144f0565b866fffffffffffffffffffffffffffffffff1682015b905080614512576fffffffffffffffffffffffffffffffff9350505050611116565b6000816fffffffffffffffffffffffffffffffff8b1680028161455e577f4e487b7100000000000000000000000000000000000000000000000000000000600052601260045260246000fd5b04905061457b84821161457357818503614430565b848203614430565b9a9950505050505050505050565b60006fffffffffffffffffffffffffffffffff831615806145cd5750826fffffffffffffffffffffffffffffffff16826fffffffffffffffffffffffffffffffff16115b156145da5750600061100c565b60006145e68385615265565b905060006146066fffffffffffffffffffffffffffffffff83168661499b565b90506111168167ffffffffffffffff16614a8b565b6000660100000000000067ffffffffffffffff841681018315614669576fffffffffffffffffffffffffffffffff86168102603081901c61465e60018201614430565b94505050505061107b565b75ffffffffffffffffffffffffffffffff000000000000603087901b168181816146bc577f4e487b7100000000000000000000000000000000000000000000000000000000600052601260045260246000fd5b04935050505061107b565b6000660100000000000067ffffffffffffffff848116820181851683010290603082901c907fffffffffffffffffffffffffffffffffffffffffffffffffffff00000000000082019081106125c85767ffffffffffffffff94505050505061100c565b6000660100000000000067ffffffffffffffff831681016dffffffffffffffff000000000000603086901b168382828161478d577f4e487b7100000000000000000000000000000000000000000000000000000000600052601260045260246000fd5b04979650505050505050565b60006fffffffffffffffffffffffffffffffff82166147ba5750600061100c565b6147c5826001615265565b6fffffffffffffffffffffffffffffffff16826fffffffffffffffffffffffffffffffff168467ffffffffffffffff166147ff91906152f5565b61107b91906152bc565b600080821515841515141561486157614833866fffffffffffffffffffffffffffffffff166117e0565b61484e866fffffffffffffffffffffffffffffffff166117e0565b61485790615421565b909250905061066f565b61487c866fffffffffffffffffffffffffffffffff166117e0565b61488590615421565b6148a0866fffffffffffffffffffffffffffffffff166117e0565b9097909650945050505050565b600080821515841515146148c9576148c485615421565b6148cb565b845b9050600081600f0b121561150e57600091505061107b565b600080836148fc576148f787878786614acf565b614908565b61490887878786614b33565b90506f0ffff5433e2b3d8211706e6102aa94726fffffffffffffffffffffffffffffffff8216106149565761494e60016f0ffff5433e2b3d8211706e6102aa9472615395565b915050611116565b620100026fffffffffffffffffffffffffffffffff821610156125c85762010002915050611116565b6000600a82901b6d03fffffffffffffffffffffff8001661100c565b600079ffffffffffffffffffffffffffffffffffffffffffffffffffff6fffffffffffffffffffffffffffffffff84161080156149fc5750816fffffffffffffffffffffffffffffffff16836fffffffffffffffffffffffffffffffff1610155b614a0557600080fd5b660100000000000075ffffffffffffffffffffffffffffffff000000000000603085901b166000826fffffffffffffffffffffffffffffffff86168381614a75577f4e487b7100000000000000000000000000000000000000000000000000000000600052601260045260246000fd5b040390508281106111165782935050505061100c565b600066010000000000008267ffffffffffffffff1610614aaa57600080fd5b5067ffffffffffffffff8116800260331c60019190911c677fffffffffffffff160390565b600080614adb86614c21565b90506000614aec8287878715614b33565b90506fffffffffffffffffffffffffffffffff8116614b1f576f0ffff5433e2b3d8211706e6102aa94729250505061150e565b614b2881614c21565b6109b2906001615265565b60006fffffffffffffffffffffffffffffffff8416614b6357506fffffffffffffffffffffffffffffffff61150e565b6000614b6f84866128b4565b90506fffffffffffffffffffffffffffffffff77ffffffffffffffffffffffffffffffffffffffffffffffff82161115614bbc576fffffffffffffffffffffffffffffffff91505061150e565b808315614bd657614bcd8188615265565b9250505061150e565b866fffffffffffffffffffffffffffffffff16816fffffffffffffffffffffffffffffffff1610614c0c5760009250505061150e565b614c17816001615265565b614bcd9088615395565b6000816fffffffffffffffffffffffffffffffff1670010000000000000000000000000000000081614c7c577f4e487b7100000000000000000000000000000000000000000000000000000000600052601260045260246000fd5b0492915050565b803573ffffffffffffffffffffffffffffffffffffffff8116811461199c57600080fd5b8035600281900b811461199c57600080fd5b6000818303610120811215614ccc578182fd5b614cd46150ba565b915060e0811215614ce457600080fd5b50614ced61510a565b614cf683614dcc565b8152614d0460208401614da2565b6020820152614d1560408401614dcc565b6040820152614d2660608401614da2565b6060820152614d3760808401614dcc565b6080820152614d4860a08401614dcc565b60a0820152614d5960c08401614dcc565b60c0820152815260e08201356020820152614d776101008301614c83565b604082015292915050565b80356fffffffffffffffffffffffffffffffff8116811461199c57600080fd5b803561ffff8116811461199c57600080fd5b803567ffffffffffffffff8116811461199c57600080fd5b803560ff8116811461199c57600080fd5b600060208284031215614dee578081fd5b815161107b8161548d565b600060208284031215614e0a578081fd5b815180600f0b811461107b578182fd5b600080600080848603610280811215614e31578384fd5b60a0811215614e3e578384fd5b614e46615154565b614e4f87614d82565b8152614e5d60208801614d82565b6020820152614e6e60408801614d82565b6040820152614e7f60608801614db4565b6060820152614e9060808801614db4565b60808201529450614ea360a08701614ca7565b935060a07fffffffffffffffffffffffffffffffffffffffffffffffffffffffffffffff4082011215614ed4578283fd5b50614edd615154565b60c0860135614eeb8161548d565b815260e0860135614efb8161548d565b6020820152614f0d6101008701614dcc565b6040820152614f1f6101208701614d82565b6060820152614f316101408701614d82565b60808201529150614f46866101608701614cb9565b905092959194509250565b6000806000806000806000806000806101408b8d031215614f70578586fd5b614f798b614d82565b9950614f8760208c01614ca7565b9850614f9560408c01614d82565b9750614fa360608c01614d82565b9650614fb160808c01614db4565b9550614fbf60a08c01614db4565b9450614fcd60c08c01614ca7565b9350614fdb60e08c01614ca7565b9250614fea6101008c01614d82565b91506101208b013590509295989b9194979a5092959850565b600080600080600080600060e0888a03121561501d578283fd5b61502688614d82565b965061503460208901614d82565b955061504260408901614d82565b945061505060608901614db4565b935061505e60808901614db4565b925061506c60a08901614d82565b915060c0880135905092959891949750929550565b60008251815b818110156150a15760208186018101518583015201615087565b818111156150af5782828501525b509190910192915050565b6040516060810167ffffffffffffffff81118282101715615104577f4e487b7100000000000000000000000000000000000000000000000000000000600052604160045260246000fd5b60405290565b60405160e0810167ffffffffffffffff81118282101715615104577f4e487b7100000000000000000000000000000000000000000000000000000000600052604160045260246000fd5b60405160a0810167ffffffffffffffff81118282101715615104577f4e487b7100000000000000000000000000000000000000000000000000000000600052604160045260246000fd5b600081600f0b83600f0b828212826f7fffffffffffffffffffffffffffffff038213811516156151d0576151d061545e565b827fffffffffffffffffffffffffffffffff800000000000000000000000000000000382128116156152045761520461545e565b50019392505050565b60008160010b8360010b82821282617fff038213811516156152315761523161545e565b827fffffffffffffffffffffffffffffffffffffffffffffffffffffffffffff80000382128116156152045761520461545e565b60006fffffffffffffffffffffffffffffffff8083168185168083038211156152905761529061545e565b01949350505050565b600067ffffffffffffffff8083168185168083038211156152905761529061545e565b6000826152f0577f4e487b710000000000000000000000000000000000000000000000000000000081526012600452602481fd5b500490565b6000817fffffffffffffffffffffffffffffffffffffffffffffffffffffffffffffffff048311821515161561532d5761532d61545e565b500290565b60008160020b8360020b828112817fffffffffffffffffffffffffffffffffffffffffffffffffffffffffff800000018312811516156153745761537461545e565b81627fffff01831381161561538b5761538b61545e565b5090039392505050565b60006fffffffffffffffffffffffffffffffff838116908316818110156143be576143be61545e565b600063ffffffff838116908316818110156143be576143be61545e565b600067ffffffffffffffff838116908316818110156143be576143be61545e565b60006bffffffffffffffffffffffff838116908316818110156143be576143be61545e565b600081600f0b7fffffffffffffffffffffffffffffffff800000000000000000000000000000008114156154575761545761545e565b9003919050565b7f4e487b7100000000000000000000000000000000000000000000000000000000600052601160045260246000fd5b801515811461549b57600080fd5b5056fea264697066735822122061a30a2ebe4f4505b5fdff0da7049e652884f6ccbe4541e6a31643f71405f1f664736f6c63430008040033",
  "linkReferences": {},
  "deployedLinkReferences": {}
}